{
	"contracts/ClassRepVoting.sol": {
		"ClassRepresentativeVoting": {
			"abi": [
				{
					"inputs": [],
					"stateMutability": "nonpayable",
					"type": "constructor"
				},
				{
					"anonymous": false,
					"inputs": [
						{
							"indexed": false,
							"internalType": "uint256",
							"name": "id",
							"type": "uint256"
						},
						{
							"indexed": false,
							"internalType": "string",
							"name": "name",
							"type": "string"
						}
					],
					"name": "CandidateRegistered",
					"type": "event"
				},
				{
					"anonymous": false,
					"inputs": [
						{
							"indexed": false,
							"internalType": "address",
							"name": "voter",
							"type": "address"
						},
						{
							"indexed": false,
							"internalType": "uint256",
							"name": "candidateId",
							"type": "uint256"
						}
					],
					"name": "VoteCast",
					"type": "event"
				},
				{
					"inputs": [],
					"name": "admin",
					"outputs": [
						{
							"internalType": "address",
							"name": "",
							"type": "address"
						}
					],
					"stateMutability": "view",
					"type": "function"
				},
				{
					"inputs": [],
					"name": "candidateCount",
					"outputs": [
						{
							"internalType": "uint256",
							"name": "",
							"type": "uint256"
						}
					],
					"stateMutability": "view",
					"type": "function"
				},
				{
					"inputs": [
						{
							"internalType": "uint256",
							"name": "",
							"type": "uint256"
						}
					],
					"name": "candidates",
					"outputs": [
						{
							"internalType": "uint256",
							"name": "id",
							"type": "uint256"
						},
						{
							"internalType": "string",
							"name": "name",
							"type": "string"
						},
						{
							"internalType": "uint256",
							"name": "voteCount",
							"type": "uint256"
						}
					],
					"stateMutability": "view",
					"type": "function"
				},
				{
					"inputs": [
						{
							"internalType": "uint256",
							"name": "id",
							"type": "uint256"
						}
					],
					"name": "getCandidate",
					"outputs": [
						{
							"components": [
								{
									"internalType": "uint256",
									"name": "id",
									"type": "uint256"
								},
								{
									"internalType": "string",
									"name": "name",
									"type": "string"
								},
								{
									"internalType": "uint256",
									"name": "voteCount",
									"type": "uint256"
								}
							],
							"internalType": "struct ClassRepresentativeVoting.Candidate",
							"name": "",
							"type": "tuple"
						}
					],
					"stateMutability": "view",
					"type": "function"
				},
				{
					"inputs": [],
					"name": "getResults",
					"outputs": [
						{
							"components": [
								{
									"internalType": "uint256",
									"name": "id",
									"type": "uint256"
								},
								{
									"internalType": "string",
									"name": "name",
									"type": "string"
								},
								{
									"internalType": "uint256",
									"name": "voteCount",
									"type": "uint256"
								}
							],
							"internalType": "struct ClassRepresentativeVoting.Candidate[]",
							"name": "",
							"type": "tuple[]"
						}
					],
					"stateMutability": "view",
					"type": "function"
				},
				{
					"inputs": [
						{
							"internalType": "address",
							"name": "voter",
							"type": "address"
						}
					],
					"name": "getVoter",
					"outputs": [
						{
							"components": [
								{
									"internalType": "bool",
									"name": "registered",
									"type": "bool"
								},
								{
									"internalType": "bool",
									"name": "voted",
									"type": "bool"
								},
								{
									"internalType": "uint256",
									"name": "vote",
									"type": "uint256"
								}
							],
							"internalType": "struct ClassRepresentativeVoting.Voter",
							"name": "",
							"type": "tuple"
						}
					],
					"stateMutability": "view",
					"type": "function"
				},
				{
					"inputs": [
						{
							"internalType": "string",
							"name": "name",
							"type": "string"
						}
					],
					"name": "registerCandidate",
					"outputs": [],
					"stateMutability": "nonpayable",
					"type": "function"
				},
				{
					"inputs": [
						{
							"internalType": "address",
							"name": "voter",
							"type": "address"
						}
					],
					"name": "registerVoter",
					"outputs": [],
					"stateMutability": "nonpayable",
					"type": "function"
				},
				{
					"inputs": [
						{
							"internalType": "uint256",
							"name": "candidateId",
							"type": "uint256"
						}
					],
					"name": "vote",
					"outputs": [],
					"stateMutability": "nonpayable",
					"type": "function"
				},
				{
					"inputs": [],
					"name": "voterCount",
					"outputs": [
						{
							"internalType": "uint256",
							"name": "",
							"type": "uint256"
						}
					],
					"stateMutability": "view",
					"type": "function"
				},
				{
					"inputs": [
						{
							"internalType": "address",
							"name": "",
							"type": "address"
						}
					],
					"name": "voters",
					"outputs": [
						{
							"internalType": "bool",
							"name": "registered",
							"type": "bool"
						},
						{
							"internalType": "bool",
							"name": "voted",
							"type": "bool"
						},
						{
							"internalType": "uint256",
							"name": "vote",
							"type": "uint256"
						}
					],
					"stateMutability": "view",
					"type": "function"
				}
			],
			"devdoc": {
				"kind": "dev",
				"methods": {},
				"version": 1
			},
			"evm": {
				"assembly": "    /* \"contracts/ClassRepVoting.sol\":58:2148  contract ClassRepresentativeVoting {... */\n  mstore(0x40, 0x80)\n    /* \"contracts/ClassRepVoting.sol\":336:337  0 */\n  0x00\n    /* \"contracts/ClassRepVoting.sol\":307:337  uint public candidateCount = 0 */\n  0x01\n  sstore\n    /* \"contracts/ClassRepVoting.sol\":368:369  0 */\n  0x00\n    /* \"contracts/ClassRepVoting.sol\":343:369  uint public voterCount = 0 */\n  0x02\n  sstore\n    /* \"contracts/ClassRepVoting.sol\":700:749  constructor() {... */\n  callvalue\n  dup1\n  iszero\n  tag_1\n  jumpi\n  0x00\n  dup1\n  revert\ntag_1:\n  pop\n    /* \"contracts/ClassRepVoting.sol\":732:742  msg.sender */\n  caller\n    /* \"contracts/ClassRepVoting.sol\":724:729  admin */\n  0x00\n  dup1\n    /* \"contracts/ClassRepVoting.sol\":724:742  admin = msg.sender */\n  0x0100\n  exp\n  dup2\n  sload\n  dup2\n  0xffffffffffffffffffffffffffffffffffffffff\n  mul\n  not\n  and\n  swap1\n  dup4\n  0xffffffffffffffffffffffffffffffffffffffff\n  and\n  mul\n  or\n  swap1\n  sstore\n  pop\n    /* \"contracts/ClassRepVoting.sol\":58:2148  contract ClassRepresentativeVoting {... */\n  dataSize(sub_0)\n  dup1\n  dataOffset(sub_0)\n  0x00\n  codecopy\n  0x00\n  return\nstop\n\nsub_0: assembly {\n        /* \"contracts/ClassRepVoting.sol\":58:2148  contract ClassRepresentativeVoting {... */\n      mstore(0x40, 0x80)\n      callvalue\n      dup1\n      iszero\n      tag_1\n      jumpi\n      0x00\n      dup1\n      revert\n    tag_1:\n      pop\n      jumpi(tag_2, lt(calldatasize, 0x04))\n      shr(0xe0, calldataload(0x00))\n      dup1\n      0x4717f97c\n      gt\n      tag_14\n      jumpi\n      dup1\n      0x4717f97c\n      eq\n      tag_8\n      jumpi\n      dup1\n      0x9eb88db6\n      eq\n      tag_9\n      jumpi\n      dup1\n      0xa3ec138d\n      eq\n      tag_10\n      jumpi\n      dup1\n      0xa9a981a3\n      eq\n      tag_11\n      jumpi\n      dup1\n      0xd4f50f98\n      eq\n      tag_12\n      jumpi\n      dup1\n      0xf851a440\n      eq\n      tag_13\n      jumpi\n      jump(tag_2)\n    tag_14:\n      dup1\n      0x0121b93f\n      eq\n      tag_3\n      jumpi\n      dup1\n      0x3477ee2e\n      eq\n      tag_4\n      jumpi\n      dup1\n      0x35b8e820\n      eq\n      tag_5\n      jumpi\n      dup1\n      0x38db6dd3\n      eq\n      tag_6\n      jumpi\n      dup1\n      0x42169e48\n      eq\n      tag_7\n      jumpi\n    tag_2:\n      0x00\n      dup1\n      revert\n        /* \"contracts/ClassRepVoting.sol\":1199:1646  function vote(uint candidateId) public {... */\n    tag_3:\n      tag_15\n      0x04\n      dup1\n      calldatasize\n      sub\n      dup2\n      add\n      swap1\n      tag_16\n      swap2\n      swap1\n      tag_17\n      jump\t// in\n    tag_16:\n      tag_18\n      jump\t// in\n    tag_15:\n      stop\n        /* \"contracts/ClassRepVoting.sol\":376:420  mapping(uint => Candidate) public candidates */\n    tag_4:\n      tag_19\n      0x04\n      dup1\n      calldatasize\n      sub\n      dup2\n      add\n      swap1\n      tag_20\n      swap2\n      swap1\n      tag_17\n      jump\t// in\n    tag_20:\n      tag_21\n      jump\t// in\n    tag_19:\n      mload(0x40)\n      tag_22\n      swap4\n      swap3\n      swap2\n      swap1\n      tag_23\n      jump\t// in\n    tag_22:\n      mload(0x40)\n      dup1\n      swap2\n      sub\n      swap1\n      return\n        /* \"contracts/ClassRepVoting.sol\":1652:1760  function getCandidate(uint id) public view returns (Candidate memory) {... */\n    tag_5:\n      tag_24\n      0x04\n      dup1\n      calldatasize\n      sub\n      dup2\n      add\n      swap1\n      tag_25\n      swap2\n      swap1\n      tag_17\n      jump\t// in\n    tag_25:\n      tag_26\n      jump\t// in\n    tag_24:\n      mload(0x40)\n      tag_27\n      swap2\n      swap1\n      tag_28\n      jump\t// in\n    tag_27:\n      mload(0x40)\n      dup1\n      swap2\n      sub\n      swap1\n      return\n        /* \"contracts/ClassRepVoting.sol\":987:1193  function registerVoter(address voter) public onlyAdmin {... */\n    tag_6:\n      tag_29\n      0x04\n      dup1\n      calldatasize\n      sub\n      dup2\n      add\n      swap1\n      tag_30\n      swap2\n      swap1\n      tag_31\n      jump\t// in\n    tag_30:\n      tag_32\n      jump\t// in\n    tag_29:\n      stop\n        /* \"contracts/ClassRepVoting.sol\":343:369  uint public voterCount = 0 */\n    tag_7:\n      tag_33\n      tag_34\n      jump\t// in\n    tag_33:\n      mload(0x40)\n      tag_35\n      swap2\n      swap1\n      tag_36\n      jump\t// in\n    tag_35:\n      mload(0x40)\n      dup1\n      swap2\n      sub\n      swap1\n      return\n        /* \"contracts/ClassRepVoting.sol\":1877:2146  function getResults() public view returns (Candidate[] memory) {... */\n    tag_8:\n      tag_37\n      tag_38\n      jump\t// in\n    tag_37:\n      mload(0x40)\n      tag_39\n      swap2\n      swap1\n      tag_40\n      jump\t// in\n    tag_39:\n      mload(0x40)\n      dup1\n      swap2\n      sub\n      swap1\n      return\n        /* \"contracts/ClassRepVoting.sol\":755:981  function registerCandidate(string memory name) public onlyAdmin {... */\n    tag_9:\n      tag_41\n      0x04\n      dup1\n      calldatasize\n      sub\n      dup2\n      add\n      swap1\n      tag_42\n      swap2\n      swap1\n      tag_43\n      jump\t// in\n    tag_42:\n      tag_44\n      jump\t// in\n    tag_41:\n      stop\n        /* \"contracts/ClassRepVoting.sol\":426:465  mapping(address => Voter) public voters */\n    tag_10:\n      tag_45\n      0x04\n      dup1\n      calldatasize\n      sub\n      dup2\n      add\n      swap1\n      tag_46\n      swap2\n      swap1\n      tag_31\n      jump\t// in\n    tag_46:\n      tag_47\n      jump\t// in\n    tag_45:\n      mload(0x40)\n      tag_48\n      swap4\n      swap3\n      swap2\n      swap1\n      tag_49\n      jump\t// in\n    tag_48:\n      mload(0x40)\n      dup1\n      swap2\n      sub\n      swap1\n      return\n        /* \"contracts/ClassRepVoting.sol\":307:337  uint public candidateCount = 0 */\n    tag_11:\n      tag_50\n      tag_51\n      jump\t// in\n    tag_50:\n      mload(0x40)\n      tag_52\n      swap2\n      swap1\n      tag_36\n      jump\t// in\n    tag_52:\n      mload(0x40)\n      dup1\n      swap2\n      sub\n      swap1\n      return\n        /* \"contracts/ClassRepVoting.sol\":1766:1871  function getVoter(address voter) public view returns (Voter memory) {... */\n    tag_12:\n      tag_53\n      0x04\n      dup1\n      calldatasize\n      sub\n      dup2\n      add\n      swap1\n      tag_54\n      swap2\n      swap1\n      tag_31\n      jump\t// in\n    tag_54:\n      tag_55\n      jump\t// in\n    tag_53:\n      mload(0x40)\n      tag_56\n      swap2\n      swap1\n      tag_57\n      jump\t// in\n    tag_56:\n      mload(0x40)\n      dup1\n      swap2\n      sub\n      swap1\n      return\n        /* \"contracts/ClassRepVoting.sol\":281:301  address public admin */\n    tag_13:\n      tag_58\n      tag_59\n      jump\t// in\n    tag_58:\n      mload(0x40)\n      tag_60\n      swap2\n      swap1\n      tag_61\n      jump\t// in\n    tag_60:\n      mload(0x40)\n      dup1\n      swap2\n      sub\n      swap1\n      return\n        /* \"contracts/ClassRepVoting.sol\":1199:1646  function vote(uint candidateId) public {... */\n    tag_18:\n        /* \"contracts/ClassRepVoting.sol\":1256:1262  voters */\n      0x04\n        /* \"contracts/ClassRepVoting.sol\":1256:1274  voters[msg.sender] */\n      0x00\n        /* \"contracts/ClassRepVoting.sol\":1263:1273  msg.sender */\n      caller\n        /* \"contracts/ClassRepVoting.sol\":1256:1274  voters[msg.sender] */\n      0xffffffffffffffffffffffffffffffffffffffff\n      and\n      0xffffffffffffffffffffffffffffffffffffffff\n      and\n      dup2\n      mstore\n      0x20\n      add\n      swap1\n      dup2\n      mstore\n      0x20\n      add\n      0x00\n      keccak256\n        /* \"contracts/ClassRepVoting.sol\":1256:1285  voters[msg.sender].registered */\n      0x00\n      add\n      0x00\n      swap1\n      sload\n      swap1\n      0x0100\n      exp\n      swap1\n      div\n      0xff\n      and\n        /* \"contracts/ClassRepVoting.sol\":1248:1312  require(voters[msg.sender].registered, \"Not a registered voter\") */\n      tag_63\n      jumpi\n      mload(0x40)\n      0x08c379a000000000000000000000000000000000000000000000000000000000\n      dup2\n      mstore\n      0x04\n      add\n      tag_64\n      swap1\n      tag_65\n      jump\t// in\n    tag_64:\n      mload(0x40)\n      dup1\n      swap2\n      sub\n      swap1\n      revert\n    tag_63:\n        /* \"contracts/ClassRepVoting.sol\":1331:1337  voters */\n      0x04\n        /* \"contracts/ClassRepVoting.sol\":1331:1349  voters[msg.sender] */\n      0x00\n        /* \"contracts/ClassRepVoting.sol\":1338:1348  msg.sender */\n      caller\n        /* \"contracts/ClassRepVoting.sol\":1331:1349  voters[msg.sender] */\n      0xffffffffffffffffffffffffffffffffffffffff\n      and\n      0xffffffffffffffffffffffffffffffffffffffff\n      and\n      dup2\n      mstore\n      0x20\n      add\n      swap1\n      dup2\n      mstore\n      0x20\n      add\n      0x00\n      keccak256\n        /* \"contracts/ClassRepVoting.sol\":1331:1355  voters[msg.sender].voted */\n      0x00\n      add\n      0x01\n      swap1\n      sload\n      swap1\n      0x0100\n      exp\n      swap1\n      div\n      0xff\n      and\n        /* \"contracts/ClassRepVoting.sol\":1330:1355  !voters[msg.sender].voted */\n      iszero\n        /* \"contracts/ClassRepVoting.sol\":1322:1373  require(!voters[msg.sender].voted, \"Already voted\") */\n      tag_66\n      jumpi\n      mload(0x40)\n      0x08c379a000000000000000000000000000000000000000000000000000000000\n      dup2\n      mstore\n      0x04\n      add\n      tag_67\n      swap1\n      tag_68\n      jump\t// in\n    tag_67:\n      mload(0x40)\n      dup1\n      swap2\n      sub\n      swap1\n      revert\n    tag_66:\n        /* \"contracts/ClassRepVoting.sol\":1421:1432  candidateId */\n      dup1\n        /* \"contracts/ClassRepVoting.sol\":1391:1401  candidates */\n      0x03\n        /* \"contracts/ClassRepVoting.sol\":1391:1414  candidates[candidateId] */\n      0x00\n        /* \"contracts/ClassRepVoting.sol\":1402:1413  candidateId */\n      dup4\n        /* \"contracts/ClassRepVoting.sol\":1391:1414  candidates[candidateId] */\n      dup2\n      mstore\n      0x20\n      add\n      swap1\n      dup2\n      mstore\n      0x20\n      add\n      0x00\n      keccak256\n        /* \"contracts/ClassRepVoting.sol\":1391:1417  candidates[candidateId].id */\n      0x00\n      add\n      sload\n        /* \"contracts/ClassRepVoting.sol\":1391:1432  candidates[candidateId].id == candidateId */\n      eq\n        /* \"contracts/ClassRepVoting.sol\":1383:1456  require(candidates[candidateId].id == candidateId, \"Candidate not found\") */\n      tag_69\n      jumpi\n      mload(0x40)\n      0x08c379a000000000000000000000000000000000000000000000000000000000\n      dup2\n      mstore\n      0x04\n      add\n      tag_70\n      swap1\n      tag_71\n      jump\t// in\n    tag_70:\n      mload(0x40)\n      dup1\n      swap2\n      sub\n      swap1\n      revert\n    tag_69:\n        /* \"contracts/ClassRepVoting.sol\":1494:1498  true */\n      0x01\n        /* \"contracts/ClassRepVoting.sol\":1467:1473  voters */\n      0x04\n        /* \"contracts/ClassRepVoting.sol\":1467:1485  voters[msg.sender] */\n      0x00\n        /* \"contracts/ClassRepVoting.sol\":1474:1484  msg.sender */\n      caller\n        /* \"contracts/ClassRepVoting.sol\":1467:1485  voters[msg.sender] */\n      0xffffffffffffffffffffffffffffffffffffffff\n      and\n      0xffffffffffffffffffffffffffffffffffffffff\n      and\n      dup2\n      mstore\n      0x20\n      add\n      swap1\n      dup2\n      mstore\n      0x20\n      add\n      0x00\n      keccak256\n        /* \"contracts/ClassRepVoting.sol\":1467:1491  voters[msg.sender].voted */\n      0x00\n      add\n      0x01\n        /* \"contracts/ClassRepVoting.sol\":1467:1498  voters[msg.sender].voted = true */\n      0x0100\n      exp\n      dup2\n      sload\n      dup2\n      0xff\n      mul\n      not\n      and\n      swap1\n      dup4\n      iszero\n      iszero\n      mul\n      or\n      swap1\n      sstore\n      pop\n        /* \"contracts/ClassRepVoting.sol\":1534:1545  candidateId */\n      dup1\n        /* \"contracts/ClassRepVoting.sol\":1508:1514  voters */\n      0x04\n        /* \"contracts/ClassRepVoting.sol\":1508:1526  voters[msg.sender] */\n      0x00\n        /* \"contracts/ClassRepVoting.sol\":1515:1525  msg.sender */\n      caller\n        /* \"contracts/ClassRepVoting.sol\":1508:1526  voters[msg.sender] */\n      0xffffffffffffffffffffffffffffffffffffffff\n      and\n      0xffffffffffffffffffffffffffffffffffffffff\n      and\n      dup2\n      mstore\n      0x20\n      add\n      swap1\n      dup2\n      mstore\n      0x20\n      add\n      0x00\n      keccak256\n        /* \"contracts/ClassRepVoting.sol\":1508:1531  voters[msg.sender].vote */\n      0x01\n      add\n        /* \"contracts/ClassRepVoting.sol\":1508:1545  voters[msg.sender].vote = candidateId */\n      dup2\n      swap1\n      sstore\n      pop\n        /* \"contracts/ClassRepVoting.sol\":1555:1565  candidates */\n      0x03\n        /* \"contracts/ClassRepVoting.sol\":1555:1578  candidates[candidateId] */\n      0x00\n        /* \"contracts/ClassRepVoting.sol\":1566:1577  candidateId */\n      dup3\n        /* \"contracts/ClassRepVoting.sol\":1555:1578  candidates[candidateId] */\n      dup2\n      mstore\n      0x20\n      add\n      swap1\n      dup2\n      mstore\n      0x20\n      add\n      0x00\n      keccak256\n        /* \"contracts/ClassRepVoting.sol\":1555:1588  candidates[candidateId].voteCount */\n      0x02\n      add\n      0x00\n        /* \"contracts/ClassRepVoting.sol\":1555:1590  candidates[candidateId].voteCount++ */\n      dup2\n      sload\n      dup1\n      swap3\n      swap2\n      swap1\n      tag_72\n      swap1\n      tag_73\n      jump\t// in\n    tag_72:\n      swap2\n      swap1\n      pop\n      sstore\n      pop\n        /* \"contracts/ClassRepVoting.sol\":1606:1639  VoteCast(msg.sender, candidateId) */\n      0xa36cc2bebb74db33e9f88110a07ef56e1b31b24b4c4f51b54b1664266e29f45b\n        /* \"contracts/ClassRepVoting.sol\":1615:1625  msg.sender */\n      caller\n        /* \"contracts/ClassRepVoting.sol\":1627:1638  candidateId */\n      dup3\n        /* \"contracts/ClassRepVoting.sol\":1606:1639  VoteCast(msg.sender, candidateId) */\n      mload(0x40)\n      tag_74\n      swap3\n      swap2\n      swap1\n      tag_75\n      jump\t// in\n    tag_74:\n      mload(0x40)\n      dup1\n      swap2\n      sub\n      swap1\n      log1\n        /* \"contracts/ClassRepVoting.sol\":1199:1646  function vote(uint candidateId) public {... */\n      pop\n      jump\t// out\n        /* \"contracts/ClassRepVoting.sol\":376:420  mapping(uint => Candidate) public candidates */\n    tag_21:\n      mstore(0x20, 0x03)\n      dup1\n      0x00\n      mstore\n      keccak256(0x00, 0x40)\n      0x00\n      swap2\n      pop\n      swap1\n      pop\n      dup1\n      0x00\n      add\n      sload\n      swap1\n      dup1\n      0x01\n      add\n      dup1\n      sload\n      tag_76\n      swap1\n      tag_77\n      jump\t// in\n    tag_76:\n      dup1\n      0x1f\n      add\n      0x20\n      dup1\n      swap2\n      div\n      mul\n      0x20\n      add\n      mload(0x40)\n      swap1\n      dup2\n      add\n      0x40\n      mstore\n      dup1\n      swap3\n      swap2\n      swap1\n      dup2\n      dup2\n      mstore\n      0x20\n      add\n      dup3\n      dup1\n      sload\n      tag_78\n      swap1\n      tag_77\n      jump\t// in\n    tag_78:\n      dup1\n      iszero\n      tag_79\n      jumpi\n      dup1\n      0x1f\n      lt\n      tag_80\n      jumpi\n      0x0100\n      dup1\n      dup4\n      sload\n      div\n      mul\n      dup4\n      mstore\n      swap2\n      0x20\n      add\n      swap2\n      jump(tag_79)\n    tag_80:\n      dup3\n      add\n      swap2\n      swap1\n      0x00\n      mstore\n      keccak256(0x00, 0x20)\n      swap1\n    tag_81:\n      dup2\n      sload\n      dup2\n      mstore\n      swap1\n      0x01\n      add\n      swap1\n      0x20\n      add\n      dup1\n      dup4\n      gt\n      tag_81\n      jumpi\n      dup3\n      swap1\n      sub\n      0x1f\n      and\n      dup3\n      add\n      swap2\n    tag_79:\n      pop\n      pop\n      pop\n      pop\n      pop\n      swap1\n      dup1\n      0x02\n      add\n      sload\n      swap1\n      pop\n      dup4\n      jump\t// out\n        /* \"contracts/ClassRepVoting.sol\":1652:1760  function getCandidate(uint id) public view returns (Candidate memory) {... */\n    tag_26:\n        /* \"contracts/ClassRepVoting.sol\":1704:1720  Candidate memory */\n      tag_82\n      tag_83\n      jump\t// in\n    tag_82:\n        /* \"contracts/ClassRepVoting.sol\":1739:1749  candidates */\n      0x03\n        /* \"contracts/ClassRepVoting.sol\":1739:1753  candidates[id] */\n      0x00\n        /* \"contracts/ClassRepVoting.sol\":1750:1752  id */\n      dup4\n        /* \"contracts/ClassRepVoting.sol\":1739:1753  candidates[id] */\n      dup2\n      mstore\n      0x20\n      add\n      swap1\n      dup2\n      mstore\n      0x20\n      add\n      0x00\n      keccak256\n        /* \"contracts/ClassRepVoting.sol\":1732:1753  return candidates[id] */\n      mload(0x40)\n      dup1\n      0x60\n      add\n      0x40\n      mstore\n      swap1\n      dup2\n      0x00\n      dup3\n      add\n      sload\n      dup2\n      mstore\n      0x20\n      add\n      0x01\n      dup3\n      add\n      dup1\n      sload\n      tag_85\n      swap1\n      tag_77\n      jump\t// in\n    tag_85:\n      dup1\n      0x1f\n      add\n      0x20\n      dup1\n      swap2\n      div\n      mul\n      0x20\n      add\n      mload(0x40)\n      swap1\n      dup2\n      add\n      0x40\n      mstore\n      dup1\n      swap3\n      swap2\n      swap1\n      dup2\n      dup2\n      mstore\n      0x20\n      add\n      dup3\n      dup1\n      sload\n      tag_86\n      swap1\n      tag_77\n      jump\t// in\n    tag_86:\n      dup1\n      iszero\n      tag_87\n      jumpi\n      dup1\n      0x1f\n      lt\n      tag_88\n      jumpi\n      0x0100\n      dup1\n      dup4\n      sload\n      div\n      mul\n      dup4\n      mstore\n      swap2\n      0x20\n      add\n      swap2\n      jump(tag_87)\n    tag_88:\n      dup3\n      add\n      swap2\n      swap1\n      0x00\n      mstore\n      keccak256(0x00, 0x20)\n      swap1\n    tag_89:\n      dup2\n      sload\n      dup2\n      mstore\n      swap1\n      0x01\n      add\n      swap1\n      0x20\n      add\n      dup1\n      dup4\n      gt\n      tag_89\n      jumpi\n      dup3\n      swap1\n      sub\n      0x1f\n      and\n      dup3\n      add\n      swap2\n    tag_87:\n      pop\n      pop\n      pop\n      pop\n      pop\n      dup2\n      mstore\n      0x20\n      add\n      0x02\n      dup3\n      add\n      sload\n      dup2\n      mstore\n      pop\n      pop\n      swap1\n      pop\n        /* \"contracts/ClassRepVoting.sol\":1652:1760  function getCandidate(uint id) public view returns (Candidate memory) {... */\n      swap2\n      swap1\n      pop\n      jump\t// out\n        /* \"contracts/ClassRepVoting.sol\":987:1193  function registerVoter(address voter) public onlyAdmin {... */\n    tag_32:\n        /* \"contracts/ClassRepVoting.sol\":632:637  admin */\n      0x00\n      dup1\n      sload\n      swap1\n      0x0100\n      exp\n      swap1\n      div\n      0xffffffffffffffffffffffffffffffffffffffff\n      and\n        /* \"contracts/ClassRepVoting.sol\":618:637  msg.sender == admin */\n      0xffffffffffffffffffffffffffffffffffffffff\n      and\n        /* \"contracts/ClassRepVoting.sol\":618:628  msg.sender */\n      caller\n        /* \"contracts/ClassRepVoting.sol\":618:637  msg.sender == admin */\n      0xffffffffffffffffffffffffffffffffffffffff\n      and\n      eq\n        /* \"contracts/ClassRepVoting.sol\":610:676  require(msg.sender == admin, \"Only admin can perform this action\") */\n      tag_91\n      jumpi\n      mload(0x40)\n      0x08c379a000000000000000000000000000000000000000000000000000000000\n      dup2\n      mstore\n      0x04\n      add\n      tag_92\n      swap1\n      tag_93\n      jump\t// in\n    tag_92:\n      mload(0x40)\n      dup1\n      swap2\n      sub\n      swap1\n      revert\n    tag_91:\n        /* \"contracts/ClassRepVoting.sol\":1061:1067  voters */\n      0x04\n        /* \"contracts/ClassRepVoting.sol\":1061:1074  voters[voter] */\n      0x00\n        /* \"contracts/ClassRepVoting.sol\":1068:1073  voter */\n      dup3\n        /* \"contracts/ClassRepVoting.sol\":1061:1074  voters[voter] */\n      0xffffffffffffffffffffffffffffffffffffffff\n      and\n      0xffffffffffffffffffffffffffffffffffffffff\n      and\n      dup2\n      mstore\n      0x20\n      add\n      swap1\n      dup2\n      mstore\n      0x20\n      add\n      0x00\n      keccak256\n        /* \"contracts/ClassRepVoting.sol\":1061:1085  voters[voter].registered */\n      0x00\n      add\n      0x00\n      swap1\n      sload\n      swap1\n      0x0100\n      exp\n      swap1\n      div\n      0xff\n      and\n        /* \"contracts/ClassRepVoting.sol\":1060:1085  !voters[voter].registered */\n      iszero\n        /* \"contracts/ClassRepVoting.sol\":1052:1117  require(!voters[voter].registered, \"Voter is already registered\") */\n      tag_95\n      jumpi\n      mload(0x40)\n      0x08c379a000000000000000000000000000000000000000000000000000000000\n      dup2\n      mstore\n      0x04\n      add\n      tag_96\n      swap1\n      tag_97\n      jump\t// in\n    tag_96:\n      mload(0x40)\n      dup1\n      swap2\n      sub\n      swap1\n      revert\n    tag_95:\n        /* \"contracts/ClassRepVoting.sol\":1143:1164  Voter(true, false, 0) */\n      mload(0x40)\n      dup1\n      0x60\n      add\n      0x40\n      mstore\n      dup1\n        /* \"contracts/ClassRepVoting.sol\":1149:1153  true */\n      0x01\n        /* \"contracts/ClassRepVoting.sol\":1143:1164  Voter(true, false, 0) */\n      iszero\n      iszero\n      dup2\n      mstore\n      0x20\n      add\n        /* \"contracts/ClassRepVoting.sol\":1155:1160  false */\n      0x00\n        /* \"contracts/ClassRepVoting.sol\":1143:1164  Voter(true, false, 0) */\n      iszero\n      iszero\n      dup2\n      mstore\n      0x20\n      add\n        /* \"contracts/ClassRepVoting.sol\":1162:1163  0 */\n      0x00\n        /* \"contracts/ClassRepVoting.sol\":1143:1164  Voter(true, false, 0) */\n      dup2\n      mstore\n      pop\n        /* \"contracts/ClassRepVoting.sol\":1127:1133  voters */\n      0x04\n        /* \"contracts/ClassRepVoting.sol\":1127:1140  voters[voter] */\n      0x00\n        /* \"contracts/ClassRepVoting.sol\":1134:1139  voter */\n      dup4\n        /* \"contracts/ClassRepVoting.sol\":1127:1140  voters[voter] */\n      0xffffffffffffffffffffffffffffffffffffffff\n      and\n      0xffffffffffffffffffffffffffffffffffffffff\n      and\n      dup2\n      mstore\n      0x20\n      add\n      swap1\n      dup2\n      mstore\n      0x20\n      add\n      0x00\n      keccak256\n        /* \"contracts/ClassRepVoting.sol\":1127:1164  voters[voter] = Voter(true, false, 0) */\n      0x00\n      dup3\n      add\n      mload\n      dup2\n      0x00\n      add\n      exp(0x0100, 0x00)\n      dup2\n      sload\n      dup2\n      0xff\n      mul\n      not\n      and\n      swap1\n      dup4\n      iszero\n      iszero\n      mul\n      or\n      swap1\n      sstore\n      pop\n      0x20\n      dup3\n      add\n      mload\n      dup2\n      0x00\n      add\n      exp(0x0100, 0x01)\n      dup2\n      sload\n      dup2\n      0xff\n      mul\n      not\n      and\n      swap1\n      dup4\n      iszero\n      iszero\n      mul\n      or\n      swap1\n      sstore\n      pop\n      0x40\n      dup3\n      add\n      mload\n      dup2\n      0x01\n      add\n      sstore\n      swap1\n      pop\n      pop\n        /* \"contracts/ClassRepVoting.sol\":1174:1184  voterCount */\n      0x02\n      0x00\n        /* \"contracts/ClassRepVoting.sol\":1174:1186  voterCount++ */\n      dup2\n      sload\n      dup1\n      swap3\n      swap2\n      swap1\n      tag_98\n      swap1\n      tag_73\n      jump\t// in\n    tag_98:\n      swap2\n      swap1\n      pop\n      sstore\n      pop\n        /* \"contracts/ClassRepVoting.sol\":987:1193  function registerVoter(address voter) public onlyAdmin {... */\n      pop\n      jump\t// out\n        /* \"contracts/ClassRepVoting.sol\":343:369  uint public voterCount = 0 */\n    tag_34:\n      sload(0x02)\n      dup2\n      jump\t// out\n        /* \"contracts/ClassRepVoting.sol\":1877:2146  function getResults() public view returns (Candidate[] memory) {... */\n    tag_38:\n        /* \"contracts/ClassRepVoting.sol\":1920:1938  Candidate[] memory */\n      0x60\n        /* \"contracts/ClassRepVoting.sol\":1950:1976  Candidate[] memory results */\n      0x00\n        /* \"contracts/ClassRepVoting.sol\":1995:2009  candidateCount */\n      sload(0x01)\n        /* \"contracts/ClassRepVoting.sol\":1979:2010  new Candidate[](candidateCount) */\n      0xffffffffffffffff\n      dup2\n      gt\n      iszero\n      tag_100\n      jumpi\n      tag_101\n      tag_102\n      jump\t// in\n    tag_101:\n    tag_100:\n      mload(0x40)\n      swap1\n      dup1\n      dup3\n      mstore\n      dup1\n      0x20\n      mul\n      0x20\n      add\n      dup3\n      add\n      0x40\n      mstore\n      dup1\n      iszero\n      tag_103\n      jumpi\n      dup2\n      0x20\n      add\n    tag_104:\n      tag_105\n      tag_83\n      jump\t// in\n    tag_105:\n      dup2\n      mstore\n      0x20\n      add\n      swap1\n      0x01\n      swap1\n      sub\n      swap1\n      dup2\n      tag_104\n      jumpi\n      swap1\n      pop\n    tag_103:\n      pop\n        /* \"contracts/ClassRepVoting.sol\":1950:2010  Candidate[] memory results = new Candidate[](candidateCount) */\n      swap1\n      pop\n        /* \"contracts/ClassRepVoting.sol\":2025:2031  uint i */\n      0x00\n        /* \"contracts/ClassRepVoting.sol\":2034:2035  1 */\n      0x01\n        /* \"contracts/ClassRepVoting.sol\":2025:2035  uint i = 1 */\n      swap1\n      pop\n        /* \"contracts/ClassRepVoting.sol\":2020:2116  for (uint i = 1; i <= candidateCount; i++) {... */\n    tag_106:\n        /* \"contracts/ClassRepVoting.sol\":2042:2056  candidateCount */\n      sload(0x01)\n        /* \"contracts/ClassRepVoting.sol\":2037:2038  i */\n      dup2\n        /* \"contracts/ClassRepVoting.sol\":2037:2056  i <= candidateCount */\n      gt\n        /* \"contracts/ClassRepVoting.sol\":2020:2116  for (uint i = 1; i <= candidateCount; i++) {... */\n      tag_107\n      jumpi\n        /* \"contracts/ClassRepVoting.sol\":2092:2102  candidates */\n      0x03\n        /* \"contracts/ClassRepVoting.sol\":2092:2105  candidates[i] */\n      0x00\n        /* \"contracts/ClassRepVoting.sol\":2103:2104  i */\n      dup3\n        /* \"contracts/ClassRepVoting.sol\":2092:2105  candidates[i] */\n      dup2\n      mstore\n      0x20\n      add\n      swap1\n      dup2\n      mstore\n      0x20\n      add\n      0x00\n      keccak256\n        /* \"contracts/ClassRepVoting.sol\":2077:2105  results[i-1] = candidates[i] */\n      mload(0x40)\n      dup1\n      0x60\n      add\n      0x40\n      mstore\n      swap1\n      dup2\n      0x00\n      dup3\n      add\n      sload\n      dup2\n      mstore\n      0x20\n      add\n      0x01\n      dup3\n      add\n      dup1\n      sload\n      tag_109\n      swap1\n      tag_77\n      jump\t// in\n    tag_109:\n      dup1\n      0x1f\n      add\n      0x20\n      dup1\n      swap2\n      div\n      mul\n      0x20\n      add\n      mload(0x40)\n      swap1\n      dup2\n      add\n      0x40\n      mstore\n      dup1\n      swap3\n      swap2\n      swap1\n      dup2\n      dup2\n      mstore\n      0x20\n      add\n      dup3\n      dup1\n      sload\n      tag_110\n      swap1\n      tag_77\n      jump\t// in\n    tag_110:\n      dup1\n      iszero\n      tag_111\n      jumpi\n      dup1\n      0x1f\n      lt\n      tag_112\n      jumpi\n      0x0100\n      dup1\n      dup4\n      sload\n      div\n      mul\n      dup4\n      mstore\n      swap2\n      0x20\n      add\n      swap2\n      jump(tag_111)\n    tag_112:\n      dup3\n      add\n      swap2\n      swap1\n      0x00\n      mstore\n      keccak256(0x00, 0x20)\n      swap1\n    tag_113:\n      dup2\n      sload\n      dup2\n      mstore\n      swap1\n      0x01\n      add\n      swap1\n      0x20\n      add\n      dup1\n      dup4\n      gt\n      tag_113\n      jumpi\n      dup3\n      swap1\n      sub\n      0x1f\n      and\n      dup3\n      add\n      swap2\n    tag_111:\n      pop\n      pop\n      pop\n      pop\n      pop\n      dup2\n      mstore\n      0x20\n      add\n      0x02\n      dup3\n      add\n      sload\n      dup2\n      mstore\n      pop\n      pop\n        /* \"contracts/ClassRepVoting.sol\":2077:2084  results */\n      dup3\n        /* \"contracts/ClassRepVoting.sol\":2087:2088  1 */\n      0x01\n        /* \"contracts/ClassRepVoting.sol\":2085:2086  i */\n      dup4\n        /* \"contracts/ClassRepVoting.sol\":2085:2088  i-1 */\n      tag_114\n      swap2\n      swap1\n      tag_115\n      jump\t// in\n    tag_114:\n        /* \"contracts/ClassRepVoting.sol\":2077:2089  results[i-1] */\n      dup2\n      mload\n      dup2\n      lt\n      tag_116\n      jumpi\n      tag_117\n      tag_118\n      jump\t// in\n    tag_117:\n    tag_116:\n      0x20\n      mul\n      0x20\n      add\n      add\n        /* \"contracts/ClassRepVoting.sol\":2077:2105  results[i-1] = candidates[i] */\n      dup2\n      swap1\n      mstore\n      pop\n        /* \"contracts/ClassRepVoting.sol\":2058:2061  i++ */\n      dup1\n      dup1\n      tag_119\n      swap1\n      tag_73\n      jump\t// in\n    tag_119:\n      swap2\n      pop\n      pop\n        /* \"contracts/ClassRepVoting.sol\":2020:2116  for (uint i = 1; i <= candidateCount; i++) {... */\n      jump(tag_106)\n    tag_107:\n      pop\n        /* \"contracts/ClassRepVoting.sol\":2132:2139  results */\n      dup1\n        /* \"contracts/ClassRepVoting.sol\":2125:2139  return results */\n      swap2\n      pop\n      pop\n        /* \"contracts/ClassRepVoting.sol\":1877:2146  function getResults() public view returns (Candidate[] memory) {... */\n      swap1\n      jump\t// out\n        /* \"contracts/ClassRepVoting.sol\":755:981  function registerCandidate(string memory name) public onlyAdmin {... */\n    tag_44:\n        /* \"contracts/ClassRepVoting.sol\":632:637  admin */\n      0x00\n      dup1\n      sload\n      swap1\n      0x0100\n      exp\n      swap1\n      div\n      0xffffffffffffffffffffffffffffffffffffffff\n      and\n        /* \"contracts/ClassRepVoting.sol\":618:637  msg.sender == admin */\n      0xffffffffffffffffffffffffffffffffffffffff\n      and\n        /* \"contracts/ClassRepVoting.sol\":618:628  msg.sender */\n      caller\n        /* \"contracts/ClassRepVoting.sol\":618:637  msg.sender == admin */\n      0xffffffffffffffffffffffffffffffffffffffff\n      and\n      eq\n        /* \"contracts/ClassRepVoting.sol\":610:676  require(msg.sender == admin, \"Only admin can perform this action\") */\n      tag_121\n      jumpi\n      mload(0x40)\n      0x08c379a000000000000000000000000000000000000000000000000000000000\n      dup2\n      mstore\n      0x04\n      add\n      tag_122\n      swap1\n      tag_93\n      jump\t// in\n    tag_122:\n      mload(0x40)\n      dup1\n      swap2\n      sub\n      swap1\n      revert\n    tag_121:\n        /* \"contracts/ClassRepVoting.sol\":829:843  candidateCount */\n      0x01\n      0x00\n        /* \"contracts/ClassRepVoting.sol\":829:845  candidateCount++ */\n      dup2\n      sload\n      dup1\n      swap3\n      swap2\n      swap1\n      tag_124\n      swap1\n      tag_73\n      jump\t// in\n    tag_124:\n      swap2\n      swap1\n      pop\n      sstore\n      pop\n        /* \"contracts/ClassRepVoting.sol\":884:918  Candidate(candidateCount, name, 0) */\n      mload(0x40)\n      dup1\n      0x60\n      add\n      0x40\n      mstore\n      dup1\n        /* \"contracts/ClassRepVoting.sol\":894:908  candidateCount */\n      sload(0x01)\n        /* \"contracts/ClassRepVoting.sol\":884:918  Candidate(candidateCount, name, 0) */\n      dup2\n      mstore\n      0x20\n      add\n        /* \"contracts/ClassRepVoting.sol\":910:914  name */\n      dup3\n        /* \"contracts/ClassRepVoting.sol\":884:918  Candidate(candidateCount, name, 0) */\n      dup2\n      mstore\n      0x20\n      add\n        /* \"contracts/ClassRepVoting.sol\":916:917  0 */\n      0x00\n        /* \"contracts/ClassRepVoting.sol\":884:918  Candidate(candidateCount, name, 0) */\n      dup2\n      mstore\n      pop\n        /* \"contracts/ClassRepVoting.sol\":855:865  candidates */\n      0x03\n        /* \"contracts/ClassRepVoting.sol\":855:881  candidates[candidateCount] */\n      0x00\n        /* \"contracts/ClassRepVoting.sol\":866:880  candidateCount */\n      sload(0x01)\n        /* \"contracts/ClassRepVoting.sol\":855:881  candidates[candidateCount] */\n      dup2\n      mstore\n      0x20\n      add\n      swap1\n      dup2\n      mstore\n      0x20\n      add\n      0x00\n      keccak256\n        /* \"contracts/ClassRepVoting.sol\":855:918  candidates[candidateCount] = Candidate(candidateCount, name, 0) */\n      0x00\n      dup3\n      add\n      mload\n      dup2\n      0x00\n      add\n      sstore\n      0x20\n      dup3\n      add\n      mload\n      dup2\n      0x01\n      add\n      swap1\n      dup2\n      tag_125\n      swap2\n      swap1\n      tag_126\n      jump\t// in\n    tag_125:\n      pop\n      0x40\n      dup3\n      add\n      mload\n      dup2\n      0x02\n      add\n      sstore\n      swap1\n      pop\n      pop\n        /* \"contracts/ClassRepVoting.sol\":933:974  CandidateRegistered(candidateCount, name) */\n      0x96b6e1d9af8279de0ae4d01600bcae708bdb292c4a8f8f150aff92f5caf56a42\n        /* \"contracts/ClassRepVoting.sol\":953:967  candidateCount */\n      sload(0x01)\n        /* \"contracts/ClassRepVoting.sol\":969:973  name */\n      dup3\n        /* \"contracts/ClassRepVoting.sol\":933:974  CandidateRegistered(candidateCount, name) */\n      mload(0x40)\n      tag_127\n      swap3\n      swap2\n      swap1\n      tag_128\n      jump\t// in\n    tag_127:\n      mload(0x40)\n      dup1\n      swap2\n      sub\n      swap1\n      log1\n        /* \"contracts/ClassRepVoting.sol\":755:981  function registerCandidate(string memory name) public onlyAdmin {... */\n      pop\n      jump\t// out\n        /* \"contracts/ClassRepVoting.sol\":426:465  mapping(address => Voter) public voters */\n    tag_47:\n      mstore(0x20, 0x04)\n      dup1\n      0x00\n      mstore\n      keccak256(0x00, 0x40)\n      0x00\n      swap2\n      pop\n      swap1\n      pop\n      dup1\n      0x00\n      add\n      0x00\n      swap1\n      sload\n      swap1\n      0x0100\n      exp\n      swap1\n      div\n      0xff\n      and\n      swap1\n      dup1\n      0x00\n      add\n      0x01\n      swap1\n      sload\n      swap1\n      0x0100\n      exp\n      swap1\n      div\n      0xff\n      and\n      swap1\n      dup1\n      0x01\n      add\n      sload\n      swap1\n      pop\n      dup4\n      jump\t// out\n        /* \"contracts/ClassRepVoting.sol\":307:337  uint public candidateCount = 0 */\n    tag_51:\n      sload(0x01)\n      dup2\n      jump\t// out\n        /* \"contracts/ClassRepVoting.sol\":1766:1871  function getVoter(address voter) public view returns (Voter memory) {... */\n    tag_55:\n        /* \"contracts/ClassRepVoting.sol\":1820:1832  Voter memory */\n      tag_129\n      tag_130\n      jump\t// in\n    tag_129:\n        /* \"contracts/ClassRepVoting.sol\":1851:1857  voters */\n      0x04\n        /* \"contracts/ClassRepVoting.sol\":1851:1864  voters[voter] */\n      0x00\n        /* \"contracts/ClassRepVoting.sol\":1858:1863  voter */\n      dup4\n        /* \"contracts/ClassRepVoting.sol\":1851:1864  voters[voter] */\n      0xffffffffffffffffffffffffffffffffffffffff\n      and\n      0xffffffffffffffffffffffffffffffffffffffff\n      and\n      dup2\n      mstore\n      0x20\n      add\n      swap1\n      dup2\n      mstore\n      0x20\n      add\n      0x00\n      keccak256\n        /* \"contracts/ClassRepVoting.sol\":1844:1864  return voters[voter] */\n      mload(0x40)\n      dup1\n      0x60\n      add\n      0x40\n      mstore\n      swap1\n      dup2\n      0x00\n      dup3\n      add\n      0x00\n      swap1\n      sload\n      swap1\n      0x0100\n      exp\n      swap1\n      div\n      0xff\n      and\n      iszero\n      iszero\n      iszero\n      iszero\n      dup2\n      mstore\n      0x20\n      add\n      0x00\n      dup3\n      add\n      0x01\n      swap1\n      sload\n      swap1\n      0x0100\n      exp\n      swap1\n      div\n      0xff\n      and\n      iszero\n      iszero\n      iszero\n      iszero\n      dup2\n      mstore\n      0x20\n      add\n      0x01\n      dup3\n      add\n      sload\n      dup2\n      mstore\n      pop\n      pop\n      swap1\n      pop\n        /* \"contracts/ClassRepVoting.sol\":1766:1871  function getVoter(address voter) public view returns (Voter memory) {... */\n      swap2\n      swap1\n      pop\n      jump\t// out\n        /* \"contracts/ClassRepVoting.sol\":281:301  address public admin */\n    tag_59:\n      0x00\n      dup1\n      sload\n      swap1\n      0x0100\n      exp\n      swap1\n      div\n      0xffffffffffffffffffffffffffffffffffffffff\n      and\n      dup2\n      jump\t// out\n    tag_83:\n      mload(0x40)\n      dup1\n      0x60\n      add\n      0x40\n      mstore\n      dup1\n      0x00\n      dup2\n      mstore\n      0x20\n      add\n      0x60\n      dup2\n      mstore\n      0x20\n      add\n      0x00\n      dup2\n      mstore\n      pop\n      swap1\n      jump\t// out\n    tag_130:\n      mload(0x40)\n      dup1\n      0x60\n      add\n      0x40\n      mstore\n      dup1\n      iszero(iszero(0x00))\n      dup2\n      mstore\n      0x20\n      add\n      iszero(iszero(0x00))\n      dup2\n      mstore\n      0x20\n      add\n      0x00\n      dup2\n      mstore\n      pop\n      swap1\n      jump\t// out\n        /* \"#utility.yul\":7:82   */\n    tag_132:\n        /* \"#utility.yul\":40:46   */\n      0x00\n        /* \"#utility.yul\":73:75   */\n      0x40\n        /* \"#utility.yul\":67:76   */\n      mload\n        /* \"#utility.yul\":57:76   */\n      swap1\n      pop\n        /* \"#utility.yul\":7:82   */\n      swap1\n      jump\t// out\n        /* \"#utility.yul\":88:205   */\n    tag_133:\n        /* \"#utility.yul\":197:198   */\n      0x00\n        /* \"#utility.yul\":194:195   */\n      dup1\n        /* \"#utility.yul\":187:199   */\n      revert\n        /* \"#utility.yul\":211:328   */\n    tag_134:\n        /* \"#utility.yul\":320:321   */\n      0x00\n        /* \"#utility.yul\":317:318   */\n      dup1\n        /* \"#utility.yul\":310:322   */\n      revert\n        /* \"#utility.yul\":334:411   */\n    tag_135:\n        /* \"#utility.yul\":371:378   */\n      0x00\n        /* \"#utility.yul\":400:405   */\n      dup2\n        /* \"#utility.yul\":389:405   */\n      swap1\n      pop\n        /* \"#utility.yul\":334:411   */\n      swap2\n      swap1\n      pop\n      jump\t// out\n        /* \"#utility.yul\":417:539   */\n    tag_136:\n        /* \"#utility.yul\":490:514   */\n      tag_205\n        /* \"#utility.yul\":508:513   */\n      dup2\n        /* \"#utility.yul\":490:514   */\n      tag_135\n      jump\t// in\n    tag_205:\n        /* \"#utility.yul\":483:488   */\n      dup2\n        /* \"#utility.yul\":480:515   */\n      eq\n        /* \"#utility.yul\":470:533   */\n      tag_206\n      jumpi\n        /* \"#utility.yul\":529:530   */\n      0x00\n        /* \"#utility.yul\":526:527   */\n      dup1\n        /* \"#utility.yul\":519:531   */\n      revert\n        /* \"#utility.yul\":470:533   */\n    tag_206:\n        /* \"#utility.yul\":417:539   */\n      pop\n      jump\t// out\n        /* \"#utility.yul\":545:684   */\n    tag_137:\n        /* \"#utility.yul\":591:596   */\n      0x00\n        /* \"#utility.yul\":629:635   */\n      dup2\n        /* \"#utility.yul\":616:636   */\n      calldataload\n        /* \"#utility.yul\":607:636   */\n      swap1\n      pop\n        /* \"#utility.yul\":645:678   */\n      tag_208\n        /* \"#utility.yul\":672:677   */\n      dup2\n        /* \"#utility.yul\":645:678   */\n      tag_136\n      jump\t// in\n    tag_208:\n        /* \"#utility.yul\":545:684   */\n      swap3\n      swap2\n      pop\n      pop\n      jump\t// out\n        /* \"#utility.yul\":690:1019   */\n    tag_17:\n        /* \"#utility.yul\":749:755   */\n      0x00\n        /* \"#utility.yul\":798:800   */\n      0x20\n        /* \"#utility.yul\":786:795   */\n      dup3\n        /* \"#utility.yul\":777:784   */\n      dup5\n        /* \"#utility.yul\":773:796   */\n      sub\n        /* \"#utility.yul\":769:801   */\n      slt\n        /* \"#utility.yul\":766:885   */\n      iszero\n      tag_210\n      jumpi\n        /* \"#utility.yul\":804:883   */\n      tag_211\n      tag_133\n      jump\t// in\n    tag_211:\n        /* \"#utility.yul\":766:885   */\n    tag_210:\n        /* \"#utility.yul\":924:925   */\n      0x00\n        /* \"#utility.yul\":949:1002   */\n      tag_212\n        /* \"#utility.yul\":994:1001   */\n      dup5\n        /* \"#utility.yul\":985:991   */\n      dup3\n        /* \"#utility.yul\":974:983   */\n      dup6\n        /* \"#utility.yul\":970:992   */\n      add\n        /* \"#utility.yul\":949:1002   */\n      tag_137\n      jump\t// in\n    tag_212:\n        /* \"#utility.yul\":939:1002   */\n      swap2\n      pop\n        /* \"#utility.yul\":895:1012   */\n      pop\n        /* \"#utility.yul\":690:1019   */\n      swap3\n      swap2\n      pop\n      pop\n      jump\t// out\n        /* \"#utility.yul\":1025:1143   */\n    tag_138:\n        /* \"#utility.yul\":1112:1136   */\n      tag_214\n        /* \"#utility.yul\":1130:1135   */\n      dup2\n        /* \"#utility.yul\":1112:1136   */\n      tag_135\n      jump\t// in\n    tag_214:\n        /* \"#utility.yul\":1107:1110   */\n      dup3\n        /* \"#utility.yul\":1100:1137   */\n      mstore\n        /* \"#utility.yul\":1025:1143   */\n      pop\n      pop\n      jump\t// out\n        /* \"#utility.yul\":1149:1248   */\n    tag_139:\n        /* \"#utility.yul\":1201:1207   */\n      0x00\n        /* \"#utility.yul\":1235:1240   */\n      dup2\n        /* \"#utility.yul\":1229:1241   */\n      mload\n        /* \"#utility.yul\":1219:1241   */\n      swap1\n      pop\n        /* \"#utility.yul\":1149:1248   */\n      swap2\n      swap1\n      pop\n      jump\t// out\n        /* \"#utility.yul\":1254:1423   */\n    tag_140:\n        /* \"#utility.yul\":1338:1349   */\n      0x00\n        /* \"#utility.yul\":1372:1378   */\n      dup3\n        /* \"#utility.yul\":1367:1370   */\n      dup3\n        /* \"#utility.yul\":1360:1379   */\n      mstore\n        /* \"#utility.yul\":1412:1416   */\n      0x20\n        /* \"#utility.yul\":1407:1410   */\n      dup3\n        /* \"#utility.yul\":1403:1417   */\n      add\n        /* \"#utility.yul\":1388:1417   */\n      swap1\n      pop\n        /* \"#utility.yul\":1254:1423   */\n      swap3\n      swap2\n      pop\n      pop\n      jump\t// out\n        /* \"#utility.yul\":1429:1568   */\n    tag_141:\n        /* \"#utility.yul\":1518:1524   */\n      dup3\n        /* \"#utility.yul\":1513:1516   */\n      dup2\n        /* \"#utility.yul\":1508:1511   */\n      dup4\n        /* \"#utility.yul\":1502:1525   */\n      mcopy\n        /* \"#utility.yul\":1559:1560   */\n      0x00\n        /* \"#utility.yul\":1550:1556   */\n      dup4\n        /* \"#utility.yul\":1545:1548   */\n      dup4\n        /* \"#utility.yul\":1541:1557   */\n      add\n        /* \"#utility.yul\":1534:1561   */\n      mstore\n        /* \"#utility.yul\":1429:1568   */\n      pop\n      pop\n      pop\n      jump\t// out\n        /* \"#utility.yul\":1574:1676   */\n    tag_142:\n        /* \"#utility.yul\":1615:1621   */\n      0x00\n        /* \"#utility.yul\":1666:1668   */\n      0x1f\n        /* \"#utility.yul\":1662:1669   */\n      not\n        /* \"#utility.yul\":1657:1659   */\n      0x1f\n        /* \"#utility.yul\":1650:1655   */\n      dup4\n        /* \"#utility.yul\":1646:1660   */\n      add\n        /* \"#utility.yul\":1642:1670   */\n      and\n        /* \"#utility.yul\":1632:1670   */\n      swap1\n      pop\n        /* \"#utility.yul\":1574:1676   */\n      swap2\n      swap1\n      pop\n      jump\t// out\n        /* \"#utility.yul\":1682:2059   */\n    tag_143:\n        /* \"#utility.yul\":1770:1773   */\n      0x00\n        /* \"#utility.yul\":1798:1837   */\n      tag_220\n        /* \"#utility.yul\":1831:1836   */\n      dup3\n        /* \"#utility.yul\":1798:1837   */\n      tag_139\n      jump\t// in\n    tag_220:\n        /* \"#utility.yul\":1853:1924   */\n      tag_221\n        /* \"#utility.yul\":1917:1923   */\n      dup2\n        /* \"#utility.yul\":1912:1915   */\n      dup6\n        /* \"#utility.yul\":1853:1924   */\n      tag_140\n      jump\t// in\n    tag_221:\n        /* \"#utility.yul\":1846:1924   */\n      swap4\n      pop\n        /* \"#utility.yul\":1933:1998   */\n      tag_222\n        /* \"#utility.yul\":1991:1997   */\n      dup2\n        /* \"#utility.yul\":1986:1989   */\n      dup6\n        /* \"#utility.yul\":1979:1983   */\n      0x20\n        /* \"#utility.yul\":1972:1977   */\n      dup7\n        /* \"#utility.yul\":1968:1984   */\n      add\n        /* \"#utility.yul\":1933:1998   */\n      tag_141\n      jump\t// in\n    tag_222:\n        /* \"#utility.yul\":2023:2052   */\n      tag_223\n        /* \"#utility.yul\":2045:2051   */\n      dup2\n        /* \"#utility.yul\":2023:2052   */\n      tag_142\n      jump\t// in\n    tag_223:\n        /* \"#utility.yul\":2018:2021   */\n      dup5\n        /* \"#utility.yul\":2014:2053   */\n      add\n        /* \"#utility.yul\":2007:2053   */\n      swap2\n      pop\n        /* \"#utility.yul\":1774:2059   */\n      pop\n        /* \"#utility.yul\":1682:2059   */\n      swap3\n      swap2\n      pop\n      pop\n      jump\t// out\n        /* \"#utility.yul\":2065:2598   */\n    tag_23:\n        /* \"#utility.yul\":2234:2238   */\n      0x00\n        /* \"#utility.yul\":2272:2274   */\n      0x60\n        /* \"#utility.yul\":2261:2270   */\n      dup3\n        /* \"#utility.yul\":2257:2275   */\n      add\n        /* \"#utility.yul\":2249:2275   */\n      swap1\n      pop\n        /* \"#utility.yul\":2285:2356   */\n      tag_225\n        /* \"#utility.yul\":2353:2354   */\n      0x00\n        /* \"#utility.yul\":2342:2351   */\n      dup4\n        /* \"#utility.yul\":2338:2355   */\n      add\n        /* \"#utility.yul\":2329:2335   */\n      dup7\n        /* \"#utility.yul\":2285:2356   */\n      tag_138\n      jump\t// in\n    tag_225:\n        /* \"#utility.yul\":2403:2412   */\n      dup2\n        /* \"#utility.yul\":2397:2401   */\n      dup2\n        /* \"#utility.yul\":2393:2413   */\n      sub\n        /* \"#utility.yul\":2388:2390   */\n      0x20\n        /* \"#utility.yul\":2377:2386   */\n      dup4\n        /* \"#utility.yul\":2373:2391   */\n      add\n        /* \"#utility.yul\":2366:2414   */\n      mstore\n        /* \"#utility.yul\":2431:2509   */\n      tag_226\n        /* \"#utility.yul\":2504:2508   */\n      dup2\n        /* \"#utility.yul\":2495:2501   */\n      dup6\n        /* \"#utility.yul\":2431:2509   */\n      tag_143\n      jump\t// in\n    tag_226:\n        /* \"#utility.yul\":2423:2509   */\n      swap1\n      pop\n        /* \"#utility.yul\":2519:2591   */\n      tag_227\n        /* \"#utility.yul\":2587:2589   */\n      0x40\n        /* \"#utility.yul\":2576:2585   */\n      dup4\n        /* \"#utility.yul\":2572:2590   */\n      add\n        /* \"#utility.yul\":2563:2569   */\n      dup5\n        /* \"#utility.yul\":2519:2591   */\n      tag_138\n      jump\t// in\n    tag_227:\n        /* \"#utility.yul\":2065:2598   */\n      swap5\n      swap4\n      pop\n      pop\n      pop\n      pop\n      jump\t// out\n        /* \"#utility.yul\":2604:2712   */\n    tag_144:\n        /* \"#utility.yul\":2681:2705   */\n      tag_229\n        /* \"#utility.yul\":2699:2704   */\n      dup2\n        /* \"#utility.yul\":2681:2705   */\n      tag_135\n      jump\t// in\n    tag_229:\n        /* \"#utility.yul\":2676:2679   */\n      dup3\n        /* \"#utility.yul\":2669:2706   */\n      mstore\n        /* \"#utility.yul\":2604:2712   */\n      pop\n      pop\n      jump\t// out\n        /* \"#utility.yul\":2718:2877   */\n    tag_145:\n        /* \"#utility.yul\":2792:2803   */\n      0x00\n        /* \"#utility.yul\":2826:2832   */\n      dup3\n        /* \"#utility.yul\":2821:2824   */\n      dup3\n        /* \"#utility.yul\":2814:2833   */\n      mstore\n        /* \"#utility.yul\":2866:2870   */\n      0x20\n        /* \"#utility.yul\":2861:2864   */\n      dup3\n        /* \"#utility.yul\":2857:2871   */\n      add\n        /* \"#utility.yul\":2842:2871   */\n      swap1\n      pop\n        /* \"#utility.yul\":2718:2877   */\n      swap3\n      swap2\n      pop\n      pop\n      jump\t// out\n        /* \"#utility.yul\":2883:3240   */\n    tag_146:\n        /* \"#utility.yul\":2961:2964   */\n      0x00\n        /* \"#utility.yul\":2989:3028   */\n      tag_232\n        /* \"#utility.yul\":3022:3027   */\n      dup3\n        /* \"#utility.yul\":2989:3028   */\n      tag_139\n      jump\t// in\n    tag_232:\n        /* \"#utility.yul\":3044:3105   */\n      tag_233\n        /* \"#utility.yul\":3098:3104   */\n      dup2\n        /* \"#utility.yul\":3093:3096   */\n      dup6\n        /* \"#utility.yul\":3044:3105   */\n      tag_145\n      jump\t// in\n    tag_233:\n        /* \"#utility.yul\":3037:3105   */\n      swap4\n      pop\n        /* \"#utility.yul\":3114:3179   */\n      tag_234\n        /* \"#utility.yul\":3172:3178   */\n      dup2\n        /* \"#utility.yul\":3167:3170   */\n      dup6\n        /* \"#utility.yul\":3160:3164   */\n      0x20\n        /* \"#utility.yul\":3153:3158   */\n      dup7\n        /* \"#utility.yul\":3149:3165   */\n      add\n        /* \"#utility.yul\":3114:3179   */\n      tag_141\n      jump\t// in\n    tag_234:\n        /* \"#utility.yul\":3204:3233   */\n      tag_235\n        /* \"#utility.yul\":3226:3232   */\n      dup2\n        /* \"#utility.yul\":3204:3233   */\n      tag_142\n      jump\t// in\n    tag_235:\n        /* \"#utility.yul\":3199:3202   */\n      dup5\n        /* \"#utility.yul\":3195:3234   */\n      add\n        /* \"#utility.yul\":3188:3234   */\n      swap2\n      pop\n        /* \"#utility.yul\":2965:3240   */\n      pop\n        /* \"#utility.yul\":2883:3240   */\n      swap3\n      swap2\n      pop\n      pop\n      jump\t// out\n        /* \"#utility.yul\":3342:4123   */\n    tag_147:\n        /* \"#utility.yul\":3459:3462   */\n      0x00\n        /* \"#utility.yul\":3495:3499   */\n      0x60\n        /* \"#utility.yul\":3490:3493   */\n      dup4\n        /* \"#utility.yul\":3486:3500   */\n      add\n        /* \"#utility.yul\":3580:3584   */\n      0x00\n        /* \"#utility.yul\":3573:3578   */\n      dup4\n        /* \"#utility.yul\":3569:3585   */\n      add\n        /* \"#utility.yul\":3563:3586   */\n      mload\n        /* \"#utility.yul\":3599:3662   */\n      tag_237\n        /* \"#utility.yul\":3656:3660   */\n      0x00\n        /* \"#utility.yul\":3651:3654   */\n      dup7\n        /* \"#utility.yul\":3647:3661   */\n      add\n        /* \"#utility.yul\":3633:3645   */\n      dup3\n        /* \"#utility.yul\":3599:3662   */\n      tag_144\n      jump\t// in\n    tag_237:\n        /* \"#utility.yul\":3510:3672   */\n      pop\n        /* \"#utility.yul\":3754:3758   */\n      0x20\n        /* \"#utility.yul\":3747:3752   */\n      dup4\n        /* \"#utility.yul\":3743:3759   */\n      add\n        /* \"#utility.yul\":3737:3760   */\n      mload\n        /* \"#utility.yul\":3807:3810   */\n      dup5\n        /* \"#utility.yul\":3801:3805   */\n      dup3\n        /* \"#utility.yul\":3797:3811   */\n      sub\n        /* \"#utility.yul\":3790:3794   */\n      0x20\n        /* \"#utility.yul\":3785:3788   */\n      dup7\n        /* \"#utility.yul\":3781:3795   */\n      add\n        /* \"#utility.yul\":3774:3812   */\n      mstore\n        /* \"#utility.yul\":3833:3906   */\n      tag_238\n        /* \"#utility.yul\":3901:3905   */\n      dup3\n        /* \"#utility.yul\":3887:3899   */\n      dup3\n        /* \"#utility.yul\":3833:3906   */\n      tag_146\n      jump\t// in\n    tag_238:\n        /* \"#utility.yul\":3825:3906   */\n      swap2\n      pop\n        /* \"#utility.yul\":3682:3917   */\n      pop\n        /* \"#utility.yul\":4004:4008   */\n      0x40\n        /* \"#utility.yul\":3997:4002   */\n      dup4\n        /* \"#utility.yul\":3993:4009   */\n      add\n        /* \"#utility.yul\":3987:4010   */\n      mload\n        /* \"#utility.yul\":4023:4086   */\n      tag_239\n        /* \"#utility.yul\":4080:4084   */\n      0x40\n        /* \"#utility.yul\":4075:4078   */\n      dup7\n        /* \"#utility.yul\":4071:4085   */\n      add\n        /* \"#utility.yul\":4057:4069   */\n      dup3\n        /* \"#utility.yul\":4023:4086   */\n      tag_144\n      jump\t// in\n    tag_239:\n        /* \"#utility.yul\":3927:4096   */\n      pop\n        /* \"#utility.yul\":4113:4117   */\n      dup1\n        /* \"#utility.yul\":4106:4117   */\n      swap2\n      pop\n        /* \"#utility.yul\":3464:4123   */\n      pop\n        /* \"#utility.yul\":3342:4123   */\n      swap3\n      swap2\n      pop\n      pop\n      jump\t// out\n        /* \"#utility.yul\":4129:4498   */\n    tag_28:\n        /* \"#utility.yul\":4270:4274   */\n      0x00\n        /* \"#utility.yul\":4308:4310   */\n      0x20\n        /* \"#utility.yul\":4297:4306   */\n      dup3\n        /* \"#utility.yul\":4293:4311   */\n      add\n        /* \"#utility.yul\":4285:4311   */\n      swap1\n      pop\n        /* \"#utility.yul\":4357:4366   */\n      dup2\n        /* \"#utility.yul\":4351:4355   */\n      dup2\n        /* \"#utility.yul\":4347:4367   */\n      sub\n        /* \"#utility.yul\":4343:4344   */\n      0x00\n        /* \"#utility.yul\":4332:4341   */\n      dup4\n        /* \"#utility.yul\":4328:4345   */\n      add\n        /* \"#utility.yul\":4321:4368   */\n      mstore\n        /* \"#utility.yul\":4385:4491   */\n      tag_241\n        /* \"#utility.yul\":4486:4490   */\n      dup2\n        /* \"#utility.yul\":4477:4483   */\n      dup5\n        /* \"#utility.yul\":4385:4491   */\n      tag_147\n      jump\t// in\n    tag_241:\n        /* \"#utility.yul\":4377:4491   */\n      swap1\n      pop\n        /* \"#utility.yul\":4129:4498   */\n      swap3\n      swap2\n      pop\n      pop\n      jump\t// out\n        /* \"#utility.yul\":4504:4630   */\n    tag_148:\n        /* \"#utility.yul\":4541:4548   */\n      0x00\n        /* \"#utility.yul\":4581:4623   */\n      0xffffffffffffffffffffffffffffffffffffffff\n        /* \"#utility.yul\":4574:4579   */\n      dup3\n        /* \"#utility.yul\":4570:4624   */\n      and\n        /* \"#utility.yul\":4559:4624   */\n      swap1\n      pop\n        /* \"#utility.yul\":4504:4630   */\n      swap2\n      swap1\n      pop\n      jump\t// out\n        /* \"#utility.yul\":4636:4732   */\n    tag_149:\n        /* \"#utility.yul\":4673:4680   */\n      0x00\n        /* \"#utility.yul\":4702:4726   */\n      tag_244\n        /* \"#utility.yul\":4720:4725   */\n      dup3\n        /* \"#utility.yul\":4702:4726   */\n      tag_148\n      jump\t// in\n    tag_244:\n        /* \"#utility.yul\":4691:4726   */\n      swap1\n      pop\n        /* \"#utility.yul\":4636:4732   */\n      swap2\n      swap1\n      pop\n      jump\t// out\n        /* \"#utility.yul\":4738:4860   */\n    tag_150:\n        /* \"#utility.yul\":4811:4835   */\n      tag_246\n        /* \"#utility.yul\":4829:4834   */\n      dup2\n        /* \"#utility.yul\":4811:4835   */\n      tag_149\n      jump\t// in\n    tag_246:\n        /* \"#utility.yul\":4804:4809   */\n      dup2\n        /* \"#utility.yul\":4801:4836   */\n      eq\n        /* \"#utility.yul\":4791:4854   */\n      tag_247\n      jumpi\n        /* \"#utility.yul\":4850:4851   */\n      0x00\n        /* \"#utility.yul\":4847:4848   */\n      dup1\n        /* \"#utility.yul\":4840:4852   */\n      revert\n        /* \"#utility.yul\":4791:4854   */\n    tag_247:\n        /* \"#utility.yul\":4738:4860   */\n      pop\n      jump\t// out\n        /* \"#utility.yul\":4866:5005   */\n    tag_151:\n        /* \"#utility.yul\":4912:4917   */\n      0x00\n        /* \"#utility.yul\":4950:4956   */\n      dup2\n        /* \"#utility.yul\":4937:4957   */\n      calldataload\n        /* \"#utility.yul\":4928:4957   */\n      swap1\n      pop\n        /* \"#utility.yul\":4966:4999   */\n      tag_249\n        /* \"#utility.yul\":4993:4998   */\n      dup2\n        /* \"#utility.yul\":4966:4999   */\n      tag_150\n      jump\t// in\n    tag_249:\n        /* \"#utility.yul\":4866:5005   */\n      swap3\n      swap2\n      pop\n      pop\n      jump\t// out\n        /* \"#utility.yul\":5011:5340   */\n    tag_31:\n        /* \"#utility.yul\":5070:5076   */\n      0x00\n        /* \"#utility.yul\":5119:5121   */\n      0x20\n        /* \"#utility.yul\":5107:5116   */\n      dup3\n        /* \"#utility.yul\":5098:5105   */\n      dup5\n        /* \"#utility.yul\":5094:5117   */\n      sub\n        /* \"#utility.yul\":5090:5122   */\n      slt\n        /* \"#utility.yul\":5087:5206   */\n      iszero\n      tag_251\n      jumpi\n        /* \"#utility.yul\":5125:5204   */\n      tag_252\n      tag_133\n      jump\t// in\n    tag_252:\n        /* \"#utility.yul\":5087:5206   */\n    tag_251:\n        /* \"#utility.yul\":5245:5246   */\n      0x00\n        /* \"#utility.yul\":5270:5323   */\n      tag_253\n        /* \"#utility.yul\":5315:5322   */\n      dup5\n        /* \"#utility.yul\":5306:5312   */\n      dup3\n        /* \"#utility.yul\":5295:5304   */\n      dup6\n        /* \"#utility.yul\":5291:5313   */\n      add\n        /* \"#utility.yul\":5270:5323   */\n      tag_151\n      jump\t// in\n    tag_253:\n        /* \"#utility.yul\":5260:5323   */\n      swap2\n      pop\n        /* \"#utility.yul\":5216:5333   */\n      pop\n        /* \"#utility.yul\":5011:5340   */\n      swap3\n      swap2\n      pop\n      pop\n      jump\t// out\n        /* \"#utility.yul\":5346:5568   */\n    tag_36:\n        /* \"#utility.yul\":5439:5443   */\n      0x00\n        /* \"#utility.yul\":5477:5479   */\n      0x20\n        /* \"#utility.yul\":5466:5475   */\n      dup3\n        /* \"#utility.yul\":5462:5480   */\n      add\n        /* \"#utility.yul\":5454:5480   */\n      swap1\n      pop\n        /* \"#utility.yul\":5490:5561   */\n      tag_255\n        /* \"#utility.yul\":5558:5559   */\n      0x00\n        /* \"#utility.yul\":5547:5556   */\n      dup4\n        /* \"#utility.yul\":5543:5560   */\n      add\n        /* \"#utility.yul\":5534:5540   */\n      dup5\n        /* \"#utility.yul\":5490:5561   */\n      tag_138\n      jump\t// in\n    tag_255:\n        /* \"#utility.yul\":5346:5568   */\n      swap3\n      swap2\n      pop\n      pop\n      jump\t// out\n        /* \"#utility.yul\":5574:5712   */\n    tag_152:\n        /* \"#utility.yul\":5665:5671   */\n      0x00\n        /* \"#utility.yul\":5699:5704   */\n      dup2\n        /* \"#utility.yul\":5693:5705   */\n      mload\n        /* \"#utility.yul\":5683:5705   */\n      swap1\n      pop\n        /* \"#utility.yul\":5574:5712   */\n      swap2\n      swap1\n      pop\n      jump\t// out\n        /* \"#utility.yul\":5718:5926   */\n    tag_153:\n        /* \"#utility.yul\":5841:5852   */\n      0x00\n        /* \"#utility.yul\":5875:5881   */\n      dup3\n        /* \"#utility.yul\":5870:5873   */\n      dup3\n        /* \"#utility.yul\":5863:5882   */\n      mstore\n        /* \"#utility.yul\":5915:5919   */\n      0x20\n        /* \"#utility.yul\":5910:5913   */\n      dup3\n        /* \"#utility.yul\":5906:5920   */\n      add\n        /* \"#utility.yul\":5891:5920   */\n      swap1\n      pop\n        /* \"#utility.yul\":5718:5926   */\n      swap3\n      swap2\n      pop\n      pop\n      jump\t// out\n        /* \"#utility.yul\":5932:6088   */\n    tag_154:\n        /* \"#utility.yul\":6023:6027   */\n      0x00\n        /* \"#utility.yul\":6046:6049   */\n      dup2\n        /* \"#utility.yul\":6038:6049   */\n      swap1\n      pop\n        /* \"#utility.yul\":6076:6080   */\n      0x20\n        /* \"#utility.yul\":6071:6074   */\n      dup3\n        /* \"#utility.yul\":6067:6081   */\n      add\n        /* \"#utility.yul\":6059:6081   */\n      swap1\n      pop\n        /* \"#utility.yul\":5932:6088   */\n      swap2\n      swap1\n      pop\n      jump\t// out\n        /* \"#utility.yul\":6190:6961   */\n    tag_155:\n        /* \"#utility.yul\":6297:6300   */\n      0x00\n        /* \"#utility.yul\":6333:6337   */\n      0x60\n        /* \"#utility.yul\":6328:6331   */\n      dup4\n        /* \"#utility.yul\":6324:6338   */\n      add\n        /* \"#utility.yul\":6418:6422   */\n      0x00\n        /* \"#utility.yul\":6411:6416   */\n      dup4\n        /* \"#utility.yul\":6407:6423   */\n      add\n        /* \"#utility.yul\":6401:6424   */\n      mload\n        /* \"#utility.yul\":6437:6500   */\n      tag_260\n        /* \"#utility.yul\":6494:6498   */\n      0x00\n        /* \"#utility.yul\":6489:6492   */\n      dup7\n        /* \"#utility.yul\":6485:6499   */\n      add\n        /* \"#utility.yul\":6471:6483   */\n      dup3\n        /* \"#utility.yul\":6437:6500   */\n      tag_144\n      jump\t// in\n    tag_260:\n        /* \"#utility.yul\":6348:6510   */\n      pop\n        /* \"#utility.yul\":6592:6596   */\n      0x20\n        /* \"#utility.yul\":6585:6590   */\n      dup4\n        /* \"#utility.yul\":6581:6597   */\n      add\n        /* \"#utility.yul\":6575:6598   */\n      mload\n        /* \"#utility.yul\":6645:6648   */\n      dup5\n        /* \"#utility.yul\":6639:6643   */\n      dup3\n        /* \"#utility.yul\":6635:6649   */\n      sub\n        /* \"#utility.yul\":6628:6632   */\n      0x20\n        /* \"#utility.yul\":6623:6626   */\n      dup7\n        /* \"#utility.yul\":6619:6633   */\n      add\n        /* \"#utility.yul\":6612:6650   */\n      mstore\n        /* \"#utility.yul\":6671:6744   */\n      tag_261\n        /* \"#utility.yul\":6739:6743   */\n      dup3\n        /* \"#utility.yul\":6725:6737   */\n      dup3\n        /* \"#utility.yul\":6671:6744   */\n      tag_146\n      jump\t// in\n    tag_261:\n        /* \"#utility.yul\":6663:6744   */\n      swap2\n      pop\n        /* \"#utility.yul\":6520:6755   */\n      pop\n        /* \"#utility.yul\":6842:6846   */\n      0x40\n        /* \"#utility.yul\":6835:6840   */\n      dup4\n        /* \"#utility.yul\":6831:6847   */\n      add\n        /* \"#utility.yul\":6825:6848   */\n      mload\n        /* \"#utility.yul\":6861:6924   */\n      tag_262\n        /* \"#utility.yul\":6918:6922   */\n      0x40\n        /* \"#utility.yul\":6913:6916   */\n      dup7\n        /* \"#utility.yul\":6909:6923   */\n      add\n        /* \"#utility.yul\":6895:6907   */\n      dup3\n        /* \"#utility.yul\":6861:6924   */\n      tag_144\n      jump\t// in\n    tag_262:\n        /* \"#utility.yul\":6765:6934   */\n      pop\n        /* \"#utility.yul\":6951:6955   */\n      dup1\n        /* \"#utility.yul\":6944:6955   */\n      swap2\n      pop\n        /* \"#utility.yul\":6302:6961   */\n      pop\n        /* \"#utility.yul\":6190:6961   */\n      swap3\n      swap2\n      pop\n      pop\n      jump\t// out\n        /* \"#utility.yul\":6967:7219   */\n    tag_156:\n        /* \"#utility.yul\":7084:7094   */\n      0x00\n        /* \"#utility.yul\":7119:7213   */\n      tag_264\n        /* \"#utility.yul\":7209:7212   */\n      dup4\n        /* \"#utility.yul\":7201:7207   */\n      dup4\n        /* \"#utility.yul\":7119:7213   */\n      tag_155\n      jump\t// in\n    tag_264:\n        /* \"#utility.yul\":7105:7213   */\n      swap1\n      pop\n        /* \"#utility.yul\":6967:7219   */\n      swap3\n      swap2\n      pop\n      pop\n      jump\t// out\n        /* \"#utility.yul\":7225:7362   */\n    tag_157:\n        /* \"#utility.yul\":7319:7323   */\n      0x00\n        /* \"#utility.yul\":7351:7355   */\n      0x20\n        /* \"#utility.yul\":7346:7349   */\n      dup3\n        /* \"#utility.yul\":7342:7356   */\n      add\n        /* \"#utility.yul\":7334:7356   */\n      swap1\n      pop\n        /* \"#utility.yul\":7225:7362   */\n      swap2\n      swap1\n      pop\n      jump\t// out\n        /* \"#utility.yul\":7468:8571   */\n    tag_158:\n        /* \"#utility.yul\":7635:7638   */\n      0x00\n        /* \"#utility.yul\":7664:7742   */\n      tag_267\n        /* \"#utility.yul\":7736:7741   */\n      dup3\n        /* \"#utility.yul\":7664:7742   */\n      tag_152\n      jump\t// in\n    tag_267:\n        /* \"#utility.yul\":7758:7868   */\n      tag_268\n        /* \"#utility.yul\":7861:7867   */\n      dup2\n        /* \"#utility.yul\":7856:7859   */\n      dup6\n        /* \"#utility.yul\":7758:7868   */\n      tag_153\n      jump\t// in\n    tag_268:\n        /* \"#utility.yul\":7751:7868   */\n      swap4\n      pop\n        /* \"#utility.yul\":7894:7897   */\n      dup4\n        /* \"#utility.yul\":7939:7943   */\n      0x20\n        /* \"#utility.yul\":7931:7937   */\n      dup3\n        /* \"#utility.yul\":7927:7944   */\n      mul\n        /* \"#utility.yul\":7922:7925   */\n      dup6\n        /* \"#utility.yul\":7918:7945   */\n      add\n        /* \"#utility.yul\":7969:8049   */\n      tag_269\n        /* \"#utility.yul\":8043:8048   */\n      dup6\n        /* \"#utility.yul\":7969:8049   */\n      tag_154\n      jump\t// in\n    tag_269:\n        /* \"#utility.yul\":8072:8079   */\n      dup1\n        /* \"#utility.yul\":8103:8104   */\n      0x00\n        /* \"#utility.yul\":8088:8526   */\n    tag_270:\n        /* \"#utility.yul\":8113:8119   */\n      dup6\n        /* \"#utility.yul\":8110:8111   */\n      dup2\n        /* \"#utility.yul\":8107:8120   */\n      lt\n        /* \"#utility.yul\":8088:8526   */\n      iszero\n      tag_272\n      jumpi\n        /* \"#utility.yul\":8184:8193   */\n      dup5\n        /* \"#utility.yul\":8178:8182   */\n      dup5\n        /* \"#utility.yul\":8174:8194   */\n      sub\n        /* \"#utility.yul\":8169:8172   */\n      dup10\n        /* \"#utility.yul\":8162:8195   */\n      mstore\n        /* \"#utility.yul\":8235:8241   */\n      dup2\n        /* \"#utility.yul\":8229:8242   */\n      mload\n        /* \"#utility.yul\":8263:8375   */\n      tag_273\n        /* \"#utility.yul\":8370:8374   */\n      dup6\n        /* \"#utility.yul\":8355:8368   */\n      dup3\n        /* \"#utility.yul\":8263:8375   */\n      tag_156\n      jump\t// in\n    tag_273:\n        /* \"#utility.yul\":8255:8375   */\n      swap5\n      pop\n        /* \"#utility.yul\":8398:8482   */\n      tag_274\n        /* \"#utility.yul\":8475:8481   */\n      dup4\n        /* \"#utility.yul\":8398:8482   */\n      tag_157\n      jump\t// in\n    tag_274:\n        /* \"#utility.yul\":8388:8482   */\n      swap3\n      pop\n        /* \"#utility.yul\":8511:8515   */\n      0x20\n        /* \"#utility.yul\":8506:8509   */\n      dup11\n        /* \"#utility.yul\":8502:8516   */\n      add\n        /* \"#utility.yul\":8495:8516   */\n      swap10\n      pop\n        /* \"#utility.yul\":8148:8526   */\n      pop\n        /* \"#utility.yul\":8135:8136   */\n      0x01\n        /* \"#utility.yul\":8132:8133   */\n      dup2\n        /* \"#utility.yul\":8128:8137   */\n      add\n        /* \"#utility.yul\":8123:8137   */\n      swap1\n      pop\n        /* \"#utility.yul\":8088:8526   */\n      jump(tag_270)\n    tag_272:\n        /* \"#utility.yul\":8092:8106   */\n      pop\n        /* \"#utility.yul\":8542:8546   */\n      dup3\n        /* \"#utility.yul\":8535:8546   */\n      swap8\n      pop\n        /* \"#utility.yul\":8562:8565   */\n      dup8\n        /* \"#utility.yul\":8555:8565   */\n      swap6\n      pop\n        /* \"#utility.yul\":7640:8571   */\n      pop\n      pop\n      pop\n      pop\n      pop\n        /* \"#utility.yul\":7468:8571   */\n      swap3\n      swap2\n      pop\n      pop\n      jump\t// out\n        /* \"#utility.yul\":8577:9046   */\n    tag_40:\n        /* \"#utility.yul\":8768:8772   */\n      0x00\n        /* \"#utility.yul\":8806:8808   */\n      0x20\n        /* \"#utility.yul\":8795:8804   */\n      dup3\n        /* \"#utility.yul\":8791:8809   */\n      add\n        /* \"#utility.yul\":8783:8809   */\n      swap1\n      pop\n        /* \"#utility.yul\":8855:8864   */\n      dup2\n        /* \"#utility.yul\":8849:8853   */\n      dup2\n        /* \"#utility.yul\":8845:8865   */\n      sub\n        /* \"#utility.yul\":8841:8842   */\n      0x00\n        /* \"#utility.yul\":8830:8839   */\n      dup4\n        /* \"#utility.yul\":8826:8843   */\n      add\n        /* \"#utility.yul\":8819:8866   */\n      mstore\n        /* \"#utility.yul\":8883:9039   */\n      tag_276\n        /* \"#utility.yul\":9034:9038   */\n      dup2\n        /* \"#utility.yul\":9025:9031   */\n      dup5\n        /* \"#utility.yul\":8883:9039   */\n      tag_158\n      jump\t// in\n    tag_276:\n        /* \"#utility.yul\":8875:9039   */\n      swap1\n      pop\n        /* \"#utility.yul\":8577:9046   */\n      swap3\n      swap2\n      pop\n      pop\n      jump\t// out\n        /* \"#utility.yul\":9052:9169   */\n    tag_159:\n        /* \"#utility.yul\":9161:9162   */\n      0x00\n        /* \"#utility.yul\":9158:9159   */\n      dup1\n        /* \"#utility.yul\":9151:9163   */\n      revert\n        /* \"#utility.yul\":9175:9292   */\n    tag_160:\n        /* \"#utility.yul\":9284:9285   */\n      0x00\n        /* \"#utility.yul\":9281:9282   */\n      dup1\n        /* \"#utility.yul\":9274:9286   */\n      revert\n        /* \"#utility.yul\":9298:9478   */\n    tag_102:\n        /* \"#utility.yul\":9346:9423   */\n      0x4e487b7100000000000000000000000000000000000000000000000000000000\n        /* \"#utility.yul\":9343:9344   */\n      0x00\n        /* \"#utility.yul\":9336:9424   */\n      mstore\n        /* \"#utility.yul\":9443:9447   */\n      0x41\n        /* \"#utility.yul\":9440:9441   */\n      0x04\n        /* \"#utility.yul\":9433:9448   */\n      mstore\n        /* \"#utility.yul\":9467:9471   */\n      0x24\n        /* \"#utility.yul\":9464:9465   */\n      0x00\n        /* \"#utility.yul\":9457:9472   */\n      revert\n        /* \"#utility.yul\":9484:9765   */\n    tag_161:\n        /* \"#utility.yul\":9567:9594   */\n      tag_281\n        /* \"#utility.yul\":9589:9593   */\n      dup3\n        /* \"#utility.yul\":9567:9594   */\n      tag_142\n      jump\t// in\n    tag_281:\n        /* \"#utility.yul\":9559:9565   */\n      dup2\n        /* \"#utility.yul\":9555:9595   */\n      add\n        /* \"#utility.yul\":9697:9703   */\n      dup2\n        /* \"#utility.yul\":9685:9695   */\n      dup2\n        /* \"#utility.yul\":9682:9704   */\n      lt\n        /* \"#utility.yul\":9661:9679   */\n      0xffffffffffffffff\n        /* \"#utility.yul\":9649:9659   */\n      dup3\n        /* \"#utility.yul\":9646:9680   */\n      gt\n        /* \"#utility.yul\":9643:9705   */\n      or\n        /* \"#utility.yul\":9640:9728   */\n      iszero\n      tag_282\n      jumpi\n        /* \"#utility.yul\":9708:9726   */\n      tag_283\n      tag_102\n      jump\t// in\n    tag_283:\n        /* \"#utility.yul\":9640:9728   */\n    tag_282:\n        /* \"#utility.yul\":9748:9758   */\n      dup1\n        /* \"#utility.yul\":9744:9746   */\n      0x40\n        /* \"#utility.yul\":9737:9759   */\n      mstore\n        /* \"#utility.yul\":9527:9765   */\n      pop\n        /* \"#utility.yul\":9484:9765   */\n      pop\n      pop\n      jump\t// out\n        /* \"#utility.yul\":9771:9900   */\n    tag_162:\n        /* \"#utility.yul\":9805:9811   */\n      0x00\n        /* \"#utility.yul\":9832:9852   */\n      tag_285\n      tag_132\n      jump\t// in\n    tag_285:\n        /* \"#utility.yul\":9822:9852   */\n      swap1\n      pop\n        /* \"#utility.yul\":9861:9894   */\n      tag_286\n        /* \"#utility.yul\":9889:9893   */\n      dup3\n        /* \"#utility.yul\":9881:9887   */\n      dup3\n        /* \"#utility.yul\":9861:9894   */\n      tag_161\n      jump\t// in\n    tag_286:\n        /* \"#utility.yul\":9771:9900   */\n      swap2\n      swap1\n      pop\n      jump\t// out\n        /* \"#utility.yul\":9906:10214   */\n    tag_163:\n        /* \"#utility.yul\":9968:9972   */\n      0x00\n        /* \"#utility.yul\":10058:10076   */\n      0xffffffffffffffff\n        /* \"#utility.yul\":10050:10056   */\n      dup3\n        /* \"#utility.yul\":10047:10077   */\n      gt\n        /* \"#utility.yul\":10044:10100   */\n      iszero\n      tag_288\n      jumpi\n        /* \"#utility.yul\":10080:10098   */\n      tag_289\n      tag_102\n      jump\t// in\n    tag_289:\n        /* \"#utility.yul\":10044:10100   */\n    tag_288:\n        /* \"#utility.yul\":10118:10147   */\n      tag_290\n        /* \"#utility.yul\":10140:10146   */\n      dup3\n        /* \"#utility.yul\":10118:10147   */\n      tag_142\n      jump\t// in\n    tag_290:\n        /* \"#utility.yul\":10110:10147   */\n      swap1\n      pop\n        /* \"#utility.yul\":10202:10206   */\n      0x20\n        /* \"#utility.yul\":10196:10200   */\n      dup2\n        /* \"#utility.yul\":10192:10207   */\n      add\n        /* \"#utility.yul\":10184:10207   */\n      swap1\n      pop\n        /* \"#utility.yul\":9906:10214   */\n      swap2\n      swap1\n      pop\n      jump\t// out\n        /* \"#utility.yul\":10220:10368   */\n    tag_164:\n        /* \"#utility.yul\":10318:10324   */\n      dup3\n        /* \"#utility.yul\":10313:10316   */\n      dup2\n        /* \"#utility.yul\":10308:10311   */\n      dup4\n        /* \"#utility.yul\":10295:10325   */\n      calldatacopy\n        /* \"#utility.yul\":10359:10360   */\n      0x00\n        /* \"#utility.yul\":10350:10356   */\n      dup4\n        /* \"#utility.yul\":10345:10348   */\n      dup4\n        /* \"#utility.yul\":10341:10357   */\n      add\n        /* \"#utility.yul\":10334:10361   */\n      mstore\n        /* \"#utility.yul\":10220:10368   */\n      pop\n      pop\n      pop\n      jump\t// out\n        /* \"#utility.yul\":10374:10799   */\n    tag_165:\n        /* \"#utility.yul\":10452:10457   */\n      0x00\n        /* \"#utility.yul\":10477:10543   */\n      tag_293\n        /* \"#utility.yul\":10493:10542   */\n      tag_294\n        /* \"#utility.yul\":10535:10541   */\n      dup5\n        /* \"#utility.yul\":10493:10542   */\n      tag_163\n      jump\t// in\n    tag_294:\n        /* \"#utility.yul\":10477:10543   */\n      tag_162\n      jump\t// in\n    tag_293:\n        /* \"#utility.yul\":10468:10543   */\n      swap1\n      pop\n        /* \"#utility.yul\":10566:10572   */\n      dup3\n        /* \"#utility.yul\":10559:10564   */\n      dup2\n        /* \"#utility.yul\":10552:10573   */\n      mstore\n        /* \"#utility.yul\":10604:10608   */\n      0x20\n        /* \"#utility.yul\":10597:10602   */\n      dup2\n        /* \"#utility.yul\":10593:10609   */\n      add\n        /* \"#utility.yul\":10642:10645   */\n      dup5\n        /* \"#utility.yul\":10633:10639   */\n      dup5\n        /* \"#utility.yul\":10628:10631   */\n      dup5\n        /* \"#utility.yul\":10624:10640   */\n      add\n        /* \"#utility.yul\":10621:10646   */\n      gt\n        /* \"#utility.yul\":10618:10730   */\n      iszero\n      tag_295\n      jumpi\n        /* \"#utility.yul\":10649:10728   */\n      tag_296\n      tag_160\n      jump\t// in\n    tag_296:\n        /* \"#utility.yul\":10618:10730   */\n    tag_295:\n        /* \"#utility.yul\":10739:10793   */\n      tag_297\n        /* \"#utility.yul\":10786:10792   */\n      dup5\n        /* \"#utility.yul\":10781:10784   */\n      dup3\n        /* \"#utility.yul\":10776:10779   */\n      dup6\n        /* \"#utility.yul\":10739:10793   */\n      tag_164\n      jump\t// in\n    tag_297:\n        /* \"#utility.yul\":10458:10799   */\n      pop\n        /* \"#utility.yul\":10374:10799   */\n      swap4\n      swap3\n      pop\n      pop\n      pop\n      jump\t// out\n        /* \"#utility.yul\":10819:11159   */\n    tag_166:\n        /* \"#utility.yul\":10875:10880   */\n      0x00\n        /* \"#utility.yul\":10924:10927   */\n      dup3\n        /* \"#utility.yul\":10917:10921   */\n      0x1f\n        /* \"#utility.yul\":10909:10915   */\n      dup4\n        /* \"#utility.yul\":10905:10922   */\n      add\n        /* \"#utility.yul\":10901:10928   */\n      slt\n        /* \"#utility.yul\":10891:11013   */\n      tag_299\n      jumpi\n        /* \"#utility.yul\":10932:11011   */\n      tag_300\n      tag_159\n      jump\t// in\n    tag_300:\n        /* \"#utility.yul\":10891:11013   */\n    tag_299:\n        /* \"#utility.yul\":11049:11055   */\n      dup2\n        /* \"#utility.yul\":11036:11056   */\n      calldataload\n        /* \"#utility.yul\":11074:11153   */\n      tag_301\n        /* \"#utility.yul\":11149:11152   */\n      dup5\n        /* \"#utility.yul\":11141:11147   */\n      dup3\n        /* \"#utility.yul\":11134:11138   */\n      0x20\n        /* \"#utility.yul\":11126:11132   */\n      dup7\n        /* \"#utility.yul\":11122:11139   */\n      add\n        /* \"#utility.yul\":11074:11153   */\n      tag_165\n      jump\t// in\n    tag_301:\n        /* \"#utility.yul\":11065:11153   */\n      swap2\n      pop\n        /* \"#utility.yul\":10881:11159   */\n      pop\n        /* \"#utility.yul\":10819:11159   */\n      swap3\n      swap2\n      pop\n      pop\n      jump\t// out\n        /* \"#utility.yul\":11165:11674   */\n    tag_43:\n        /* \"#utility.yul\":11234:11240   */\n      0x00\n        /* \"#utility.yul\":11283:11285   */\n      0x20\n        /* \"#utility.yul\":11271:11280   */\n      dup3\n        /* \"#utility.yul\":11262:11269   */\n      dup5\n        /* \"#utility.yul\":11258:11281   */\n      sub\n        /* \"#utility.yul\":11254:11286   */\n      slt\n        /* \"#utility.yul\":11251:11370   */\n      iszero\n      tag_303\n      jumpi\n        /* \"#utility.yul\":11289:11368   */\n      tag_304\n      tag_133\n      jump\t// in\n    tag_304:\n        /* \"#utility.yul\":11251:11370   */\n    tag_303:\n        /* \"#utility.yul\":11437:11438   */\n      0x00\n        /* \"#utility.yul\":11426:11435   */\n      dup3\n        /* \"#utility.yul\":11422:11439   */\n      add\n        /* \"#utility.yul\":11409:11440   */\n      calldataload\n        /* \"#utility.yul\":11467:11485   */\n      0xffffffffffffffff\n        /* \"#utility.yul\":11459:11465   */\n      dup2\n        /* \"#utility.yul\":11456:11486   */\n      gt\n        /* \"#utility.yul\":11453:11570   */\n      iszero\n      tag_305\n      jumpi\n        /* \"#utility.yul\":11489:11568   */\n      tag_306\n      tag_134\n      jump\t// in\n    tag_306:\n        /* \"#utility.yul\":11453:11570   */\n    tag_305:\n        /* \"#utility.yul\":11594:11657   */\n      tag_307\n        /* \"#utility.yul\":11649:11656   */\n      dup5\n        /* \"#utility.yul\":11640:11646   */\n      dup3\n        /* \"#utility.yul\":11629:11638   */\n      dup6\n        /* \"#utility.yul\":11625:11647   */\n      add\n        /* \"#utility.yul\":11594:11657   */\n      tag_166\n      jump\t// in\n    tag_307:\n        /* \"#utility.yul\":11584:11657   */\n      swap2\n      pop\n        /* \"#utility.yul\":11380:11667   */\n      pop\n        /* \"#utility.yul\":11165:11674   */\n      swap3\n      swap2\n      pop\n      pop\n      jump\t// out\n        /* \"#utility.yul\":11680:11770   */\n    tag_167:\n        /* \"#utility.yul\":11714:11721   */\n      0x00\n        /* \"#utility.yul\":11757:11762   */\n      dup2\n        /* \"#utility.yul\":11750:11763   */\n      iszero\n        /* \"#utility.yul\":11743:11764   */\n      iszero\n        /* \"#utility.yul\":11732:11764   */\n      swap1\n      pop\n        /* \"#utility.yul\":11680:11770   */\n      swap2\n      swap1\n      pop\n      jump\t// out\n        /* \"#utility.yul\":11776:11885   */\n    tag_168:\n        /* \"#utility.yul\":11857:11878   */\n      tag_310\n        /* \"#utility.yul\":11872:11877   */\n      dup2\n        /* \"#utility.yul\":11857:11878   */\n      tag_167\n      jump\t// in\n    tag_310:\n        /* \"#utility.yul\":11852:11855   */\n      dup3\n        /* \"#utility.yul\":11845:11879   */\n      mstore\n        /* \"#utility.yul\":11776:11885   */\n      pop\n      pop\n      jump\t// out\n        /* \"#utility.yul\":11891:12309   */\n    tag_49:\n        /* \"#utility.yul\":12028:12032   */\n      0x00\n        /* \"#utility.yul\":12066:12068   */\n      0x60\n        /* \"#utility.yul\":12055:12064   */\n      dup3\n        /* \"#utility.yul\":12051:12069   */\n      add\n        /* \"#utility.yul\":12043:12069   */\n      swap1\n      pop\n        /* \"#utility.yul\":12079:12144   */\n      tag_312\n        /* \"#utility.yul\":12141:12142   */\n      0x00\n        /* \"#utility.yul\":12130:12139   */\n      dup4\n        /* \"#utility.yul\":12126:12143   */\n      add\n        /* \"#utility.yul\":12117:12123   */\n      dup7\n        /* \"#utility.yul\":12079:12144   */\n      tag_168\n      jump\t// in\n    tag_312:\n        /* \"#utility.yul\":12154:12220   */\n      tag_313\n        /* \"#utility.yul\":12216:12218   */\n      0x20\n        /* \"#utility.yul\":12205:12214   */\n      dup4\n        /* \"#utility.yul\":12201:12219   */\n      add\n        /* \"#utility.yul\":12192:12198   */\n      dup6\n        /* \"#utility.yul\":12154:12220   */\n      tag_168\n      jump\t// in\n    tag_313:\n        /* \"#utility.yul\":12230:12302   */\n      tag_314\n        /* \"#utility.yul\":12298:12300   */\n      0x40\n        /* \"#utility.yul\":12287:12296   */\n      dup4\n        /* \"#utility.yul\":12283:12301   */\n      add\n        /* \"#utility.yul\":12274:12280   */\n      dup5\n        /* \"#utility.yul\":12230:12302   */\n      tag_138\n      jump\t// in\n    tag_314:\n        /* \"#utility.yul\":11891:12309   */\n      swap5\n      swap4\n      pop\n      pop\n      pop\n      pop\n      jump\t// out\n        /* \"#utility.yul\":12315:12414   */\n    tag_169:\n        /* \"#utility.yul\":12386:12407   */\n      tag_316\n        /* \"#utility.yul\":12401:12406   */\n      dup2\n        /* \"#utility.yul\":12386:12407   */\n      tag_167\n      jump\t// in\n    tag_316:\n        /* \"#utility.yul\":12381:12384   */\n      dup3\n        /* \"#utility.yul\":12374:12408   */\n      mstore\n        /* \"#utility.yul\":12315:12414   */\n      pop\n      pop\n      jump\t// out\n        /* \"#utility.yul\":12508:13176   */\n    tag_170:\n        /* \"#utility.yul\":12647:12651   */\n      0x60\n        /* \"#utility.yul\":12642:12645   */\n      dup3\n        /* \"#utility.yul\":12638:12652   */\n      add\n        /* \"#utility.yul\":12740:12744   */\n      0x00\n        /* \"#utility.yul\":12733:12738   */\n      dup3\n        /* \"#utility.yul\":12729:12745   */\n      add\n        /* \"#utility.yul\":12723:12746   */\n      mload\n        /* \"#utility.yul\":12759:12816   */\n      tag_318\n        /* \"#utility.yul\":12810:12814   */\n      0x00\n        /* \"#utility.yul\":12805:12808   */\n      dup6\n        /* \"#utility.yul\":12801:12815   */\n      add\n        /* \"#utility.yul\":12787:12799   */\n      dup3\n        /* \"#utility.yul\":12759:12816   */\n      tag_169\n      jump\t// in\n    tag_318:\n        /* \"#utility.yul\":12662:12826   */\n      pop\n        /* \"#utility.yul\":12909:12913   */\n      0x20\n        /* \"#utility.yul\":12902:12907   */\n      dup3\n        /* \"#utility.yul\":12898:12914   */\n      add\n        /* \"#utility.yul\":12892:12915   */\n      mload\n        /* \"#utility.yul\":12928:12985   */\n      tag_319\n        /* \"#utility.yul\":12979:12983   */\n      0x20\n        /* \"#utility.yul\":12974:12977   */\n      dup6\n        /* \"#utility.yul\":12970:12984   */\n      add\n        /* \"#utility.yul\":12956:12968   */\n      dup3\n        /* \"#utility.yul\":12928:12985   */\n      tag_169\n      jump\t// in\n    tag_319:\n        /* \"#utility.yul\":12836:12995   */\n      pop\n        /* \"#utility.yul\":13077:13081   */\n      0x40\n        /* \"#utility.yul\":13070:13075   */\n      dup3\n        /* \"#utility.yul\":13066:13082   */\n      add\n        /* \"#utility.yul\":13060:13083   */\n      mload\n        /* \"#utility.yul\":13096:13159   */\n      tag_320\n        /* \"#utility.yul\":13153:13157   */\n      0x40\n        /* \"#utility.yul\":13148:13151   */\n      dup6\n        /* \"#utility.yul\":13144:13158   */\n      add\n        /* \"#utility.yul\":13130:13142   */\n      dup3\n        /* \"#utility.yul\":13096:13159   */\n      tag_144\n      jump\t// in\n    tag_320:\n        /* \"#utility.yul\":13005:13169   */\n      pop\n        /* \"#utility.yul\":12616:13176   */\n      pop\n        /* \"#utility.yul\":12508:13176   */\n      pop\n      pop\n      jump\t// out\n        /* \"#utility.yul\":13182:13488   */\n    tag_57:\n        /* \"#utility.yul\":13317:13321   */\n      0x00\n        /* \"#utility.yul\":13355:13357   */\n      0x60\n        /* \"#utility.yul\":13344:13353   */\n      dup3\n        /* \"#utility.yul\":13340:13358   */\n      add\n        /* \"#utility.yul\":13332:13358   */\n      swap1\n      pop\n        /* \"#utility.yul\":13368:13481   */\n      tag_322\n        /* \"#utility.yul\":13478:13479   */\n      0x00\n        /* \"#utility.yul\":13467:13476   */\n      dup4\n        /* \"#utility.yul\":13463:13480   */\n      add\n        /* \"#utility.yul\":13454:13460   */\n      dup5\n        /* \"#utility.yul\":13368:13481   */\n      tag_170\n      jump\t// in\n    tag_322:\n        /* \"#utility.yul\":13182:13488   */\n      swap3\n      swap2\n      pop\n      pop\n      jump\t// out\n        /* \"#utility.yul\":13494:13612   */\n    tag_171:\n        /* \"#utility.yul\":13581:13605   */\n      tag_324\n        /* \"#utility.yul\":13599:13604   */\n      dup2\n        /* \"#utility.yul\":13581:13605   */\n      tag_149\n      jump\t// in\n    tag_324:\n        /* \"#utility.yul\":13576:13579   */\n      dup3\n        /* \"#utility.yul\":13569:13606   */\n      mstore\n        /* \"#utility.yul\":13494:13612   */\n      pop\n      pop\n      jump\t// out\n        /* \"#utility.yul\":13618:13840   */\n    tag_61:\n        /* \"#utility.yul\":13711:13715   */\n      0x00\n        /* \"#utility.yul\":13749:13751   */\n      0x20\n        /* \"#utility.yul\":13738:13747   */\n      dup3\n        /* \"#utility.yul\":13734:13752   */\n      add\n        /* \"#utility.yul\":13726:13752   */\n      swap1\n      pop\n        /* \"#utility.yul\":13762:13833   */\n      tag_326\n        /* \"#utility.yul\":13830:13831   */\n      0x00\n        /* \"#utility.yul\":13819:13828   */\n      dup4\n        /* \"#utility.yul\":13815:13832   */\n      add\n        /* \"#utility.yul\":13806:13812   */\n      dup5\n        /* \"#utility.yul\":13762:13833   */\n      tag_171\n      jump\t// in\n    tag_326:\n        /* \"#utility.yul\":13618:13840   */\n      swap3\n      swap2\n      pop\n      pop\n      jump\t// out\n        /* \"#utility.yul\":13846:14018   */\n    tag_172:\n        /* \"#utility.yul\":13986:14010   */\n      0x4e6f742061207265676973746572656420766f74657200000000000000000000\n        /* \"#utility.yul\":13982:13983   */\n      0x00\n        /* \"#utility.yul\":13974:13980   */\n      dup3\n        /* \"#utility.yul\":13970:13984   */\n      add\n        /* \"#utility.yul\":13963:14011   */\n      mstore\n        /* \"#utility.yul\":13846:14018   */\n      pop\n      jump\t// out\n        /* \"#utility.yul\":14024:14390   */\n    tag_173:\n        /* \"#utility.yul\":14166:14169   */\n      0x00\n        /* \"#utility.yul\":14187:14254   */\n      tag_329\n        /* \"#utility.yul\":14251:14253   */\n      0x16\n        /* \"#utility.yul\":14246:14249   */\n      dup4\n        /* \"#utility.yul\":14187:14254   */\n      tag_140\n      jump\t// in\n    tag_329:\n        /* \"#utility.yul\":14180:14254   */\n      swap2\n      pop\n        /* \"#utility.yul\":14263:14356   */\n      tag_330\n        /* \"#utility.yul\":14352:14355   */\n      dup3\n        /* \"#utility.yul\":14263:14356   */\n      tag_172\n      jump\t// in\n    tag_330:\n        /* \"#utility.yul\":14381:14383   */\n      0x20\n        /* \"#utility.yul\":14376:14379   */\n      dup3\n        /* \"#utility.yul\":14372:14384   */\n      add\n        /* \"#utility.yul\":14365:14384   */\n      swap1\n      pop\n        /* \"#utility.yul\":14024:14390   */\n      swap2\n      swap1\n      pop\n      jump\t// out\n        /* \"#utility.yul\":14396:14815   */\n    tag_65:\n        /* \"#utility.yul\":14562:14566   */\n      0x00\n        /* \"#utility.yul\":14600:14602   */\n      0x20\n        /* \"#utility.yul\":14589:14598   */\n      dup3\n        /* \"#utility.yul\":14585:14603   */\n      add\n        /* \"#utility.yul\":14577:14603   */\n      swap1\n      pop\n        /* \"#utility.yul\":14649:14658   */\n      dup2\n        /* \"#utility.yul\":14643:14647   */\n      dup2\n        /* \"#utility.yul\":14639:14659   */\n      sub\n        /* \"#utility.yul\":14635:14636   */\n      0x00\n        /* \"#utility.yul\":14624:14633   */\n      dup4\n        /* \"#utility.yul\":14620:14637   */\n      add\n        /* \"#utility.yul\":14613:14660   */\n      mstore\n        /* \"#utility.yul\":14677:14808   */\n      tag_332\n        /* \"#utility.yul\":14803:14807   */\n      dup2\n        /* \"#utility.yul\":14677:14808   */\n      tag_173\n      jump\t// in\n    tag_332:\n        /* \"#utility.yul\":14669:14808   */\n      swap1\n      pop\n        /* \"#utility.yul\":14396:14815   */\n      swap2\n      swap1\n      pop\n      jump\t// out\n        /* \"#utility.yul\":14821:14984   */\n    tag_174:\n        /* \"#utility.yul\":14961:14976   */\n      0x416c726561647920766f74656400000000000000000000000000000000000000\n        /* \"#utility.yul\":14957:14958   */\n      0x00\n        /* \"#utility.yul\":14949:14955   */\n      dup3\n        /* \"#utility.yul\":14945:14959   */\n      add\n        /* \"#utility.yul\":14938:14977   */\n      mstore\n        /* \"#utility.yul\":14821:14984   */\n      pop\n      jump\t// out\n        /* \"#utility.yul\":14990:15356   */\n    tag_175:\n        /* \"#utility.yul\":15132:15135   */\n      0x00\n        /* \"#utility.yul\":15153:15220   */\n      tag_335\n        /* \"#utility.yul\":15217:15219   */\n      0x0d\n        /* \"#utility.yul\":15212:15215   */\n      dup4\n        /* \"#utility.yul\":15153:15220   */\n      tag_140\n      jump\t// in\n    tag_335:\n        /* \"#utility.yul\":15146:15220   */\n      swap2\n      pop\n        /* \"#utility.yul\":15229:15322   */\n      tag_336\n        /* \"#utility.yul\":15318:15321   */\n      dup3\n        /* \"#utility.yul\":15229:15322   */\n      tag_174\n      jump\t// in\n    tag_336:\n        /* \"#utility.yul\":15347:15349   */\n      0x20\n        /* \"#utility.yul\":15342:15345   */\n      dup3\n        /* \"#utility.yul\":15338:15350   */\n      add\n        /* \"#utility.yul\":15331:15350   */\n      swap1\n      pop\n        /* \"#utility.yul\":14990:15356   */\n      swap2\n      swap1\n      pop\n      jump\t// out\n        /* \"#utility.yul\":15362:15781   */\n    tag_68:\n        /* \"#utility.yul\":15528:15532   */\n      0x00\n        /* \"#utility.yul\":15566:15568   */\n      0x20\n        /* \"#utility.yul\":15555:15564   */\n      dup3\n        /* \"#utility.yul\":15551:15569   */\n      add\n        /* \"#utility.yul\":15543:15569   */\n      swap1\n      pop\n        /* \"#utility.yul\":15615:15624   */\n      dup2\n        /* \"#utility.yul\":15609:15613   */\n      dup2\n        /* \"#utility.yul\":15605:15625   */\n      sub\n        /* \"#utility.yul\":15601:15602   */\n      0x00\n        /* \"#utility.yul\":15590:15599   */\n      dup4\n        /* \"#utility.yul\":15586:15603   */\n      add\n        /* \"#utility.yul\":15579:15626   */\n      mstore\n        /* \"#utility.yul\":15643:15774   */\n      tag_338\n        /* \"#utility.yul\":15769:15773   */\n      dup2\n        /* \"#utility.yul\":15643:15774   */\n      tag_175\n      jump\t// in\n    tag_338:\n        /* \"#utility.yul\":15635:15774   */\n      swap1\n      pop\n        /* \"#utility.yul\":15362:15781   */\n      swap2\n      swap1\n      pop\n      jump\t// out\n        /* \"#utility.yul\":15787:15956   */\n    tag_176:\n        /* \"#utility.yul\":15927:15948   */\n      0x43616e646964617465206e6f7420666f756e6400000000000000000000000000\n        /* \"#utility.yul\":15923:15924   */\n      0x00\n        /* \"#utility.yul\":15915:15921   */\n      dup3\n        /* \"#utility.yul\":15911:15925   */\n      add\n        /* \"#utility.yul\":15904:15949   */\n      mstore\n        /* \"#utility.yul\":15787:15956   */\n      pop\n      jump\t// out\n        /* \"#utility.yul\":15962:16328   */\n    tag_177:\n        /* \"#utility.yul\":16104:16107   */\n      0x00\n        /* \"#utility.yul\":16125:16192   */\n      tag_341\n        /* \"#utility.yul\":16189:16191   */\n      0x13\n        /* \"#utility.yul\":16184:16187   */\n      dup4\n        /* \"#utility.yul\":16125:16192   */\n      tag_140\n      jump\t// in\n    tag_341:\n        /* \"#utility.yul\":16118:16192   */\n      swap2\n      pop\n        /* \"#utility.yul\":16201:16294   */\n      tag_342\n        /* \"#utility.yul\":16290:16293   */\n      dup3\n        /* \"#utility.yul\":16201:16294   */\n      tag_176\n      jump\t// in\n    tag_342:\n        /* \"#utility.yul\":16319:16321   */\n      0x20\n        /* \"#utility.yul\":16314:16317   */\n      dup3\n        /* \"#utility.yul\":16310:16322   */\n      add\n        /* \"#utility.yul\":16303:16322   */\n      swap1\n      pop\n        /* \"#utility.yul\":15962:16328   */\n      swap2\n      swap1\n      pop\n      jump\t// out\n        /* \"#utility.yul\":16334:16753   */\n    tag_71:\n        /* \"#utility.yul\":16500:16504   */\n      0x00\n        /* \"#utility.yul\":16538:16540   */\n      0x20\n        /* \"#utility.yul\":16527:16536   */\n      dup3\n        /* \"#utility.yul\":16523:16541   */\n      add\n        /* \"#utility.yul\":16515:16541   */\n      swap1\n      pop\n        /* \"#utility.yul\":16587:16596   */\n      dup2\n        /* \"#utility.yul\":16581:16585   */\n      dup2\n        /* \"#utility.yul\":16577:16597   */\n      sub\n        /* \"#utility.yul\":16573:16574   */\n      0x00\n        /* \"#utility.yul\":16562:16571   */\n      dup4\n        /* \"#utility.yul\":16558:16575   */\n      add\n        /* \"#utility.yul\":16551:16598   */\n      mstore\n        /* \"#utility.yul\":16615:16746   */\n      tag_344\n        /* \"#utility.yul\":16741:16745   */\n      dup2\n        /* \"#utility.yul\":16615:16746   */\n      tag_177\n      jump\t// in\n    tag_344:\n        /* \"#utility.yul\":16607:16746   */\n      swap1\n      pop\n        /* \"#utility.yul\":16334:16753   */\n      swap2\n      swap1\n      pop\n      jump\t// out\n        /* \"#utility.yul\":16759:16939   */\n    tag_178:\n        /* \"#utility.yul\":16807:16884   */\n      0x4e487b7100000000000000000000000000000000000000000000000000000000\n        /* \"#utility.yul\":16804:16805   */\n      0x00\n        /* \"#utility.yul\":16797:16885   */\n      mstore\n        /* \"#utility.yul\":16904:16908   */\n      0x11\n        /* \"#utility.yul\":16901:16902   */\n      0x04\n        /* \"#utility.yul\":16894:16909   */\n      mstore\n        /* \"#utility.yul\":16928:16932   */\n      0x24\n        /* \"#utility.yul\":16925:16926   */\n      0x00\n        /* \"#utility.yul\":16918:16933   */\n      revert\n        /* \"#utility.yul\":16945:17178   */\n    tag_73:\n        /* \"#utility.yul\":16984:16987   */\n      0x00\n        /* \"#utility.yul\":17007:17031   */\n      tag_347\n        /* \"#utility.yul\":17025:17030   */\n      dup3\n        /* \"#utility.yul\":17007:17031   */\n      tag_135\n      jump\t// in\n    tag_347:\n        /* \"#utility.yul\":16998:17031   */\n      swap2\n      pop\n        /* \"#utility.yul\":17053:17119   */\n      0xffffffffffffffffffffffffffffffffffffffffffffffffffffffffffffffff\n        /* \"#utility.yul\":17046:17051   */\n      dup3\n        /* \"#utility.yul\":17043:17120   */\n      sub\n        /* \"#utility.yul\":17040:17143   */\n      tag_348\n      jumpi\n        /* \"#utility.yul\":17123:17141   */\n      tag_349\n      tag_178\n      jump\t// in\n    tag_349:\n        /* \"#utility.yul\":17040:17143   */\n    tag_348:\n        /* \"#utility.yul\":17170:17171   */\n      0x01\n        /* \"#utility.yul\":17163:17168   */\n      dup3\n        /* \"#utility.yul\":17159:17172   */\n      add\n        /* \"#utility.yul\":17152:17172   */\n      swap1\n      pop\n        /* \"#utility.yul\":16945:17178   */\n      swap2\n      swap1\n      pop\n      jump\t// out\n        /* \"#utility.yul\":17184:17516   */\n    tag_75:\n        /* \"#utility.yul\":17305:17309   */\n      0x00\n        /* \"#utility.yul\":17343:17345   */\n      0x40\n        /* \"#utility.yul\":17332:17341   */\n      dup3\n        /* \"#utility.yul\":17328:17346   */\n      add\n        /* \"#utility.yul\":17320:17346   */\n      swap1\n      pop\n        /* \"#utility.yul\":17356:17427   */\n      tag_351\n        /* \"#utility.yul\":17424:17425   */\n      0x00\n        /* \"#utility.yul\":17413:17422   */\n      dup4\n        /* \"#utility.yul\":17409:17426   */\n      add\n        /* \"#utility.yul\":17400:17406   */\n      dup6\n        /* \"#utility.yul\":17356:17427   */\n      tag_171\n      jump\t// in\n    tag_351:\n        /* \"#utility.yul\":17437:17509   */\n      tag_352\n        /* \"#utility.yul\":17505:17507   */\n      0x20\n        /* \"#utility.yul\":17494:17503   */\n      dup4\n        /* \"#utility.yul\":17490:17508   */\n      add\n        /* \"#utility.yul\":17481:17487   */\n      dup5\n        /* \"#utility.yul\":17437:17509   */\n      tag_138\n      jump\t// in\n    tag_352:\n        /* \"#utility.yul\":17184:17516   */\n      swap4\n      swap3\n      pop\n      pop\n      pop\n      jump\t// out\n        /* \"#utility.yul\":17522:17702   */\n    tag_179:\n        /* \"#utility.yul\":17570:17647   */\n      0x4e487b7100000000000000000000000000000000000000000000000000000000\n        /* \"#utility.yul\":17567:17568   */\n      0x00\n        /* \"#utility.yul\":17560:17648   */\n      mstore\n        /* \"#utility.yul\":17667:17671   */\n      0x22\n        /* \"#utility.yul\":17664:17665   */\n      0x04\n        /* \"#utility.yul\":17657:17672   */\n      mstore\n        /* \"#utility.yul\":17691:17695   */\n      0x24\n        /* \"#utility.yul\":17688:17689   */\n      0x00\n        /* \"#utility.yul\":17681:17696   */\n      revert\n        /* \"#utility.yul\":17708:18028   */\n    tag_77:\n        /* \"#utility.yul\":17752:17758   */\n      0x00\n        /* \"#utility.yul\":17789:17790   */\n      0x02\n        /* \"#utility.yul\":17783:17787   */\n      dup3\n        /* \"#utility.yul\":17779:17791   */\n      div\n        /* \"#utility.yul\":17769:17791   */\n      swap1\n      pop\n        /* \"#utility.yul\":17836:17837   */\n      0x01\n        /* \"#utility.yul\":17830:17834   */\n      dup3\n        /* \"#utility.yul\":17826:17838   */\n      and\n        /* \"#utility.yul\":17857:17875   */\n      dup1\n        /* \"#utility.yul\":17847:17928   */\n      tag_355\n      jumpi\n        /* \"#utility.yul\":17913:17917   */\n      0x7f\n        /* \"#utility.yul\":17905:17911   */\n      dup3\n        /* \"#utility.yul\":17901:17918   */\n      and\n        /* \"#utility.yul\":17891:17918   */\n      swap2\n      pop\n        /* \"#utility.yul\":17847:17928   */\n    tag_355:\n        /* \"#utility.yul\":17975:17977   */\n      0x20\n        /* \"#utility.yul\":17967:17973   */\n      dup3\n        /* \"#utility.yul\":17964:17978   */\n      lt\n        /* \"#utility.yul\":17944:17962   */\n      dup2\n        /* \"#utility.yul\":17941:17979   */\n      sub\n        /* \"#utility.yul\":17938:18022   */\n      tag_356\n      jumpi\n        /* \"#utility.yul\":17994:18012   */\n      tag_357\n      tag_179\n      jump\t// in\n    tag_357:\n        /* \"#utility.yul\":17938:18022   */\n    tag_356:\n        /* \"#utility.yul\":17759:18028   */\n      pop\n        /* \"#utility.yul\":17708:18028   */\n      swap2\n      swap1\n      pop\n      jump\t// out\n        /* \"#utility.yul\":18034:18255   */\n    tag_180:\n        /* \"#utility.yul\":18174:18208   */\n      0x4f6e6c792061646d696e2063616e20706572666f726d20746869732061637469\n        /* \"#utility.yul\":18170:18171   */\n      0x00\n        /* \"#utility.yul\":18162:18168   */\n      dup3\n        /* \"#utility.yul\":18158:18172   */\n      add\n        /* \"#utility.yul\":18151:18209   */\n      mstore\n        /* \"#utility.yul\":18243:18247   */\n      0x6f6e000000000000000000000000000000000000000000000000000000000000\n        /* \"#utility.yul\":18238:18240   */\n      0x20\n        /* \"#utility.yul\":18230:18236   */\n      dup3\n        /* \"#utility.yul\":18226:18241   */\n      add\n        /* \"#utility.yul\":18219:18248   */\n      mstore\n        /* \"#utility.yul\":18034:18255   */\n      pop\n      jump\t// out\n        /* \"#utility.yul\":18261:18627   */\n    tag_181:\n        /* \"#utility.yul\":18403:18406   */\n      0x00\n        /* \"#utility.yul\":18424:18491   */\n      tag_360\n        /* \"#utility.yul\":18488:18490   */\n      0x22\n        /* \"#utility.yul\":18483:18486   */\n      dup4\n        /* \"#utility.yul\":18424:18491   */\n      tag_140\n      jump\t// in\n    tag_360:\n        /* \"#utility.yul\":18417:18491   */\n      swap2\n      pop\n        /* \"#utility.yul\":18500:18593   */\n      tag_361\n        /* \"#utility.yul\":18589:18592   */\n      dup3\n        /* \"#utility.yul\":18500:18593   */\n      tag_180\n      jump\t// in\n    tag_361:\n        /* \"#utility.yul\":18618:18620   */\n      0x40\n        /* \"#utility.yul\":18613:18616   */\n      dup3\n        /* \"#utility.yul\":18609:18621   */\n      add\n        /* \"#utility.yul\":18602:18621   */\n      swap1\n      pop\n        /* \"#utility.yul\":18261:18627   */\n      swap2\n      swap1\n      pop\n      jump\t// out\n        /* \"#utility.yul\":18633:19052   */\n    tag_93:\n        /* \"#utility.yul\":18799:18803   */\n      0x00\n        /* \"#utility.yul\":18837:18839   */\n      0x20\n        /* \"#utility.yul\":18826:18835   */\n      dup3\n        /* \"#utility.yul\":18822:18840   */\n      add\n        /* \"#utility.yul\":18814:18840   */\n      swap1\n      pop\n        /* \"#utility.yul\":18886:18895   */\n      dup2\n        /* \"#utility.yul\":18880:18884   */\n      dup2\n        /* \"#utility.yul\":18876:18896   */\n      sub\n        /* \"#utility.yul\":18872:18873   */\n      0x00\n        /* \"#utility.yul\":18861:18870   */\n      dup4\n        /* \"#utility.yul\":18857:18874   */\n      add\n        /* \"#utility.yul\":18850:18897   */\n      mstore\n        /* \"#utility.yul\":18914:19045   */\n      tag_363\n        /* \"#utility.yul\":19040:19044   */\n      dup2\n        /* \"#utility.yul\":18914:19045   */\n      tag_181\n      jump\t// in\n    tag_363:\n        /* \"#utility.yul\":18906:19045   */\n      swap1\n      pop\n        /* \"#utility.yul\":18633:19052   */\n      swap2\n      swap1\n      pop\n      jump\t// out\n        /* \"#utility.yul\":19058:19235   */\n    tag_182:\n        /* \"#utility.yul\":19198:19227   */\n      0x566f74657220697320616c726561647920726567697374657265640000000000\n        /* \"#utility.yul\":19194:19195   */\n      0x00\n        /* \"#utility.yul\":19186:19192   */\n      dup3\n        /* \"#utility.yul\":19182:19196   */\n      add\n        /* \"#utility.yul\":19175:19228   */\n      mstore\n        /* \"#utility.yul\":19058:19235   */\n      pop\n      jump\t// out\n        /* \"#utility.yul\":19241:19607   */\n    tag_183:\n        /* \"#utility.yul\":19383:19386   */\n      0x00\n        /* \"#utility.yul\":19404:19471   */\n      tag_366\n        /* \"#utility.yul\":19468:19470   */\n      0x1b\n        /* \"#utility.yul\":19463:19466   */\n      dup4\n        /* \"#utility.yul\":19404:19471   */\n      tag_140\n      jump\t// in\n    tag_366:\n        /* \"#utility.yul\":19397:19471   */\n      swap2\n      pop\n        /* \"#utility.yul\":19480:19573   */\n      tag_367\n        /* \"#utility.yul\":19569:19572   */\n      dup3\n        /* \"#utility.yul\":19480:19573   */\n      tag_182\n      jump\t// in\n    tag_367:\n        /* \"#utility.yul\":19598:19600   */\n      0x20\n        /* \"#utility.yul\":19593:19596   */\n      dup3\n        /* \"#utility.yul\":19589:19601   */\n      add\n        /* \"#utility.yul\":19582:19601   */\n      swap1\n      pop\n        /* \"#utility.yul\":19241:19607   */\n      swap2\n      swap1\n      pop\n      jump\t// out\n        /* \"#utility.yul\":19613:20032   */\n    tag_97:\n        /* \"#utility.yul\":19779:19783   */\n      0x00\n        /* \"#utility.yul\":19817:19819   */\n      0x20\n        /* \"#utility.yul\":19806:19815   */\n      dup3\n        /* \"#utility.yul\":19802:19820   */\n      add\n        /* \"#utility.yul\":19794:19820   */\n      swap1\n      pop\n        /* \"#utility.yul\":19866:19875   */\n      dup2\n        /* \"#utility.yul\":19860:19864   */\n      dup2\n        /* \"#utility.yul\":19856:19876   */\n      sub\n        /* \"#utility.yul\":19852:19853   */\n      0x00\n        /* \"#utility.yul\":19841:19850   */\n      dup4\n        /* \"#utility.yul\":19837:19854   */\n      add\n        /* \"#utility.yul\":19830:19877   */\n      mstore\n        /* \"#utility.yul\":19894:20025   */\n      tag_369\n        /* \"#utility.yul\":20020:20024   */\n      dup2\n        /* \"#utility.yul\":19894:20025   */\n      tag_183\n      jump\t// in\n    tag_369:\n        /* \"#utility.yul\":19886:20025   */\n      swap1\n      pop\n        /* \"#utility.yul\":19613:20032   */\n      swap2\n      swap1\n      pop\n      jump\t// out\n        /* \"#utility.yul\":20038:20232   */\n    tag_115:\n        /* \"#utility.yul\":20078:20082   */\n      0x00\n        /* \"#utility.yul\":20098:20118   */\n      tag_371\n        /* \"#utility.yul\":20116:20117   */\n      dup3\n        /* \"#utility.yul\":20098:20118   */\n      tag_135\n      jump\t// in\n    tag_371:\n        /* \"#utility.yul\":20093:20118   */\n      swap2\n      pop\n        /* \"#utility.yul\":20132:20152   */\n      tag_372\n        /* \"#utility.yul\":20150:20151   */\n      dup4\n        /* \"#utility.yul\":20132:20152   */\n      tag_135\n      jump\t// in\n    tag_372:\n        /* \"#utility.yul\":20127:20152   */\n      swap3\n      pop\n        /* \"#utility.yul\":20176:20177   */\n      dup3\n        /* \"#utility.yul\":20173:20174   */\n      dup3\n        /* \"#utility.yul\":20169:20178   */\n      sub\n        /* \"#utility.yul\":20161:20178   */\n      swap1\n      pop\n        /* \"#utility.yul\":20200:20201   */\n      dup2\n        /* \"#utility.yul\":20194:20198   */\n      dup2\n        /* \"#utility.yul\":20191:20202   */\n      gt\n        /* \"#utility.yul\":20188:20225   */\n      iszero\n      tag_373\n      jumpi\n        /* \"#utility.yul\":20205:20223   */\n      tag_374\n      tag_178\n      jump\t// in\n    tag_374:\n        /* \"#utility.yul\":20188:20225   */\n    tag_373:\n        /* \"#utility.yul\":20038:20232   */\n      swap3\n      swap2\n      pop\n      pop\n      jump\t// out\n        /* \"#utility.yul\":20238:20418   */\n    tag_118:\n        /* \"#utility.yul\":20286:20363   */\n      0x4e487b7100000000000000000000000000000000000000000000000000000000\n        /* \"#utility.yul\":20283:20284   */\n      0x00\n        /* \"#utility.yul\":20276:20364   */\n      mstore\n        /* \"#utility.yul\":20383:20387   */\n      0x32\n        /* \"#utility.yul\":20380:20381   */\n      0x04\n        /* \"#utility.yul\":20373:20388   */\n      mstore\n        /* \"#utility.yul\":20407:20411   */\n      0x24\n        /* \"#utility.yul\":20404:20405   */\n      0x00\n        /* \"#utility.yul\":20397:20412   */\n      revert\n        /* \"#utility.yul\":20424:20565   */\n    tag_184:\n        /* \"#utility.yul\":20473:20477   */\n      0x00\n        /* \"#utility.yul\":20496:20499   */\n      dup2\n        /* \"#utility.yul\":20488:20499   */\n      swap1\n      pop\n        /* \"#utility.yul\":20519:20522   */\n      dup2\n        /* \"#utility.yul\":20516:20517   */\n      0x00\n        /* \"#utility.yul\":20509:20523   */\n      mstore\n        /* \"#utility.yul\":20553:20557   */\n      0x20\n        /* \"#utility.yul\":20550:20551   */\n      0x00\n        /* \"#utility.yul\":20540:20558   */\n      keccak256\n        /* \"#utility.yul\":20532:20558   */\n      swap1\n      pop\n        /* \"#utility.yul\":20424:20565   */\n      swap2\n      swap1\n      pop\n      jump\t// out\n        /* \"#utility.yul\":20571:20664   */\n    tag_185:\n        /* \"#utility.yul\":20608:20614   */\n      0x00\n        /* \"#utility.yul\":20655:20657   */\n      0x20\n        /* \"#utility.yul\":20650:20652   */\n      0x1f\n        /* \"#utility.yul\":20643:20648   */\n      dup4\n        /* \"#utility.yul\":20639:20653   */\n      add\n        /* \"#utility.yul\":20635:20658   */\n      div\n        /* \"#utility.yul\":20625:20658   */\n      swap1\n      pop\n        /* \"#utility.yul\":20571:20664   */\n      swap2\n      swap1\n      pop\n      jump\t// out\n        /* \"#utility.yul\":20670:20777   */\n    tag_186:\n        /* \"#utility.yul\":20714:20722   */\n      0x00\n        /* \"#utility.yul\":20764:20769   */\n      dup3\n        /* \"#utility.yul\":20758:20762   */\n      dup3\n        /* \"#utility.yul\":20754:20770   */\n      shl\n        /* \"#utility.yul\":20733:20770   */\n      swap1\n      pop\n        /* \"#utility.yul\":20670:20777   */\n      swap3\n      swap2\n      pop\n      pop\n      jump\t// out\n        /* \"#utility.yul\":20783:21176   */\n    tag_187:\n        /* \"#utility.yul\":20852:20858   */\n      0x00\n        /* \"#utility.yul\":20902:20903   */\n      0x08\n        /* \"#utility.yul\":20890:20900   */\n      dup4\n        /* \"#utility.yul\":20886:20904   */\n      mul\n        /* \"#utility.yul\":20925:21022   */\n      tag_380\n        /* \"#utility.yul\":20955:21021   */\n      0xffffffffffffffffffffffffffffffffffffffffffffffffffffffffffffffff\n        /* \"#utility.yul\":20944:20953   */\n      dup3\n        /* \"#utility.yul\":20925:21022   */\n      tag_186\n      jump\t// in\n    tag_380:\n        /* \"#utility.yul\":21043:21082   */\n      tag_381\n        /* \"#utility.yul\":21073:21081   */\n      dup7\n        /* \"#utility.yul\":21062:21071   */\n      dup4\n        /* \"#utility.yul\":21043:21082   */\n      tag_186\n      jump\t// in\n    tag_381:\n        /* \"#utility.yul\":21031:21082   */\n      swap6\n      pop\n        /* \"#utility.yul\":21115:21119   */\n      dup1\n        /* \"#utility.yul\":21111:21120   */\n      not\n        /* \"#utility.yul\":21104:21109   */\n      dup5\n        /* \"#utility.yul\":21100:21121   */\n      and\n        /* \"#utility.yul\":21091:21121   */\n      swap4\n      pop\n        /* \"#utility.yul\":21164:21168   */\n      dup1\n        /* \"#utility.yul\":21154:21162   */\n      dup7\n        /* \"#utility.yul\":21150:21169   */\n      and\n        /* \"#utility.yul\":21143:21148   */\n      dup5\n        /* \"#utility.yul\":21140:21170   */\n      or\n        /* \"#utility.yul\":21130:21170   */\n      swap3\n      pop\n        /* \"#utility.yul\":20859:21176   */\n      pop\n      pop\n        /* \"#utility.yul\":20783:21176   */\n      swap4\n      swap3\n      pop\n      pop\n      pop\n      jump\t// out\n        /* \"#utility.yul\":21182:21242   */\n    tag_188:\n        /* \"#utility.yul\":21210:21213   */\n      0x00\n        /* \"#utility.yul\":21231:21236   */\n      dup2\n        /* \"#utility.yul\":21224:21236   */\n      swap1\n      pop\n        /* \"#utility.yul\":21182:21242   */\n      swap2\n      swap1\n      pop\n      jump\t// out\n        /* \"#utility.yul\":21248:21390   */\n    tag_189:\n        /* \"#utility.yul\":21298:21307   */\n      0x00\n        /* \"#utility.yul\":21331:21384   */\n      tag_384\n        /* \"#utility.yul\":21349:21383   */\n      tag_385\n        /* \"#utility.yul\":21358:21382   */\n      tag_386\n        /* \"#utility.yul\":21376:21381   */\n      dup5\n        /* \"#utility.yul\":21358:21382   */\n      tag_135\n      jump\t// in\n    tag_386:\n        /* \"#utility.yul\":21349:21383   */\n      tag_188\n      jump\t// in\n    tag_385:\n        /* \"#utility.yul\":21331:21384   */\n      tag_135\n      jump\t// in\n    tag_384:\n        /* \"#utility.yul\":21318:21384   */\n      swap1\n      pop\n        /* \"#utility.yul\":21248:21390   */\n      swap2\n      swap1\n      pop\n      jump\t// out\n        /* \"#utility.yul\":21396:21471   */\n    tag_190:\n        /* \"#utility.yul\":21439:21442   */\n      0x00\n        /* \"#utility.yul\":21460:21465   */\n      dup2\n        /* \"#utility.yul\":21453:21465   */\n      swap1\n      pop\n        /* \"#utility.yul\":21396:21471   */\n      swap2\n      swap1\n      pop\n      jump\t// out\n        /* \"#utility.yul\":21477:21746   */\n    tag_191:\n        /* \"#utility.yul\":21587:21626   */\n      tag_389\n        /* \"#utility.yul\":21618:21625   */\n      dup4\n        /* \"#utility.yul\":21587:21626   */\n      tag_189\n      jump\t// in\n    tag_389:\n        /* \"#utility.yul\":21648:21739   */\n      tag_390\n        /* \"#utility.yul\":21697:21738   */\n      tag_391\n        /* \"#utility.yul\":21721:21737   */\n      dup3\n        /* \"#utility.yul\":21697:21738   */\n      tag_190\n      jump\t// in\n    tag_391:\n        /* \"#utility.yul\":21689:21695   */\n      dup5\n        /* \"#utility.yul\":21682:21686   */\n      dup5\n        /* \"#utility.yul\":21676:21687   */\n      sload\n        /* \"#utility.yul\":21648:21739   */\n      tag_187\n      jump\t// in\n    tag_390:\n        /* \"#utility.yul\":21642:21646   */\n      dup3\n        /* \"#utility.yul\":21635:21740   */\n      sstore\n        /* \"#utility.yul\":21553:21746   */\n      pop\n        /* \"#utility.yul\":21477:21746   */\n      pop\n      pop\n      pop\n      jump\t// out\n        /* \"#utility.yul\":21752:21825   */\n    tag_192:\n        /* \"#utility.yul\":21797:21800   */\n      0x00\n        /* \"#utility.yul\":21752:21825   */\n      swap1\n      jump\t// out\n        /* \"#utility.yul\":21831:22020   */\n    tag_193:\n        /* \"#utility.yul\":21908:21940   */\n      tag_394\n      tag_192\n      jump\t// in\n    tag_394:\n        /* \"#utility.yul\":21949:22014   */\n      tag_395\n        /* \"#utility.yul\":22007:22013   */\n      dup2\n        /* \"#utility.yul\":21999:22005   */\n      dup5\n        /* \"#utility.yul\":21993:21997   */\n      dup5\n        /* \"#utility.yul\":21949:22014   */\n      tag_191\n      jump\t// in\n    tag_395:\n        /* \"#utility.yul\":21884:22020   */\n      pop\n        /* \"#utility.yul\":21831:22020   */\n      pop\n      pop\n      jump\t// out\n        /* \"#utility.yul\":22026:22212   */\n    tag_194:\n        /* \"#utility.yul\":22086:22206   */\n    tag_397:\n        /* \"#utility.yul\":22103:22106   */\n      dup2\n        /* \"#utility.yul\":22096:22101   */\n      dup2\n        /* \"#utility.yul\":22093:22107   */\n      lt\n        /* \"#utility.yul\":22086:22206   */\n      iszero\n      tag_399\n      jumpi\n        /* \"#utility.yul\":22157:22196   */\n      tag_400\n        /* \"#utility.yul\":22194:22195   */\n      0x00\n        /* \"#utility.yul\":22187:22192   */\n      dup3\n        /* \"#utility.yul\":22157:22196   */\n      tag_193\n      jump\t// in\n    tag_400:\n        /* \"#utility.yul\":22130:22131   */\n      0x01\n        /* \"#utility.yul\":22123:22128   */\n      dup2\n        /* \"#utility.yul\":22119:22132   */\n      add\n        /* \"#utility.yul\":22110:22132   */\n      swap1\n      pop\n        /* \"#utility.yul\":22086:22206   */\n      jump(tag_397)\n    tag_399:\n        /* \"#utility.yul\":22026:22212   */\n      pop\n      pop\n      jump\t// out\n        /* \"#utility.yul\":22218:22761   */\n    tag_195:\n        /* \"#utility.yul\":22319:22321   */\n      0x1f\n        /* \"#utility.yul\":22314:22317   */\n      dup3\n        /* \"#utility.yul\":22311:22322   */\n      gt\n        /* \"#utility.yul\":22308:22754   */\n      iszero\n      tag_402\n      jumpi\n        /* \"#utility.yul\":22353:22391   */\n      tag_403\n        /* \"#utility.yul\":22385:22390   */\n      dup2\n        /* \"#utility.yul\":22353:22391   */\n      tag_184\n      jump\t// in\n    tag_403:\n        /* \"#utility.yul\":22437:22466   */\n      tag_404\n        /* \"#utility.yul\":22455:22465   */\n      dup5\n        /* \"#utility.yul\":22437:22466   */\n      tag_185\n      jump\t// in\n    tag_404:\n        /* \"#utility.yul\":22427:22435   */\n      dup2\n        /* \"#utility.yul\":22423:22467   */\n      add\n        /* \"#utility.yul\":22620:22622   */\n      0x20\n        /* \"#utility.yul\":22608:22618   */\n      dup6\n        /* \"#utility.yul\":22605:22623   */\n      lt\n        /* \"#utility.yul\":22602:22651   */\n      iszero\n      tag_405\n      jumpi\n        /* \"#utility.yul\":22641:22649   */\n      dup2\n        /* \"#utility.yul\":22626:22649   */\n      swap1\n      pop\n        /* \"#utility.yul\":22602:22651   */\n    tag_405:\n        /* \"#utility.yul\":22664:22744   */\n      tag_406\n        /* \"#utility.yul\":22720:22742   */\n      tag_407\n        /* \"#utility.yul\":22738:22741   */\n      dup6\n        /* \"#utility.yul\":22720:22742   */\n      tag_185\n      jump\t// in\n    tag_407:\n        /* \"#utility.yul\":22710:22718   */\n      dup4\n        /* \"#utility.yul\":22706:22743   */\n      add\n        /* \"#utility.yul\":22693:22704   */\n      dup3\n        /* \"#utility.yul\":22664:22744   */\n      tag_194\n      jump\t// in\n    tag_406:\n        /* \"#utility.yul\":22323:22754   */\n      pop\n      pop\n        /* \"#utility.yul\":22308:22754   */\n    tag_402:\n        /* \"#utility.yul\":22218:22761   */\n      pop\n      pop\n      pop\n      jump\t// out\n        /* \"#utility.yul\":22767:22884   */\n    tag_196:\n        /* \"#utility.yul\":22821:22829   */\n      0x00\n        /* \"#utility.yul\":22871:22876   */\n      dup3\n        /* \"#utility.yul\":22865:22869   */\n      dup3\n        /* \"#utility.yul\":22861:22877   */\n      shr\n        /* \"#utility.yul\":22840:22877   */\n      swap1\n      pop\n        /* \"#utility.yul\":22767:22884   */\n      swap3\n      swap2\n      pop\n      pop\n      jump\t// out\n        /* \"#utility.yul\":22890:23059   */\n    tag_197:\n        /* \"#utility.yul\":22934:22940   */\n      0x00\n        /* \"#utility.yul\":22967:23018   */\n      tag_410\n        /* \"#utility.yul\":23015:23016   */\n      0x00\n        /* \"#utility.yul\":23011:23017   */\n      not\n        /* \"#utility.yul\":23003:23008   */\n      dup5\n        /* \"#utility.yul\":23000:23001   */\n      0x08\n        /* \"#utility.yul\":22996:23009   */\n      mul\n        /* \"#utility.yul\":22967:23018   */\n      tag_196\n      jump\t// in\n    tag_410:\n        /* \"#utility.yul\":22963:23019   */\n      not\n        /* \"#utility.yul\":23048:23052   */\n      dup1\n        /* \"#utility.yul\":23042:23046   */\n      dup4\n        /* \"#utility.yul\":23038:23053   */\n      and\n        /* \"#utility.yul\":23028:23053   */\n      swap2\n      pop\n        /* \"#utility.yul\":22941:23059   */\n      pop\n        /* \"#utility.yul\":22890:23059   */\n      swap3\n      swap2\n      pop\n      pop\n      jump\t// out\n        /* \"#utility.yul\":23064:23359   */\n    tag_198:\n        /* \"#utility.yul\":23140:23144   */\n      0x00\n        /* \"#utility.yul\":23286:23315   */\n      tag_412\n        /* \"#utility.yul\":23311:23314   */\n      dup4\n        /* \"#utility.yul\":23305:23309   */\n      dup4\n        /* \"#utility.yul\":23286:23315   */\n      tag_197\n      jump\t// in\n    tag_412:\n        /* \"#utility.yul\":23278:23315   */\n      swap2\n      pop\n        /* \"#utility.yul\":23348:23351   */\n      dup3\n        /* \"#utility.yul\":23345:23346   */\n      0x02\n        /* \"#utility.yul\":23341:23352   */\n      mul\n        /* \"#utility.yul\":23335:23339   */\n      dup3\n        /* \"#utility.yul\":23332:23353   */\n      or\n        /* \"#utility.yul\":23324:23353   */\n      swap1\n      pop\n        /* \"#utility.yul\":23064:23359   */\n      swap3\n      swap2\n      pop\n      pop\n      jump\t// out\n        /* \"#utility.yul\":23364:24759   */\n    tag_126:\n        /* \"#utility.yul\":23481:23518   */\n      tag_414\n        /* \"#utility.yul\":23514:23517   */\n      dup3\n        /* \"#utility.yul\":23481:23518   */\n      tag_139\n      jump\t// in\n    tag_414:\n        /* \"#utility.yul\":23583:23601   */\n      0xffffffffffffffff\n        /* \"#utility.yul\":23575:23581   */\n      dup2\n        /* \"#utility.yul\":23572:23602   */\n      gt\n        /* \"#utility.yul\":23569:23625   */\n      iszero\n      tag_415\n      jumpi\n        /* \"#utility.yul\":23605:23623   */\n      tag_416\n      tag_102\n      jump\t// in\n    tag_416:\n        /* \"#utility.yul\":23569:23625   */\n    tag_415:\n        /* \"#utility.yul\":23649:23687   */\n      tag_417\n        /* \"#utility.yul\":23681:23685   */\n      dup3\n        /* \"#utility.yul\":23675:23686   */\n      sload\n        /* \"#utility.yul\":23649:23687   */\n      tag_77\n      jump\t// in\n    tag_417:\n        /* \"#utility.yul\":23734:23801   */\n      tag_418\n        /* \"#utility.yul\":23794:23800   */\n      dup3\n        /* \"#utility.yul\":23786:23792   */\n      dup3\n        /* \"#utility.yul\":23780:23784   */\n      dup6\n        /* \"#utility.yul\":23734:23801   */\n      tag_195\n      jump\t// in\n    tag_418:\n        /* \"#utility.yul\":23828:23829   */\n      0x00\n        /* \"#utility.yul\":23852:23856   */\n      0x20\n        /* \"#utility.yul\":23839:23856   */\n      swap1\n      pop\n        /* \"#utility.yul\":23884:23886   */\n      0x1f\n        /* \"#utility.yul\":23876:23882   */\n      dup4\n        /* \"#utility.yul\":23873:23887   */\n      gt\n        /* \"#utility.yul\":23901:23902   */\n      0x01\n        /* \"#utility.yul\":23896:24514   */\n      dup2\n      eq\n      tag_420\n      jumpi\n        /* \"#utility.yul\":24558:24559   */\n      0x00\n        /* \"#utility.yul\":24575:24581   */\n      dup5\n        /* \"#utility.yul\":24572:24649   */\n      iszero\n      tag_421\n      jumpi\n        /* \"#utility.yul\":24624:24633   */\n      dup3\n        /* \"#utility.yul\":24619:24622   */\n      dup8\n        /* \"#utility.yul\":24615:24634   */\n      add\n        /* \"#utility.yul\":24609:24635   */\n      mload\n        /* \"#utility.yul\":24600:24635   */\n      swap1\n      pop\n        /* \"#utility.yul\":24572:24649   */\n    tag_421:\n        /* \"#utility.yul\":24675:24742   */\n      tag_422\n        /* \"#utility.yul\":24735:24741   */\n      dup6\n        /* \"#utility.yul\":24728:24733   */\n      dup3\n        /* \"#utility.yul\":24675:24742   */\n      tag_198\n      jump\t// in\n    tag_422:\n        /* \"#utility.yul\":24669:24673   */\n      dup7\n        /* \"#utility.yul\":24662:24743   */\n      sstore\n        /* \"#utility.yul\":24531:24753   */\n      pop\n        /* \"#utility.yul\":23866:24753   */\n      jump(tag_419)\n        /* \"#utility.yul\":23896:24514   */\n    tag_420:\n        /* \"#utility.yul\":23948:23952   */\n      0x1f\n        /* \"#utility.yul\":23944:23953   */\n      not\n        /* \"#utility.yul\":23936:23942   */\n      dup5\n        /* \"#utility.yul\":23932:23954   */\n      and\n        /* \"#utility.yul\":23982:24019   */\n      tag_423\n        /* \"#utility.yul\":24014:24018   */\n      dup7\n        /* \"#utility.yul\":23982:24019   */\n      tag_184\n      jump\t// in\n    tag_423:\n        /* \"#utility.yul\":24041:24042   */\n      0x00\n        /* \"#utility.yul\":24055:24263   */\n    tag_424:\n        /* \"#utility.yul\":24069:24076   */\n      dup3\n        /* \"#utility.yul\":24066:24067   */\n      dup2\n        /* \"#utility.yul\":24063:24077   */\n      lt\n        /* \"#utility.yul\":24055:24263   */\n      iszero\n      tag_426\n      jumpi\n        /* \"#utility.yul\":24148:24157   */\n      dup5\n        /* \"#utility.yul\":24143:24146   */\n      dup10\n        /* \"#utility.yul\":24139:24158   */\n      add\n        /* \"#utility.yul\":24133:24159   */\n      mload\n        /* \"#utility.yul\":24125:24131   */\n      dup3\n        /* \"#utility.yul\":24118:24160   */\n      sstore\n        /* \"#utility.yul\":24199:24200   */\n      0x01\n        /* \"#utility.yul\":24191:24197   */\n      dup3\n        /* \"#utility.yul\":24187:24201   */\n      add\n        /* \"#utility.yul\":24177:24201   */\n      swap2\n      pop\n        /* \"#utility.yul\":24246:24248   */\n      0x20\n        /* \"#utility.yul\":24235:24244   */\n      dup6\n        /* \"#utility.yul\":24231:24249   */\n      add\n        /* \"#utility.yul\":24218:24249   */\n      swap5\n      pop\n        /* \"#utility.yul\":24092:24096   */\n      0x20\n        /* \"#utility.yul\":24089:24090   */\n      dup2\n        /* \"#utility.yul\":24085:24097   */\n      add\n        /* \"#utility.yul\":24080:24097   */\n      swap1\n      pop\n        /* \"#utility.yul\":24055:24263   */\n      jump(tag_424)\n    tag_426:\n        /* \"#utility.yul\":24291:24297   */\n      dup7\n        /* \"#utility.yul\":24282:24289   */\n      dup4\n        /* \"#utility.yul\":24279:24298   */\n      lt\n        /* \"#utility.yul\":24276:24455   */\n      iszero\n      tag_427\n      jumpi\n        /* \"#utility.yul\":24349:24358   */\n      dup5\n        /* \"#utility.yul\":24344:24347   */\n      dup10\n        /* \"#utility.yul\":24340:24359   */\n      add\n        /* \"#utility.yul\":24334:24360   */\n      mload\n        /* \"#utility.yul\":24392:24440   */\n      tag_428\n        /* \"#utility.yul\":24434:24438   */\n      0x1f\n        /* \"#utility.yul\":24426:24432   */\n      dup10\n        /* \"#utility.yul\":24422:24439   */\n      and\n        /* \"#utility.yul\":24411:24420   */\n      dup3\n        /* \"#utility.yul\":24392:24440   */\n      tag_197\n      jump\t// in\n    tag_428:\n        /* \"#utility.yul\":24384:24390   */\n      dup4\n        /* \"#utility.yul\":24377:24441   */\n      sstore\n        /* \"#utility.yul\":24299:24455   */\n      pop\n        /* \"#utility.yul\":24276:24455   */\n    tag_427:\n        /* \"#utility.yul\":24501:24502   */\n      0x01\n        /* \"#utility.yul\":24497:24498   */\n      0x02\n        /* \"#utility.yul\":24489:24495   */\n      dup9\n        /* \"#utility.yul\":24485:24499   */\n      mul\n        /* \"#utility.yul\":24481:24503   */\n      add\n        /* \"#utility.yul\":24475:24479   */\n      dup9\n        /* \"#utility.yul\":24468:24504   */\n      sstore\n        /* \"#utility.yul\":23903:24514   */\n      pop\n      pop\n      pop\n        /* \"#utility.yul\":23866:24753   */\n    tag_419:\n      pop\n        /* \"#utility.yul\":23456:24759   */\n      pop\n      pop\n      pop\n        /* \"#utility.yul\":23364:24759   */\n      pop\n      pop\n      jump\t// out\n        /* \"#utility.yul\":24765:25188   */\n    tag_128:\n        /* \"#utility.yul\":24906:24910   */\n      0x00\n        /* \"#utility.yul\":24944:24946   */\n      0x40\n        /* \"#utility.yul\":24933:24942   */\n      dup3\n        /* \"#utility.yul\":24929:24947   */\n      add\n        /* \"#utility.yul\":24921:24947   */\n      swap1\n      pop\n        /* \"#utility.yul\":24957:25028   */\n      tag_430\n        /* \"#utility.yul\":25025:25026   */\n      0x00\n        /* \"#utility.yul\":25014:25023   */\n      dup4\n        /* \"#utility.yul\":25010:25027   */\n      add\n        /* \"#utility.yul\":25001:25007   */\n      dup6\n        /* \"#utility.yul\":24957:25028   */\n      tag_138\n      jump\t// in\n    tag_430:\n        /* \"#utility.yul\":25075:25084   */\n      dup2\n        /* \"#utility.yul\":25069:25073   */\n      dup2\n        /* \"#utility.yul\":25065:25085   */\n      sub\n        /* \"#utility.yul\":25060:25062   */\n      0x20\n        /* \"#utility.yul\":25049:25058   */\n      dup4\n        /* \"#utility.yul\":25045:25063   */\n      add\n        /* \"#utility.yul\":25038:25086   */\n      mstore\n        /* \"#utility.yul\":25103:25181   */\n      tag_431\n        /* \"#utility.yul\":25176:25180   */\n      dup2\n        /* \"#utility.yul\":25167:25173   */\n      dup5\n        /* \"#utility.yul\":25103:25181   */\n      tag_143\n      jump\t// in\n    tag_431:\n        /* \"#utility.yul\":25095:25181   */\n      swap1\n      pop\n        /* \"#utility.yul\":24765:25188   */\n      swap4\n      swap3\n      pop\n      pop\n      pop\n      jump\t// out\n\n    auxdata: 0xa2646970667358221220fa94202fe41fe181c65fc2127de120f9c73928452492c8a68176829ebc12612964736f6c634300081a0033\n}\n",
				"bytecode": {
					"linkReferences": {},
					"object": "60806040525f6001555f6002553480156016575f80fd5b50335f806101000a81548173ffffffffffffffffffffffffffffffffffffffff021916908373ffffffffffffffffffffffffffffffffffffffff160217905550611846806100635f395ff3fe608060405234801561000f575f80fd5b50600436106100a7575f3560e01c80634717f97c1161006f5780634717f97c146101635780639eb88db614610181578063a3ec138d1461019d578063a9a981a3146101cf578063d4f50f98146101ed578063f851a4401461021d576100a7565b80630121b93f146100ab5780633477ee2e146100c757806335b8e820146100f957806338db6dd31461012957806342169e4814610145575b5f80fd5b6100c560048036038101906100c09190610c2e565b61023b565b005b6100e160048036038101906100dc9190610c2e565b6104aa565b6040516100f093929190610cd8565b60405180910390f35b610113600480360381019061010e9190610c2e565b610556565b6040516101209190610db8565b60405180910390f35b610143600480360381019061013e9190610e32565b610624565b005b61014d6107fd565b60405161015a9190610e5d565b60405180910390f35b61016b610803565b6040516101789190610f7e565b60405180910390f35b61019b600480360381019061019691906110ca565b610971565b005b6101b760048036038101906101b29190610e32565b610aae565b6040516101c69392919061112b565b60405180910390f35b6101d7610aec565b6040516101e49190610e5d565b60405180910390f35b61020760048036038101906102029190610e32565b610af2565b60405161021491906111af565b60405180910390f35b610225610b86565b60405161023291906111d7565b60405180910390f35b60045f3373ffffffffffffffffffffffffffffffffffffffff1673ffffffffffffffffffffffffffffffffffffffff1681526020019081526020015f205f015f9054906101000a900460ff166102c6576040517f08c379a00000000000000000000000000000000000000000000000000000000081526004016102bd9061123a565b60405180910390fd5b60045f3373ffffffffffffffffffffffffffffffffffffffff1673ffffffffffffffffffffffffffffffffffffffff1681526020019081526020015f205f0160019054906101000a900460ff1615610353576040517f08c379a000000000000000000000000000000000000000000000000000000000815260040161034a906112a2565b60405180910390fd5b8060035f8381526020019081526020015f205f0154146103a8576040517f08c379a000000000000000000000000000000000000000000000000000000000815260040161039f9061130a565b60405180910390fd5b600160045f3373ffffffffffffffffffffffffffffffffffffffff1673ffffffffffffffffffffffffffffffffffffffff1681526020019081526020015f205f0160016101000a81548160ff0219169083151502179055508060045f3373ffffffffffffffffffffffffffffffffffffffff1673ffffffffffffffffffffffffffffffffffffffff1681526020019081526020015f206001018190555060035f8281526020019081526020015f206002015f81548092919061046990611355565b91905055507fa36cc2bebb74db33e9f88110a07ef56e1b31b24b4c4f51b54b1664266e29f45b338260405161049f92919061139c565b60405180910390a150565b6003602052805f5260405f205f91509050805f0154908060010180546104cf906113f0565b80601f01602080910402602001604051908101604052809291908181526020018280546104fb906113f0565b80156105465780601f1061051d57610100808354040283529160200191610546565b820191905f5260205f20905b81548152906001019060200180831161052957829003601f168201915b5050505050908060020154905083565b61055e610ba9565b60035f8381526020019081526020015f206040518060600160405290815f8201548152602001600182018054610593906113f0565b80601f01602080910402602001604051908101604052809291908181526020018280546105bf906113f0565b801561060a5780601f106105e15761010080835404028352916020019161060a565b820191905f5260205f20905b8154815290600101906020018083116105ed57829003601f168201915b505050505081526020016002820154815250509050919050565b5f8054906101000a900473ffffffffffffffffffffffffffffffffffffffff1673ffffffffffffffffffffffffffffffffffffffff163373ffffffffffffffffffffffffffffffffffffffff16146106b1576040517f08c379a00000000000000000000000000000000000000000000000000000000081526004016106a890611490565b60405180910390fd5b60045f8273ffffffffffffffffffffffffffffffffffffffff1673ffffffffffffffffffffffffffffffffffffffff1681526020019081526020015f205f015f9054906101000a900460ff161561073d576040517f08c379a0000000000000000000000000000000000000000000000000000000008152600401610734906114f8565b60405180910390fd5b60405180606001604052806001151581526020015f151581526020015f81525060045f8373ffffffffffffffffffffffffffffffffffffffff1673ffffffffffffffffffffffffffffffffffffffff1681526020019081526020015f205f820151815f015f6101000a81548160ff0219169083151502179055506020820151815f0160016101000a81548160ff0219169083151502179055506040820151816001015590505060025f8154809291906107f590611355565b919050555050565b60025481565b60605f60015467ffffffffffffffff81111561082257610821610fa6565b5b60405190808252806020026020018201604052801561085b57816020015b610848610ba9565b8152602001906001900390816108405790505b5090505f600190505b60015481116109695760035f8281526020019081526020015f206040518060600160405290815f82015481526020016001820180546108a2906113f0565b80601f01602080910402602001604051908101604052809291908181526020018280546108ce906113f0565b80156109195780601f106108f057610100808354040283529160200191610919565b820191905f5260205f20905b8154815290600101906020018083116108fc57829003601f168201915b505050505081526020016002820154815250508260018361093a9190611516565b8151811061094b5761094a611549565b5b6020026020010181905250808061096190611355565b915050610864565b508091505090565b5f8054906101000a900473ffffffffffffffffffffffffffffffffffffffff1673ffffffffffffffffffffffffffffffffffffffff163373ffffffffffffffffffffffffffffffffffffffff16146109fe576040517f08c379a00000000000000000000000000000000000000000000000000000000081526004016109f590611490565b60405180910390fd5b60015f815480929190610a1090611355565b9190505550604051806060016040528060015481526020018281526020015f81525060035f60015481526020019081526020015f205f820151815f01556020820151816001019081610a629190611713565b50604082015181600201559050507f96b6e1d9af8279de0ae4d01600bcae708bdb292c4a8f8f150aff92f5caf56a4260015482604051610aa39291906117e2565b60405180910390a150565b6004602052805f5260405f205f91509050805f015f9054906101000a900460ff1690805f0160019054906101000a900460ff16908060010154905083565b60015481565b610afa610bc8565b60045f8373ffffffffffffffffffffffffffffffffffffffff1673ffffffffffffffffffffffffffffffffffffffff1681526020019081526020015f206040518060600160405290815f82015f9054906101000a900460ff161515151581526020015f820160019054906101000a900460ff161515151581526020016001820154815250509050919050565b5f8054906101000a900473ffffffffffffffffffffffffffffffffffffffff1681565b60405180606001604052805f8152602001606081526020015f81525090565b60405180606001604052805f151581526020015f151581526020015f81525090565b5f604051905090565b5f80fd5b5f80fd5b5f819050919050565b610c0d81610bfb565b8114610c17575f80fd5b50565b5f81359050610c2881610c04565b92915050565b5f60208284031215610c4357610c42610bf3565b5b5f610c5084828501610c1a565b91505092915050565b610c6281610bfb565b82525050565b5f81519050919050565b5f82825260208201905092915050565b8281835e5f83830152505050565b5f601f19601f8301169050919050565b5f610caa82610c68565b610cb48185610c72565b9350610cc4818560208601610c82565b610ccd81610c90565b840191505092915050565b5f606082019050610ceb5f830186610c59565b8181036020830152610cfd8185610ca0565b9050610d0c6040830184610c59565b949350505050565b610d1d81610bfb565b82525050565b5f82825260208201905092915050565b5f610d3d82610c68565b610d478185610d23565b9350610d57818560208601610c82565b610d6081610c90565b840191505092915050565b5f606083015f830151610d805f860182610d14565b5060208301518482036020860152610d988282610d33565b9150506040830151610dad6040860182610d14565b508091505092915050565b5f6020820190508181035f830152610dd08184610d6b565b905092915050565b5f73ffffffffffffffffffffffffffffffffffffffff82169050919050565b5f610e0182610dd8565b9050919050565b610e1181610df7565b8114610e1b575f80fd5b50565b5f81359050610e2c81610e08565b92915050565b5f60208284031215610e4757610e46610bf3565b5b5f610e5484828501610e1e565b91505092915050565b5f602082019050610e705f830184610c59565b92915050565b5f81519050919050565b5f82825260208201905092915050565b5f819050602082019050919050565b5f606083015f830151610eb45f860182610d14565b5060208301518482036020860152610ecc8282610d33565b9150506040830151610ee16040860182610d14565b508091505092915050565b5f610ef78383610e9f565b905092915050565b5f602082019050919050565b5f610f1582610e76565b610f1f8185610e80565b935083602082028501610f3185610e90565b805f5b85811015610f6c5784840389528151610f4d8582610eec565b9450610f5883610eff565b925060208a01995050600181019050610f34565b50829750879550505050505092915050565b5f6020820190508181035f830152610f968184610f0b565b905092915050565b5f80fd5b5f80fd5b7f4e487b71000000000000000000000000000000000000000000000000000000005f52604160045260245ffd5b610fdc82610c90565b810181811067ffffffffffffffff82111715610ffb57610ffa610fa6565b5b80604052505050565b5f61100d610bea565b90506110198282610fd3565b919050565b5f67ffffffffffffffff82111561103857611037610fa6565b5b61104182610c90565b9050602081019050919050565b828183375f83830152505050565b5f61106e6110698461101e565b611004565b90508281526020810184848401111561108a57611089610fa2565b5b61109584828561104e565b509392505050565b5f82601f8301126110b1576110b0610f9e565b5b81356110c184826020860161105c565b91505092915050565b5f602082840312156110df576110de610bf3565b5b5f82013567ffffffffffffffff8111156110fc576110fb610bf7565b5b6111088482850161109d565b91505092915050565b5f8115159050919050565b61112581611111565b82525050565b5f60608201905061113e5f83018661111c565b61114b602083018561111c565b6111586040830184610c59565b949350505050565b61116981611111565b82525050565b606082015f8201516111835f850182611160565b5060208201516111966020850182611160565b5060408201516111a96040850182610d14565b50505050565b5f6060820190506111c25f83018461116f565b92915050565b6111d181610df7565b82525050565b5f6020820190506111ea5f8301846111c8565b92915050565b7f4e6f742061207265676973746572656420766f746572000000000000000000005f82015250565b5f611224601683610c72565b915061122f826111f0565b602082019050919050565b5f6020820190508181035f83015261125181611218565b9050919050565b7f416c726561647920766f746564000000000000000000000000000000000000005f82015250565b5f61128c600d83610c72565b915061129782611258565b602082019050919050565b5f6020820190508181035f8301526112b981611280565b9050919050565b7f43616e646964617465206e6f7420666f756e64000000000000000000000000005f82015250565b5f6112f4601383610c72565b91506112ff826112c0565b602082019050919050565b5f6020820190508181035f830152611321816112e8565b9050919050565b7f4e487b71000000000000000000000000000000000000000000000000000000005f52601160045260245ffd5b5f61135f82610bfb565b91507fffffffffffffffffffffffffffffffffffffffffffffffffffffffffffffffff820361139157611390611328565b5b600182019050919050565b5f6040820190506113af5f8301856111c8565b6113bc6020830184610c59565b9392505050565b7f4e487b71000000000000000000000000000000000000000000000000000000005f52602260045260245ffd5b5f600282049050600182168061140757607f821691505b60208210810361141a576114196113c3565b5b50919050565b7f4f6e6c792061646d696e2063616e20706572666f726d207468697320616374695f8201527f6f6e000000000000000000000000000000000000000000000000000000000000602082015250565b5f61147a602283610c72565b915061148582611420565b604082019050919050565b5f6020820190508181035f8301526114a78161146e565b9050919050565b7f566f74657220697320616c7265616479207265676973746572656400000000005f82015250565b5f6114e2601b83610c72565b91506114ed826114ae565b602082019050919050565b5f6020820190508181035f83015261150f816114d6565b9050919050565b5f61152082610bfb565b915061152b83610bfb565b925082820390508181111561154357611542611328565b5b92915050565b7f4e487b71000000000000000000000000000000000000000000000000000000005f52603260045260245ffd5b5f819050815f5260205f209050919050565b5f6020601f8301049050919050565b5f82821b905092915050565b5f600883026115d27fffffffffffffffffffffffffffffffffffffffffffffffffffffffffffffffff82611597565b6115dc8683611597565b95508019841693508086168417925050509392505050565b5f819050919050565b5f61161761161261160d84610bfb565b6115f4565b610bfb565b9050919050565b5f819050919050565b611630836115fd565b61164461163c8261161e565b8484546115a3565b825550505050565b5f90565b61165861164c565b611663818484611627565b505050565b5b818110156116865761167b5f82611650565b600181019050611669565b5050565b601f8211156116cb5761169c81611576565b6116a584611588565b810160208510156116b4578190505b6116c86116c085611588565b830182611668565b50505b505050565b5f82821c905092915050565b5f6116eb5f19846008026116d0565b1980831691505092915050565b5f61170383836116dc565b9150826002028217905092915050565b61171c82610c68565b67ffffffffffffffff81111561173557611734610fa6565b5b61173f82546113f0565b61174a82828561168a565b5f60209050601f83116001811461177b575f8415611769578287015190505b61177385826116f8565b8655506117da565b601f19841661178986611576565b5f5b828110156117b05784890151825560018201915060208501945060208101905061178b565b868310156117cd57848901516117c9601f8916826116dc565b8355505b6001600288020188555050505b505050505050565b5f6040820190506117f55f830185610c59565b81810360208301526118078184610ca0565b9050939250505056fea2646970667358221220fa94202fe41fe181c65fc2127de120f9c73928452492c8a68176829ebc12612964736f6c634300081a0033",
					"opcodes": "PUSH1 0x80 PUSH1 0x40 MSTORE PUSH0 PUSH1 0x1 SSTORE PUSH0 PUSH1 0x2 SSTORE CALLVALUE DUP1 ISZERO PUSH1 0x16 JUMPI PUSH0 DUP1 REVERT JUMPDEST POP CALLER PUSH0 DUP1 PUSH2 0x100 EXP DUP2 SLOAD DUP2 PUSH20 0xFFFFFFFFFFFFFFFFFFFFFFFFFFFFFFFFFFFFFFFF MUL NOT AND SWAP1 DUP4 PUSH20 0xFFFFFFFFFFFFFFFFFFFFFFFFFFFFFFFFFFFFFFFF AND MUL OR SWAP1 SSTORE POP PUSH2 0x1846 DUP1 PUSH2 0x63 PUSH0 CODECOPY PUSH0 RETURN INVALID PUSH1 0x80 PUSH1 0x40 MSTORE CALLVALUE DUP1 ISZERO PUSH2 0xF JUMPI PUSH0 DUP1 REVERT JUMPDEST POP PUSH1 0x4 CALLDATASIZE LT PUSH2 0xA7 JUMPI PUSH0 CALLDATALOAD PUSH1 0xE0 SHR DUP1 PUSH4 0x4717F97C GT PUSH2 0x6F JUMPI DUP1 PUSH4 0x4717F97C EQ PUSH2 0x163 JUMPI DUP1 PUSH4 0x9EB88DB6 EQ PUSH2 0x181 JUMPI DUP1 PUSH4 0xA3EC138D EQ PUSH2 0x19D JUMPI DUP1 PUSH4 0xA9A981A3 EQ PUSH2 0x1CF JUMPI DUP1 PUSH4 0xD4F50F98 EQ PUSH2 0x1ED JUMPI DUP1 PUSH4 0xF851A440 EQ PUSH2 0x21D JUMPI PUSH2 0xA7 JUMP JUMPDEST DUP1 PUSH4 0x121B93F EQ PUSH2 0xAB JUMPI DUP1 PUSH4 0x3477EE2E EQ PUSH2 0xC7 JUMPI DUP1 PUSH4 0x35B8E820 EQ PUSH2 0xF9 JUMPI DUP1 PUSH4 0x38DB6DD3 EQ PUSH2 0x129 JUMPI DUP1 PUSH4 0x42169E48 EQ PUSH2 0x145 JUMPI JUMPDEST PUSH0 DUP1 REVERT JUMPDEST PUSH2 0xC5 PUSH1 0x4 DUP1 CALLDATASIZE SUB DUP2 ADD SWAP1 PUSH2 0xC0 SWAP2 SWAP1 PUSH2 0xC2E JUMP JUMPDEST PUSH2 0x23B JUMP JUMPDEST STOP JUMPDEST PUSH2 0xE1 PUSH1 0x4 DUP1 CALLDATASIZE SUB DUP2 ADD SWAP1 PUSH2 0xDC SWAP2 SWAP1 PUSH2 0xC2E JUMP JUMPDEST PUSH2 0x4AA JUMP JUMPDEST PUSH1 0x40 MLOAD PUSH2 0xF0 SWAP4 SWAP3 SWAP2 SWAP1 PUSH2 0xCD8 JUMP JUMPDEST PUSH1 0x40 MLOAD DUP1 SWAP2 SUB SWAP1 RETURN JUMPDEST PUSH2 0x113 PUSH1 0x4 DUP1 CALLDATASIZE SUB DUP2 ADD SWAP1 PUSH2 0x10E SWAP2 SWAP1 PUSH2 0xC2E JUMP JUMPDEST PUSH2 0x556 JUMP JUMPDEST PUSH1 0x40 MLOAD PUSH2 0x120 SWAP2 SWAP1 PUSH2 0xDB8 JUMP JUMPDEST PUSH1 0x40 MLOAD DUP1 SWAP2 SUB SWAP1 RETURN JUMPDEST PUSH2 0x143 PUSH1 0x4 DUP1 CALLDATASIZE SUB DUP2 ADD SWAP1 PUSH2 0x13E SWAP2 SWAP1 PUSH2 0xE32 JUMP JUMPDEST PUSH2 0x624 JUMP JUMPDEST STOP JUMPDEST PUSH2 0x14D PUSH2 0x7FD JUMP JUMPDEST PUSH1 0x40 MLOAD PUSH2 0x15A SWAP2 SWAP1 PUSH2 0xE5D JUMP JUMPDEST PUSH1 0x40 MLOAD DUP1 SWAP2 SUB SWAP1 RETURN JUMPDEST PUSH2 0x16B PUSH2 0x803 JUMP JUMPDEST PUSH1 0x40 MLOAD PUSH2 0x178 SWAP2 SWAP1 PUSH2 0xF7E JUMP JUMPDEST PUSH1 0x40 MLOAD DUP1 SWAP2 SUB SWAP1 RETURN JUMPDEST PUSH2 0x19B PUSH1 0x4 DUP1 CALLDATASIZE SUB DUP2 ADD SWAP1 PUSH2 0x196 SWAP2 SWAP1 PUSH2 0x10CA JUMP JUMPDEST PUSH2 0x971 JUMP JUMPDEST STOP JUMPDEST PUSH2 0x1B7 PUSH1 0x4 DUP1 CALLDATASIZE SUB DUP2 ADD SWAP1 PUSH2 0x1B2 SWAP2 SWAP1 PUSH2 0xE32 JUMP JUMPDEST PUSH2 0xAAE JUMP JUMPDEST PUSH1 0x40 MLOAD PUSH2 0x1C6 SWAP4 SWAP3 SWAP2 SWAP1 PUSH2 0x112B JUMP JUMPDEST PUSH1 0x40 MLOAD DUP1 SWAP2 SUB SWAP1 RETURN JUMPDEST PUSH2 0x1D7 PUSH2 0xAEC JUMP JUMPDEST PUSH1 0x40 MLOAD PUSH2 0x1E4 SWAP2 SWAP1 PUSH2 0xE5D JUMP JUMPDEST PUSH1 0x40 MLOAD DUP1 SWAP2 SUB SWAP1 RETURN JUMPDEST PUSH2 0x207 PUSH1 0x4 DUP1 CALLDATASIZE SUB DUP2 ADD SWAP1 PUSH2 0x202 SWAP2 SWAP1 PUSH2 0xE32 JUMP JUMPDEST PUSH2 0xAF2 JUMP JUMPDEST PUSH1 0x40 MLOAD PUSH2 0x214 SWAP2 SWAP1 PUSH2 0x11AF JUMP JUMPDEST PUSH1 0x40 MLOAD DUP1 SWAP2 SUB SWAP1 RETURN JUMPDEST PUSH2 0x225 PUSH2 0xB86 JUMP JUMPDEST PUSH1 0x40 MLOAD PUSH2 0x232 SWAP2 SWAP1 PUSH2 0x11D7 JUMP JUMPDEST PUSH1 0x40 MLOAD DUP1 SWAP2 SUB SWAP1 RETURN JUMPDEST PUSH1 0x4 PUSH0 CALLER PUSH20 0xFFFFFFFFFFFFFFFFFFFFFFFFFFFFFFFFFFFFFFFF AND PUSH20 0xFFFFFFFFFFFFFFFFFFFFFFFFFFFFFFFFFFFFFFFF AND DUP2 MSTORE PUSH1 0x20 ADD SWAP1 DUP2 MSTORE PUSH1 0x20 ADD PUSH0 KECCAK256 PUSH0 ADD PUSH0 SWAP1 SLOAD SWAP1 PUSH2 0x100 EXP SWAP1 DIV PUSH1 0xFF AND PUSH2 0x2C6 JUMPI PUSH1 0x40 MLOAD PUSH32 0x8C379A000000000000000000000000000000000000000000000000000000000 DUP2 MSTORE PUSH1 0x4 ADD PUSH2 0x2BD SWAP1 PUSH2 0x123A JUMP JUMPDEST PUSH1 0x40 MLOAD DUP1 SWAP2 SUB SWAP1 REVERT JUMPDEST PUSH1 0x4 PUSH0 CALLER PUSH20 0xFFFFFFFFFFFFFFFFFFFFFFFFFFFFFFFFFFFFFFFF AND PUSH20 0xFFFFFFFFFFFFFFFFFFFFFFFFFFFFFFFFFFFFFFFF AND DUP2 MSTORE PUSH1 0x20 ADD SWAP1 DUP2 MSTORE PUSH1 0x20 ADD PUSH0 KECCAK256 PUSH0 ADD PUSH1 0x1 SWAP1 SLOAD SWAP1 PUSH2 0x100 EXP SWAP1 DIV PUSH1 0xFF AND ISZERO PUSH2 0x353 JUMPI PUSH1 0x40 MLOAD PUSH32 0x8C379A000000000000000000000000000000000000000000000000000000000 DUP2 MSTORE PUSH1 0x4 ADD PUSH2 0x34A SWAP1 PUSH2 0x12A2 JUMP JUMPDEST PUSH1 0x40 MLOAD DUP1 SWAP2 SUB SWAP1 REVERT JUMPDEST DUP1 PUSH1 0x3 PUSH0 DUP4 DUP2 MSTORE PUSH1 0x20 ADD SWAP1 DUP2 MSTORE PUSH1 0x20 ADD PUSH0 KECCAK256 PUSH0 ADD SLOAD EQ PUSH2 0x3A8 JUMPI PUSH1 0x40 MLOAD PUSH32 0x8C379A000000000000000000000000000000000000000000000000000000000 DUP2 MSTORE PUSH1 0x4 ADD PUSH2 0x39F SWAP1 PUSH2 0x130A JUMP JUMPDEST PUSH1 0x40 MLOAD DUP1 SWAP2 SUB SWAP1 REVERT JUMPDEST PUSH1 0x1 PUSH1 0x4 PUSH0 CALLER PUSH20 0xFFFFFFFFFFFFFFFFFFFFFFFFFFFFFFFFFFFFFFFF AND PUSH20 0xFFFFFFFFFFFFFFFFFFFFFFFFFFFFFFFFFFFFFFFF AND DUP2 MSTORE PUSH1 0x20 ADD SWAP1 DUP2 MSTORE PUSH1 0x20 ADD PUSH0 KECCAK256 PUSH0 ADD PUSH1 0x1 PUSH2 0x100 EXP DUP2 SLOAD DUP2 PUSH1 0xFF MUL NOT AND SWAP1 DUP4 ISZERO ISZERO MUL OR SWAP1 SSTORE POP DUP1 PUSH1 0x4 PUSH0 CALLER PUSH20 0xFFFFFFFFFFFFFFFFFFFFFFFFFFFFFFFFFFFFFFFF AND PUSH20 0xFFFFFFFFFFFFFFFFFFFFFFFFFFFFFFFFFFFFFFFF AND DUP2 MSTORE PUSH1 0x20 ADD SWAP1 DUP2 MSTORE PUSH1 0x20 ADD PUSH0 KECCAK256 PUSH1 0x1 ADD DUP2 SWAP1 SSTORE POP PUSH1 0x3 PUSH0 DUP3 DUP2 MSTORE PUSH1 0x20 ADD SWAP1 DUP2 MSTORE PUSH1 0x20 ADD PUSH0 KECCAK256 PUSH1 0x2 ADD PUSH0 DUP2 SLOAD DUP1 SWAP3 SWAP2 SWAP1 PUSH2 0x469 SWAP1 PUSH2 0x1355 JUMP JUMPDEST SWAP2 SWAP1 POP SSTORE POP PUSH32 0xA36CC2BEBB74DB33E9F88110A07EF56E1B31B24B4C4F51B54B1664266E29F45B CALLER DUP3 PUSH1 0x40 MLOAD PUSH2 0x49F SWAP3 SWAP2 SWAP1 PUSH2 0x139C JUMP JUMPDEST PUSH1 0x40 MLOAD DUP1 SWAP2 SUB SWAP1 LOG1 POP JUMP JUMPDEST PUSH1 0x3 PUSH1 0x20 MSTORE DUP1 PUSH0 MSTORE PUSH1 0x40 PUSH0 KECCAK256 PUSH0 SWAP2 POP SWAP1 POP DUP1 PUSH0 ADD SLOAD SWAP1 DUP1 PUSH1 0x1 ADD DUP1 SLOAD PUSH2 0x4CF SWAP1 PUSH2 0x13F0 JUMP JUMPDEST DUP1 PUSH1 0x1F ADD PUSH1 0x20 DUP1 SWAP2 DIV MUL PUSH1 0x20 ADD PUSH1 0x40 MLOAD SWAP1 DUP2 ADD PUSH1 0x40 MSTORE DUP1 SWAP3 SWAP2 SWAP1 DUP2 DUP2 MSTORE PUSH1 0x20 ADD DUP3 DUP1 SLOAD PUSH2 0x4FB SWAP1 PUSH2 0x13F0 JUMP JUMPDEST DUP1 ISZERO PUSH2 0x546 JUMPI DUP1 PUSH1 0x1F LT PUSH2 0x51D JUMPI PUSH2 0x100 DUP1 DUP4 SLOAD DIV MUL DUP4 MSTORE SWAP2 PUSH1 0x20 ADD SWAP2 PUSH2 0x546 JUMP JUMPDEST DUP3 ADD SWAP2 SWAP1 PUSH0 MSTORE PUSH1 0x20 PUSH0 KECCAK256 SWAP1 JUMPDEST DUP2 SLOAD DUP2 MSTORE SWAP1 PUSH1 0x1 ADD SWAP1 PUSH1 0x20 ADD DUP1 DUP4 GT PUSH2 0x529 JUMPI DUP3 SWAP1 SUB PUSH1 0x1F AND DUP3 ADD SWAP2 JUMPDEST POP POP POP POP POP SWAP1 DUP1 PUSH1 0x2 ADD SLOAD SWAP1 POP DUP4 JUMP JUMPDEST PUSH2 0x55E PUSH2 0xBA9 JUMP JUMPDEST PUSH1 0x3 PUSH0 DUP4 DUP2 MSTORE PUSH1 0x20 ADD SWAP1 DUP2 MSTORE PUSH1 0x20 ADD PUSH0 KECCAK256 PUSH1 0x40 MLOAD DUP1 PUSH1 0x60 ADD PUSH1 0x40 MSTORE SWAP1 DUP2 PUSH0 DUP3 ADD SLOAD DUP2 MSTORE PUSH1 0x20 ADD PUSH1 0x1 DUP3 ADD DUP1 SLOAD PUSH2 0x593 SWAP1 PUSH2 0x13F0 JUMP JUMPDEST DUP1 PUSH1 0x1F ADD PUSH1 0x20 DUP1 SWAP2 DIV MUL PUSH1 0x20 ADD PUSH1 0x40 MLOAD SWAP1 DUP2 ADD PUSH1 0x40 MSTORE DUP1 SWAP3 SWAP2 SWAP1 DUP2 DUP2 MSTORE PUSH1 0x20 ADD DUP3 DUP1 SLOAD PUSH2 0x5BF SWAP1 PUSH2 0x13F0 JUMP JUMPDEST DUP1 ISZERO PUSH2 0x60A JUMPI DUP1 PUSH1 0x1F LT PUSH2 0x5E1 JUMPI PUSH2 0x100 DUP1 DUP4 SLOAD DIV MUL DUP4 MSTORE SWAP2 PUSH1 0x20 ADD SWAP2 PUSH2 0x60A JUMP JUMPDEST DUP3 ADD SWAP2 SWAP1 PUSH0 MSTORE PUSH1 0x20 PUSH0 KECCAK256 SWAP1 JUMPDEST DUP2 SLOAD DUP2 MSTORE SWAP1 PUSH1 0x1 ADD SWAP1 PUSH1 0x20 ADD DUP1 DUP4 GT PUSH2 0x5ED JUMPI DUP3 SWAP1 SUB PUSH1 0x1F AND DUP3 ADD SWAP2 JUMPDEST POP POP POP POP POP DUP2 MSTORE PUSH1 0x20 ADD PUSH1 0x2 DUP3 ADD SLOAD DUP2 MSTORE POP POP SWAP1 POP SWAP2 SWAP1 POP JUMP JUMPDEST PUSH0 DUP1 SLOAD SWAP1 PUSH2 0x100 EXP SWAP1 DIV PUSH20 0xFFFFFFFFFFFFFFFFFFFFFFFFFFFFFFFFFFFFFFFF AND PUSH20 0xFFFFFFFFFFFFFFFFFFFFFFFFFFFFFFFFFFFFFFFF AND CALLER PUSH20 0xFFFFFFFFFFFFFFFFFFFFFFFFFFFFFFFFFFFFFFFF AND EQ PUSH2 0x6B1 JUMPI PUSH1 0x40 MLOAD PUSH32 0x8C379A000000000000000000000000000000000000000000000000000000000 DUP2 MSTORE PUSH1 0x4 ADD PUSH2 0x6A8 SWAP1 PUSH2 0x1490 JUMP JUMPDEST PUSH1 0x40 MLOAD DUP1 SWAP2 SUB SWAP1 REVERT JUMPDEST PUSH1 0x4 PUSH0 DUP3 PUSH20 0xFFFFFFFFFFFFFFFFFFFFFFFFFFFFFFFFFFFFFFFF AND PUSH20 0xFFFFFFFFFFFFFFFFFFFFFFFFFFFFFFFFFFFFFFFF AND DUP2 MSTORE PUSH1 0x20 ADD SWAP1 DUP2 MSTORE PUSH1 0x20 ADD PUSH0 KECCAK256 PUSH0 ADD PUSH0 SWAP1 SLOAD SWAP1 PUSH2 0x100 EXP SWAP1 DIV PUSH1 0xFF AND ISZERO PUSH2 0x73D JUMPI PUSH1 0x40 MLOAD PUSH32 0x8C379A000000000000000000000000000000000000000000000000000000000 DUP2 MSTORE PUSH1 0x4 ADD PUSH2 0x734 SWAP1 PUSH2 0x14F8 JUMP JUMPDEST PUSH1 0x40 MLOAD DUP1 SWAP2 SUB SWAP1 REVERT JUMPDEST PUSH1 0x40 MLOAD DUP1 PUSH1 0x60 ADD PUSH1 0x40 MSTORE DUP1 PUSH1 0x1 ISZERO ISZERO DUP2 MSTORE PUSH1 0x20 ADD PUSH0 ISZERO ISZERO DUP2 MSTORE PUSH1 0x20 ADD PUSH0 DUP2 MSTORE POP PUSH1 0x4 PUSH0 DUP4 PUSH20 0xFFFFFFFFFFFFFFFFFFFFFFFFFFFFFFFFFFFFFFFF AND PUSH20 0xFFFFFFFFFFFFFFFFFFFFFFFFFFFFFFFFFFFFFFFF AND DUP2 MSTORE PUSH1 0x20 ADD SWAP1 DUP2 MSTORE PUSH1 0x20 ADD PUSH0 KECCAK256 PUSH0 DUP3 ADD MLOAD DUP2 PUSH0 ADD PUSH0 PUSH2 0x100 EXP DUP2 SLOAD DUP2 PUSH1 0xFF MUL NOT AND SWAP1 DUP4 ISZERO ISZERO MUL OR SWAP1 SSTORE POP PUSH1 0x20 DUP3 ADD MLOAD DUP2 PUSH0 ADD PUSH1 0x1 PUSH2 0x100 EXP DUP2 SLOAD DUP2 PUSH1 0xFF MUL NOT AND SWAP1 DUP4 ISZERO ISZERO MUL OR SWAP1 SSTORE POP PUSH1 0x40 DUP3 ADD MLOAD DUP2 PUSH1 0x1 ADD SSTORE SWAP1 POP POP PUSH1 0x2 PUSH0 DUP2 SLOAD DUP1 SWAP3 SWAP2 SWAP1 PUSH2 0x7F5 SWAP1 PUSH2 0x1355 JUMP JUMPDEST SWAP2 SWAP1 POP SSTORE POP POP JUMP JUMPDEST PUSH1 0x2 SLOAD DUP2 JUMP JUMPDEST PUSH1 0x60 PUSH0 PUSH1 0x1 SLOAD PUSH8 0xFFFFFFFFFFFFFFFF DUP2 GT ISZERO PUSH2 0x822 JUMPI PUSH2 0x821 PUSH2 0xFA6 JUMP JUMPDEST JUMPDEST PUSH1 0x40 MLOAD SWAP1 DUP1 DUP3 MSTORE DUP1 PUSH1 0x20 MUL PUSH1 0x20 ADD DUP3 ADD PUSH1 0x40 MSTORE DUP1 ISZERO PUSH2 0x85B JUMPI DUP2 PUSH1 0x20 ADD JUMPDEST PUSH2 0x848 PUSH2 0xBA9 JUMP JUMPDEST DUP2 MSTORE PUSH1 0x20 ADD SWAP1 PUSH1 0x1 SWAP1 SUB SWAP1 DUP2 PUSH2 0x840 JUMPI SWAP1 POP JUMPDEST POP SWAP1 POP PUSH0 PUSH1 0x1 SWAP1 POP JUMPDEST PUSH1 0x1 SLOAD DUP2 GT PUSH2 0x969 JUMPI PUSH1 0x3 PUSH0 DUP3 DUP2 MSTORE PUSH1 0x20 ADD SWAP1 DUP2 MSTORE PUSH1 0x20 ADD PUSH0 KECCAK256 PUSH1 0x40 MLOAD DUP1 PUSH1 0x60 ADD PUSH1 0x40 MSTORE SWAP1 DUP2 PUSH0 DUP3 ADD SLOAD DUP2 MSTORE PUSH1 0x20 ADD PUSH1 0x1 DUP3 ADD DUP1 SLOAD PUSH2 0x8A2 SWAP1 PUSH2 0x13F0 JUMP JUMPDEST DUP1 PUSH1 0x1F ADD PUSH1 0x20 DUP1 SWAP2 DIV MUL PUSH1 0x20 ADD PUSH1 0x40 MLOAD SWAP1 DUP2 ADD PUSH1 0x40 MSTORE DUP1 SWAP3 SWAP2 SWAP1 DUP2 DUP2 MSTORE PUSH1 0x20 ADD DUP3 DUP1 SLOAD PUSH2 0x8CE SWAP1 PUSH2 0x13F0 JUMP JUMPDEST DUP1 ISZERO PUSH2 0x919 JUMPI DUP1 PUSH1 0x1F LT PUSH2 0x8F0 JUMPI PUSH2 0x100 DUP1 DUP4 SLOAD DIV MUL DUP4 MSTORE SWAP2 PUSH1 0x20 ADD SWAP2 PUSH2 0x919 JUMP JUMPDEST DUP3 ADD SWAP2 SWAP1 PUSH0 MSTORE PUSH1 0x20 PUSH0 KECCAK256 SWAP1 JUMPDEST DUP2 SLOAD DUP2 MSTORE SWAP1 PUSH1 0x1 ADD SWAP1 PUSH1 0x20 ADD DUP1 DUP4 GT PUSH2 0x8FC JUMPI DUP3 SWAP1 SUB PUSH1 0x1F AND DUP3 ADD SWAP2 JUMPDEST POP POP POP POP POP DUP2 MSTORE PUSH1 0x20 ADD PUSH1 0x2 DUP3 ADD SLOAD DUP2 MSTORE POP POP DUP3 PUSH1 0x1 DUP4 PUSH2 0x93A SWAP2 SWAP1 PUSH2 0x1516 JUMP JUMPDEST DUP2 MLOAD DUP2 LT PUSH2 0x94B JUMPI PUSH2 0x94A PUSH2 0x1549 JUMP JUMPDEST JUMPDEST PUSH1 0x20 MUL PUSH1 0x20 ADD ADD DUP2 SWAP1 MSTORE POP DUP1 DUP1 PUSH2 0x961 SWAP1 PUSH2 0x1355 JUMP JUMPDEST SWAP2 POP POP PUSH2 0x864 JUMP JUMPDEST POP DUP1 SWAP2 POP POP SWAP1 JUMP JUMPDEST PUSH0 DUP1 SLOAD SWAP1 PUSH2 0x100 EXP SWAP1 DIV PUSH20 0xFFFFFFFFFFFFFFFFFFFFFFFFFFFFFFFFFFFFFFFF AND PUSH20 0xFFFFFFFFFFFFFFFFFFFFFFFFFFFFFFFFFFFFFFFF AND CALLER PUSH20 0xFFFFFFFFFFFFFFFFFFFFFFFFFFFFFFFFFFFFFFFF AND EQ PUSH2 0x9FE JUMPI PUSH1 0x40 MLOAD PUSH32 0x8C379A000000000000000000000000000000000000000000000000000000000 DUP2 MSTORE PUSH1 0x4 ADD PUSH2 0x9F5 SWAP1 PUSH2 0x1490 JUMP JUMPDEST PUSH1 0x40 MLOAD DUP1 SWAP2 SUB SWAP1 REVERT JUMPDEST PUSH1 0x1 PUSH0 DUP2 SLOAD DUP1 SWAP3 SWAP2 SWAP1 PUSH2 0xA10 SWAP1 PUSH2 0x1355 JUMP JUMPDEST SWAP2 SWAP1 POP SSTORE POP PUSH1 0x40 MLOAD DUP1 PUSH1 0x60 ADD PUSH1 0x40 MSTORE DUP1 PUSH1 0x1 SLOAD DUP2 MSTORE PUSH1 0x20 ADD DUP3 DUP2 MSTORE PUSH1 0x20 ADD PUSH0 DUP2 MSTORE POP PUSH1 0x3 PUSH0 PUSH1 0x1 SLOAD DUP2 MSTORE PUSH1 0x20 ADD SWAP1 DUP2 MSTORE PUSH1 0x20 ADD PUSH0 KECCAK256 PUSH0 DUP3 ADD MLOAD DUP2 PUSH0 ADD SSTORE PUSH1 0x20 DUP3 ADD MLOAD DUP2 PUSH1 0x1 ADD SWAP1 DUP2 PUSH2 0xA62 SWAP2 SWAP1 PUSH2 0x1713 JUMP JUMPDEST POP PUSH1 0x40 DUP3 ADD MLOAD DUP2 PUSH1 0x2 ADD SSTORE SWAP1 POP POP PUSH32 0x96B6E1D9AF8279DE0AE4D01600BCAE708BDB292C4A8F8F150AFF92F5CAF56A42 PUSH1 0x1 SLOAD DUP3 PUSH1 0x40 MLOAD PUSH2 0xAA3 SWAP3 SWAP2 SWAP1 PUSH2 0x17E2 JUMP JUMPDEST PUSH1 0x40 MLOAD DUP1 SWAP2 SUB SWAP1 LOG1 POP JUMP JUMPDEST PUSH1 0x4 PUSH1 0x20 MSTORE DUP1 PUSH0 MSTORE PUSH1 0x40 PUSH0 KECCAK256 PUSH0 SWAP2 POP SWAP1 POP DUP1 PUSH0 ADD PUSH0 SWAP1 SLOAD SWAP1 PUSH2 0x100 EXP SWAP1 DIV PUSH1 0xFF AND SWAP1 DUP1 PUSH0 ADD PUSH1 0x1 SWAP1 SLOAD SWAP1 PUSH2 0x100 EXP SWAP1 DIV PUSH1 0xFF AND SWAP1 DUP1 PUSH1 0x1 ADD SLOAD SWAP1 POP DUP4 JUMP JUMPDEST PUSH1 0x1 SLOAD DUP2 JUMP JUMPDEST PUSH2 0xAFA PUSH2 0xBC8 JUMP JUMPDEST PUSH1 0x4 PUSH0 DUP4 PUSH20 0xFFFFFFFFFFFFFFFFFFFFFFFFFFFFFFFFFFFFFFFF AND PUSH20 0xFFFFFFFFFFFFFFFFFFFFFFFFFFFFFFFFFFFFFFFF AND DUP2 MSTORE PUSH1 0x20 ADD SWAP1 DUP2 MSTORE PUSH1 0x20 ADD PUSH0 KECCAK256 PUSH1 0x40 MLOAD DUP1 PUSH1 0x60 ADD PUSH1 0x40 MSTORE SWAP1 DUP2 PUSH0 DUP3 ADD PUSH0 SWAP1 SLOAD SWAP1 PUSH2 0x100 EXP SWAP1 DIV PUSH1 0xFF AND ISZERO ISZERO ISZERO ISZERO DUP2 MSTORE PUSH1 0x20 ADD PUSH0 DUP3 ADD PUSH1 0x1 SWAP1 SLOAD SWAP1 PUSH2 0x100 EXP SWAP1 DIV PUSH1 0xFF AND ISZERO ISZERO ISZERO ISZERO DUP2 MSTORE PUSH1 0x20 ADD PUSH1 0x1 DUP3 ADD SLOAD DUP2 MSTORE POP POP SWAP1 POP SWAP2 SWAP1 POP JUMP JUMPDEST PUSH0 DUP1 SLOAD SWAP1 PUSH2 0x100 EXP SWAP1 DIV PUSH20 0xFFFFFFFFFFFFFFFFFFFFFFFFFFFFFFFFFFFFFFFF AND DUP2 JUMP JUMPDEST PUSH1 0x40 MLOAD DUP1 PUSH1 0x60 ADD PUSH1 0x40 MSTORE DUP1 PUSH0 DUP2 MSTORE PUSH1 0x20 ADD PUSH1 0x60 DUP2 MSTORE PUSH1 0x20 ADD PUSH0 DUP2 MSTORE POP SWAP1 JUMP JUMPDEST PUSH1 0x40 MLOAD DUP1 PUSH1 0x60 ADD PUSH1 0x40 MSTORE DUP1 PUSH0 ISZERO ISZERO DUP2 MSTORE PUSH1 0x20 ADD PUSH0 ISZERO ISZERO DUP2 MSTORE PUSH1 0x20 ADD PUSH0 DUP2 MSTORE POP SWAP1 JUMP JUMPDEST PUSH0 PUSH1 0x40 MLOAD SWAP1 POP SWAP1 JUMP JUMPDEST PUSH0 DUP1 REVERT JUMPDEST PUSH0 DUP1 REVERT JUMPDEST PUSH0 DUP2 SWAP1 POP SWAP2 SWAP1 POP JUMP JUMPDEST PUSH2 0xC0D DUP2 PUSH2 0xBFB JUMP JUMPDEST DUP2 EQ PUSH2 0xC17 JUMPI PUSH0 DUP1 REVERT JUMPDEST POP JUMP JUMPDEST PUSH0 DUP2 CALLDATALOAD SWAP1 POP PUSH2 0xC28 DUP2 PUSH2 0xC04 JUMP JUMPDEST SWAP3 SWAP2 POP POP JUMP JUMPDEST PUSH0 PUSH1 0x20 DUP3 DUP5 SUB SLT ISZERO PUSH2 0xC43 JUMPI PUSH2 0xC42 PUSH2 0xBF3 JUMP JUMPDEST JUMPDEST PUSH0 PUSH2 0xC50 DUP5 DUP3 DUP6 ADD PUSH2 0xC1A JUMP JUMPDEST SWAP2 POP POP SWAP3 SWAP2 POP POP JUMP JUMPDEST PUSH2 0xC62 DUP2 PUSH2 0xBFB JUMP JUMPDEST DUP3 MSTORE POP POP JUMP JUMPDEST PUSH0 DUP2 MLOAD SWAP1 POP SWAP2 SWAP1 POP JUMP JUMPDEST PUSH0 DUP3 DUP3 MSTORE PUSH1 0x20 DUP3 ADD SWAP1 POP SWAP3 SWAP2 POP POP JUMP JUMPDEST DUP3 DUP2 DUP4 MCOPY PUSH0 DUP4 DUP4 ADD MSTORE POP POP POP JUMP JUMPDEST PUSH0 PUSH1 0x1F NOT PUSH1 0x1F DUP4 ADD AND SWAP1 POP SWAP2 SWAP1 POP JUMP JUMPDEST PUSH0 PUSH2 0xCAA DUP3 PUSH2 0xC68 JUMP JUMPDEST PUSH2 0xCB4 DUP2 DUP6 PUSH2 0xC72 JUMP JUMPDEST SWAP4 POP PUSH2 0xCC4 DUP2 DUP6 PUSH1 0x20 DUP7 ADD PUSH2 0xC82 JUMP JUMPDEST PUSH2 0xCCD DUP2 PUSH2 0xC90 JUMP JUMPDEST DUP5 ADD SWAP2 POP POP SWAP3 SWAP2 POP POP JUMP JUMPDEST PUSH0 PUSH1 0x60 DUP3 ADD SWAP1 POP PUSH2 0xCEB PUSH0 DUP4 ADD DUP7 PUSH2 0xC59 JUMP JUMPDEST DUP2 DUP2 SUB PUSH1 0x20 DUP4 ADD MSTORE PUSH2 0xCFD DUP2 DUP6 PUSH2 0xCA0 JUMP JUMPDEST SWAP1 POP PUSH2 0xD0C PUSH1 0x40 DUP4 ADD DUP5 PUSH2 0xC59 JUMP JUMPDEST SWAP5 SWAP4 POP POP POP POP JUMP JUMPDEST PUSH2 0xD1D DUP2 PUSH2 0xBFB JUMP JUMPDEST DUP3 MSTORE POP POP JUMP JUMPDEST PUSH0 DUP3 DUP3 MSTORE PUSH1 0x20 DUP3 ADD SWAP1 POP SWAP3 SWAP2 POP POP JUMP JUMPDEST PUSH0 PUSH2 0xD3D DUP3 PUSH2 0xC68 JUMP JUMPDEST PUSH2 0xD47 DUP2 DUP6 PUSH2 0xD23 JUMP JUMPDEST SWAP4 POP PUSH2 0xD57 DUP2 DUP6 PUSH1 0x20 DUP7 ADD PUSH2 0xC82 JUMP JUMPDEST PUSH2 0xD60 DUP2 PUSH2 0xC90 JUMP JUMPDEST DUP5 ADD SWAP2 POP POP SWAP3 SWAP2 POP POP JUMP JUMPDEST PUSH0 PUSH1 0x60 DUP4 ADD PUSH0 DUP4 ADD MLOAD PUSH2 0xD80 PUSH0 DUP7 ADD DUP3 PUSH2 0xD14 JUMP JUMPDEST POP PUSH1 0x20 DUP4 ADD MLOAD DUP5 DUP3 SUB PUSH1 0x20 DUP7 ADD MSTORE PUSH2 0xD98 DUP3 DUP3 PUSH2 0xD33 JUMP JUMPDEST SWAP2 POP POP PUSH1 0x40 DUP4 ADD MLOAD PUSH2 0xDAD PUSH1 0x40 DUP7 ADD DUP3 PUSH2 0xD14 JUMP JUMPDEST POP DUP1 SWAP2 POP POP SWAP3 SWAP2 POP POP JUMP JUMPDEST PUSH0 PUSH1 0x20 DUP3 ADD SWAP1 POP DUP2 DUP2 SUB PUSH0 DUP4 ADD MSTORE PUSH2 0xDD0 DUP2 DUP5 PUSH2 0xD6B JUMP JUMPDEST SWAP1 POP SWAP3 SWAP2 POP POP JUMP JUMPDEST PUSH0 PUSH20 0xFFFFFFFFFFFFFFFFFFFFFFFFFFFFFFFFFFFFFFFF DUP3 AND SWAP1 POP SWAP2 SWAP1 POP JUMP JUMPDEST PUSH0 PUSH2 0xE01 DUP3 PUSH2 0xDD8 JUMP JUMPDEST SWAP1 POP SWAP2 SWAP1 POP JUMP JUMPDEST PUSH2 0xE11 DUP2 PUSH2 0xDF7 JUMP JUMPDEST DUP2 EQ PUSH2 0xE1B JUMPI PUSH0 DUP1 REVERT JUMPDEST POP JUMP JUMPDEST PUSH0 DUP2 CALLDATALOAD SWAP1 POP PUSH2 0xE2C DUP2 PUSH2 0xE08 JUMP JUMPDEST SWAP3 SWAP2 POP POP JUMP JUMPDEST PUSH0 PUSH1 0x20 DUP3 DUP5 SUB SLT ISZERO PUSH2 0xE47 JUMPI PUSH2 0xE46 PUSH2 0xBF3 JUMP JUMPDEST JUMPDEST PUSH0 PUSH2 0xE54 DUP5 DUP3 DUP6 ADD PUSH2 0xE1E JUMP JUMPDEST SWAP2 POP POP SWAP3 SWAP2 POP POP JUMP JUMPDEST PUSH0 PUSH1 0x20 DUP3 ADD SWAP1 POP PUSH2 0xE70 PUSH0 DUP4 ADD DUP5 PUSH2 0xC59 JUMP JUMPDEST SWAP3 SWAP2 POP POP JUMP JUMPDEST PUSH0 DUP2 MLOAD SWAP1 POP SWAP2 SWAP1 POP JUMP JUMPDEST PUSH0 DUP3 DUP3 MSTORE PUSH1 0x20 DUP3 ADD SWAP1 POP SWAP3 SWAP2 POP POP JUMP JUMPDEST PUSH0 DUP2 SWAP1 POP PUSH1 0x20 DUP3 ADD SWAP1 POP SWAP2 SWAP1 POP JUMP JUMPDEST PUSH0 PUSH1 0x60 DUP4 ADD PUSH0 DUP4 ADD MLOAD PUSH2 0xEB4 PUSH0 DUP7 ADD DUP3 PUSH2 0xD14 JUMP JUMPDEST POP PUSH1 0x20 DUP4 ADD MLOAD DUP5 DUP3 SUB PUSH1 0x20 DUP7 ADD MSTORE PUSH2 0xECC DUP3 DUP3 PUSH2 0xD33 JUMP JUMPDEST SWAP2 POP POP PUSH1 0x40 DUP4 ADD MLOAD PUSH2 0xEE1 PUSH1 0x40 DUP7 ADD DUP3 PUSH2 0xD14 JUMP JUMPDEST POP DUP1 SWAP2 POP POP SWAP3 SWAP2 POP POP JUMP JUMPDEST PUSH0 PUSH2 0xEF7 DUP4 DUP4 PUSH2 0xE9F JUMP JUMPDEST SWAP1 POP SWAP3 SWAP2 POP POP JUMP JUMPDEST PUSH0 PUSH1 0x20 DUP3 ADD SWAP1 POP SWAP2 SWAP1 POP JUMP JUMPDEST PUSH0 PUSH2 0xF15 DUP3 PUSH2 0xE76 JUMP JUMPDEST PUSH2 0xF1F DUP2 DUP6 PUSH2 0xE80 JUMP JUMPDEST SWAP4 POP DUP4 PUSH1 0x20 DUP3 MUL DUP6 ADD PUSH2 0xF31 DUP6 PUSH2 0xE90 JUMP JUMPDEST DUP1 PUSH0 JUMPDEST DUP6 DUP2 LT ISZERO PUSH2 0xF6C JUMPI DUP5 DUP5 SUB DUP10 MSTORE DUP2 MLOAD PUSH2 0xF4D DUP6 DUP3 PUSH2 0xEEC JUMP JUMPDEST SWAP5 POP PUSH2 0xF58 DUP4 PUSH2 0xEFF JUMP JUMPDEST SWAP3 POP PUSH1 0x20 DUP11 ADD SWAP10 POP POP PUSH1 0x1 DUP2 ADD SWAP1 POP PUSH2 0xF34 JUMP JUMPDEST POP DUP3 SWAP8 POP DUP8 SWAP6 POP POP POP POP POP POP SWAP3 SWAP2 POP POP JUMP JUMPDEST PUSH0 PUSH1 0x20 DUP3 ADD SWAP1 POP DUP2 DUP2 SUB PUSH0 DUP4 ADD MSTORE PUSH2 0xF96 DUP2 DUP5 PUSH2 0xF0B JUMP JUMPDEST SWAP1 POP SWAP3 SWAP2 POP POP JUMP JUMPDEST PUSH0 DUP1 REVERT JUMPDEST PUSH0 DUP1 REVERT JUMPDEST PUSH32 0x4E487B7100000000000000000000000000000000000000000000000000000000 PUSH0 MSTORE PUSH1 0x41 PUSH1 0x4 MSTORE PUSH1 0x24 PUSH0 REVERT JUMPDEST PUSH2 0xFDC DUP3 PUSH2 0xC90 JUMP JUMPDEST DUP2 ADD DUP2 DUP2 LT PUSH8 0xFFFFFFFFFFFFFFFF DUP3 GT OR ISZERO PUSH2 0xFFB JUMPI PUSH2 0xFFA PUSH2 0xFA6 JUMP JUMPDEST JUMPDEST DUP1 PUSH1 0x40 MSTORE POP POP POP JUMP JUMPDEST PUSH0 PUSH2 0x100D PUSH2 0xBEA JUMP JUMPDEST SWAP1 POP PUSH2 0x1019 DUP3 DUP3 PUSH2 0xFD3 JUMP JUMPDEST SWAP2 SWAP1 POP JUMP JUMPDEST PUSH0 PUSH8 0xFFFFFFFFFFFFFFFF DUP3 GT ISZERO PUSH2 0x1038 JUMPI PUSH2 0x1037 PUSH2 0xFA6 JUMP JUMPDEST JUMPDEST PUSH2 0x1041 DUP3 PUSH2 0xC90 JUMP JUMPDEST SWAP1 POP PUSH1 0x20 DUP2 ADD SWAP1 POP SWAP2 SWAP1 POP JUMP JUMPDEST DUP3 DUP2 DUP4 CALLDATACOPY PUSH0 DUP4 DUP4 ADD MSTORE POP POP POP JUMP JUMPDEST PUSH0 PUSH2 0x106E PUSH2 0x1069 DUP5 PUSH2 0x101E JUMP JUMPDEST PUSH2 0x1004 JUMP JUMPDEST SWAP1 POP DUP3 DUP2 MSTORE PUSH1 0x20 DUP2 ADD DUP5 DUP5 DUP5 ADD GT ISZERO PUSH2 0x108A JUMPI PUSH2 0x1089 PUSH2 0xFA2 JUMP JUMPDEST JUMPDEST PUSH2 0x1095 DUP5 DUP3 DUP6 PUSH2 0x104E JUMP JUMPDEST POP SWAP4 SWAP3 POP POP POP JUMP JUMPDEST PUSH0 DUP3 PUSH1 0x1F DUP4 ADD SLT PUSH2 0x10B1 JUMPI PUSH2 0x10B0 PUSH2 0xF9E JUMP JUMPDEST JUMPDEST DUP2 CALLDATALOAD PUSH2 0x10C1 DUP5 DUP3 PUSH1 0x20 DUP7 ADD PUSH2 0x105C JUMP JUMPDEST SWAP2 POP POP SWAP3 SWAP2 POP POP JUMP JUMPDEST PUSH0 PUSH1 0x20 DUP3 DUP5 SUB SLT ISZERO PUSH2 0x10DF JUMPI PUSH2 0x10DE PUSH2 0xBF3 JUMP JUMPDEST JUMPDEST PUSH0 DUP3 ADD CALLDATALOAD PUSH8 0xFFFFFFFFFFFFFFFF DUP2 GT ISZERO PUSH2 0x10FC JUMPI PUSH2 0x10FB PUSH2 0xBF7 JUMP JUMPDEST JUMPDEST PUSH2 0x1108 DUP5 DUP3 DUP6 ADD PUSH2 0x109D JUMP JUMPDEST SWAP2 POP POP SWAP3 SWAP2 POP POP JUMP JUMPDEST PUSH0 DUP2 ISZERO ISZERO SWAP1 POP SWAP2 SWAP1 POP JUMP JUMPDEST PUSH2 0x1125 DUP2 PUSH2 0x1111 JUMP JUMPDEST DUP3 MSTORE POP POP JUMP JUMPDEST PUSH0 PUSH1 0x60 DUP3 ADD SWAP1 POP PUSH2 0x113E PUSH0 DUP4 ADD DUP7 PUSH2 0x111C JUMP JUMPDEST PUSH2 0x114B PUSH1 0x20 DUP4 ADD DUP6 PUSH2 0x111C JUMP JUMPDEST PUSH2 0x1158 PUSH1 0x40 DUP4 ADD DUP5 PUSH2 0xC59 JUMP JUMPDEST SWAP5 SWAP4 POP POP POP POP JUMP JUMPDEST PUSH2 0x1169 DUP2 PUSH2 0x1111 JUMP JUMPDEST DUP3 MSTORE POP POP JUMP JUMPDEST PUSH1 0x60 DUP3 ADD PUSH0 DUP3 ADD MLOAD PUSH2 0x1183 PUSH0 DUP6 ADD DUP3 PUSH2 0x1160 JUMP JUMPDEST POP PUSH1 0x20 DUP3 ADD MLOAD PUSH2 0x1196 PUSH1 0x20 DUP6 ADD DUP3 PUSH2 0x1160 JUMP JUMPDEST POP PUSH1 0x40 DUP3 ADD MLOAD PUSH2 0x11A9 PUSH1 0x40 DUP6 ADD DUP3 PUSH2 0xD14 JUMP JUMPDEST POP POP POP POP JUMP JUMPDEST PUSH0 PUSH1 0x60 DUP3 ADD SWAP1 POP PUSH2 0x11C2 PUSH0 DUP4 ADD DUP5 PUSH2 0x116F JUMP JUMPDEST SWAP3 SWAP2 POP POP JUMP JUMPDEST PUSH2 0x11D1 DUP2 PUSH2 0xDF7 JUMP JUMPDEST DUP3 MSTORE POP POP JUMP JUMPDEST PUSH0 PUSH1 0x20 DUP3 ADD SWAP1 POP PUSH2 0x11EA PUSH0 DUP4 ADD DUP5 PUSH2 0x11C8 JUMP JUMPDEST SWAP3 SWAP2 POP POP JUMP JUMPDEST PUSH32 0x4E6F742061207265676973746572656420766F74657200000000000000000000 PUSH0 DUP3 ADD MSTORE POP JUMP JUMPDEST PUSH0 PUSH2 0x1224 PUSH1 0x16 DUP4 PUSH2 0xC72 JUMP JUMPDEST SWAP2 POP PUSH2 0x122F DUP3 PUSH2 0x11F0 JUMP JUMPDEST PUSH1 0x20 DUP3 ADD SWAP1 POP SWAP2 SWAP1 POP JUMP JUMPDEST PUSH0 PUSH1 0x20 DUP3 ADD SWAP1 POP DUP2 DUP2 SUB PUSH0 DUP4 ADD MSTORE PUSH2 0x1251 DUP2 PUSH2 0x1218 JUMP JUMPDEST SWAP1 POP SWAP2 SWAP1 POP JUMP JUMPDEST PUSH32 0x416C726561647920766F74656400000000000000000000000000000000000000 PUSH0 DUP3 ADD MSTORE POP JUMP JUMPDEST PUSH0 PUSH2 0x128C PUSH1 0xD DUP4 PUSH2 0xC72 JUMP JUMPDEST SWAP2 POP PUSH2 0x1297 DUP3 PUSH2 0x1258 JUMP JUMPDEST PUSH1 0x20 DUP3 ADD SWAP1 POP SWAP2 SWAP1 POP JUMP JUMPDEST PUSH0 PUSH1 0x20 DUP3 ADD SWAP1 POP DUP2 DUP2 SUB PUSH0 DUP4 ADD MSTORE PUSH2 0x12B9 DUP2 PUSH2 0x1280 JUMP JUMPDEST SWAP1 POP SWAP2 SWAP1 POP JUMP JUMPDEST PUSH32 0x43616E646964617465206E6F7420666F756E6400000000000000000000000000 PUSH0 DUP3 ADD MSTORE POP JUMP JUMPDEST PUSH0 PUSH2 0x12F4 PUSH1 0x13 DUP4 PUSH2 0xC72 JUMP JUMPDEST SWAP2 POP PUSH2 0x12FF DUP3 PUSH2 0x12C0 JUMP JUMPDEST PUSH1 0x20 DUP3 ADD SWAP1 POP SWAP2 SWAP1 POP JUMP JUMPDEST PUSH0 PUSH1 0x20 DUP3 ADD SWAP1 POP DUP2 DUP2 SUB PUSH0 DUP4 ADD MSTORE PUSH2 0x1321 DUP2 PUSH2 0x12E8 JUMP JUMPDEST SWAP1 POP SWAP2 SWAP1 POP JUMP JUMPDEST PUSH32 0x4E487B7100000000000000000000000000000000000000000000000000000000 PUSH0 MSTORE PUSH1 0x11 PUSH1 0x4 MSTORE PUSH1 0x24 PUSH0 REVERT JUMPDEST PUSH0 PUSH2 0x135F DUP3 PUSH2 0xBFB JUMP JUMPDEST SWAP2 POP PUSH32 0xFFFFFFFFFFFFFFFFFFFFFFFFFFFFFFFFFFFFFFFFFFFFFFFFFFFFFFFFFFFFFFFF DUP3 SUB PUSH2 0x1391 JUMPI PUSH2 0x1390 PUSH2 0x1328 JUMP JUMPDEST JUMPDEST PUSH1 0x1 DUP3 ADD SWAP1 POP SWAP2 SWAP1 POP JUMP JUMPDEST PUSH0 PUSH1 0x40 DUP3 ADD SWAP1 POP PUSH2 0x13AF PUSH0 DUP4 ADD DUP6 PUSH2 0x11C8 JUMP JUMPDEST PUSH2 0x13BC PUSH1 0x20 DUP4 ADD DUP5 PUSH2 0xC59 JUMP JUMPDEST SWAP4 SWAP3 POP POP POP JUMP JUMPDEST PUSH32 0x4E487B7100000000000000000000000000000000000000000000000000000000 PUSH0 MSTORE PUSH1 0x22 PUSH1 0x4 MSTORE PUSH1 0x24 PUSH0 REVERT JUMPDEST PUSH0 PUSH1 0x2 DUP3 DIV SWAP1 POP PUSH1 0x1 DUP3 AND DUP1 PUSH2 0x1407 JUMPI PUSH1 0x7F DUP3 AND SWAP2 POP JUMPDEST PUSH1 0x20 DUP3 LT DUP2 SUB PUSH2 0x141A JUMPI PUSH2 0x1419 PUSH2 0x13C3 JUMP JUMPDEST JUMPDEST POP SWAP2 SWAP1 POP JUMP JUMPDEST PUSH32 0x4F6E6C792061646D696E2063616E20706572666F726D20746869732061637469 PUSH0 DUP3 ADD MSTORE PUSH32 0x6F6E000000000000000000000000000000000000000000000000000000000000 PUSH1 0x20 DUP3 ADD MSTORE POP JUMP JUMPDEST PUSH0 PUSH2 0x147A PUSH1 0x22 DUP4 PUSH2 0xC72 JUMP JUMPDEST SWAP2 POP PUSH2 0x1485 DUP3 PUSH2 0x1420 JUMP JUMPDEST PUSH1 0x40 DUP3 ADD SWAP1 POP SWAP2 SWAP1 POP JUMP JUMPDEST PUSH0 PUSH1 0x20 DUP3 ADD SWAP1 POP DUP2 DUP2 SUB PUSH0 DUP4 ADD MSTORE PUSH2 0x14A7 DUP2 PUSH2 0x146E JUMP JUMPDEST SWAP1 POP SWAP2 SWAP1 POP JUMP JUMPDEST PUSH32 0x566F74657220697320616C726561647920726567697374657265640000000000 PUSH0 DUP3 ADD MSTORE POP JUMP JUMPDEST PUSH0 PUSH2 0x14E2 PUSH1 0x1B DUP4 PUSH2 0xC72 JUMP JUMPDEST SWAP2 POP PUSH2 0x14ED DUP3 PUSH2 0x14AE JUMP JUMPDEST PUSH1 0x20 DUP3 ADD SWAP1 POP SWAP2 SWAP1 POP JUMP JUMPDEST PUSH0 PUSH1 0x20 DUP3 ADD SWAP1 POP DUP2 DUP2 SUB PUSH0 DUP4 ADD MSTORE PUSH2 0x150F DUP2 PUSH2 0x14D6 JUMP JUMPDEST SWAP1 POP SWAP2 SWAP1 POP JUMP JUMPDEST PUSH0 PUSH2 0x1520 DUP3 PUSH2 0xBFB JUMP JUMPDEST SWAP2 POP PUSH2 0x152B DUP4 PUSH2 0xBFB JUMP JUMPDEST SWAP3 POP DUP3 DUP3 SUB SWAP1 POP DUP2 DUP2 GT ISZERO PUSH2 0x1543 JUMPI PUSH2 0x1542 PUSH2 0x1328 JUMP JUMPDEST JUMPDEST SWAP3 SWAP2 POP POP JUMP JUMPDEST PUSH32 0x4E487B7100000000000000000000000000000000000000000000000000000000 PUSH0 MSTORE PUSH1 0x32 PUSH1 0x4 MSTORE PUSH1 0x24 PUSH0 REVERT JUMPDEST PUSH0 DUP2 SWAP1 POP DUP2 PUSH0 MSTORE PUSH1 0x20 PUSH0 KECCAK256 SWAP1 POP SWAP2 SWAP1 POP JUMP JUMPDEST PUSH0 PUSH1 0x20 PUSH1 0x1F DUP4 ADD DIV SWAP1 POP SWAP2 SWAP1 POP JUMP JUMPDEST PUSH0 DUP3 DUP3 SHL SWAP1 POP SWAP3 SWAP2 POP POP JUMP JUMPDEST PUSH0 PUSH1 0x8 DUP4 MUL PUSH2 0x15D2 PUSH32 0xFFFFFFFFFFFFFFFFFFFFFFFFFFFFFFFFFFFFFFFFFFFFFFFFFFFFFFFFFFFFFFFF DUP3 PUSH2 0x1597 JUMP JUMPDEST PUSH2 0x15DC DUP7 DUP4 PUSH2 0x1597 JUMP JUMPDEST SWAP6 POP DUP1 NOT DUP5 AND SWAP4 POP DUP1 DUP7 AND DUP5 OR SWAP3 POP POP POP SWAP4 SWAP3 POP POP POP JUMP JUMPDEST PUSH0 DUP2 SWAP1 POP SWAP2 SWAP1 POP JUMP JUMPDEST PUSH0 PUSH2 0x1617 PUSH2 0x1612 PUSH2 0x160D DUP5 PUSH2 0xBFB JUMP JUMPDEST PUSH2 0x15F4 JUMP JUMPDEST PUSH2 0xBFB JUMP JUMPDEST SWAP1 POP SWAP2 SWAP1 POP JUMP JUMPDEST PUSH0 DUP2 SWAP1 POP SWAP2 SWAP1 POP JUMP JUMPDEST PUSH2 0x1630 DUP4 PUSH2 0x15FD JUMP JUMPDEST PUSH2 0x1644 PUSH2 0x163C DUP3 PUSH2 0x161E JUMP JUMPDEST DUP5 DUP5 SLOAD PUSH2 0x15A3 JUMP JUMPDEST DUP3 SSTORE POP POP POP POP JUMP JUMPDEST PUSH0 SWAP1 JUMP JUMPDEST PUSH2 0x1658 PUSH2 0x164C JUMP JUMPDEST PUSH2 0x1663 DUP2 DUP5 DUP5 PUSH2 0x1627 JUMP JUMPDEST POP POP POP JUMP JUMPDEST JUMPDEST DUP2 DUP2 LT ISZERO PUSH2 0x1686 JUMPI PUSH2 0x167B PUSH0 DUP3 PUSH2 0x1650 JUMP JUMPDEST PUSH1 0x1 DUP2 ADD SWAP1 POP PUSH2 0x1669 JUMP JUMPDEST POP POP JUMP JUMPDEST PUSH1 0x1F DUP3 GT ISZERO PUSH2 0x16CB JUMPI PUSH2 0x169C DUP2 PUSH2 0x1576 JUMP JUMPDEST PUSH2 0x16A5 DUP5 PUSH2 0x1588 JUMP JUMPDEST DUP2 ADD PUSH1 0x20 DUP6 LT ISZERO PUSH2 0x16B4 JUMPI DUP2 SWAP1 POP JUMPDEST PUSH2 0x16C8 PUSH2 0x16C0 DUP6 PUSH2 0x1588 JUMP JUMPDEST DUP4 ADD DUP3 PUSH2 0x1668 JUMP JUMPDEST POP POP JUMPDEST POP POP POP JUMP JUMPDEST PUSH0 DUP3 DUP3 SHR SWAP1 POP SWAP3 SWAP2 POP POP JUMP JUMPDEST PUSH0 PUSH2 0x16EB PUSH0 NOT DUP5 PUSH1 0x8 MUL PUSH2 0x16D0 JUMP JUMPDEST NOT DUP1 DUP4 AND SWAP2 POP POP SWAP3 SWAP2 POP POP JUMP JUMPDEST PUSH0 PUSH2 0x1703 DUP4 DUP4 PUSH2 0x16DC JUMP JUMPDEST SWAP2 POP DUP3 PUSH1 0x2 MUL DUP3 OR SWAP1 POP SWAP3 SWAP2 POP POP JUMP JUMPDEST PUSH2 0x171C DUP3 PUSH2 0xC68 JUMP JUMPDEST PUSH8 0xFFFFFFFFFFFFFFFF DUP2 GT ISZERO PUSH2 0x1735 JUMPI PUSH2 0x1734 PUSH2 0xFA6 JUMP JUMPDEST JUMPDEST PUSH2 0x173F DUP3 SLOAD PUSH2 0x13F0 JUMP JUMPDEST PUSH2 0x174A DUP3 DUP3 DUP6 PUSH2 0x168A JUMP JUMPDEST PUSH0 PUSH1 0x20 SWAP1 POP PUSH1 0x1F DUP4 GT PUSH1 0x1 DUP2 EQ PUSH2 0x177B JUMPI PUSH0 DUP5 ISZERO PUSH2 0x1769 JUMPI DUP3 DUP8 ADD MLOAD SWAP1 POP JUMPDEST PUSH2 0x1773 DUP6 DUP3 PUSH2 0x16F8 JUMP JUMPDEST DUP7 SSTORE POP PUSH2 0x17DA JUMP JUMPDEST PUSH1 0x1F NOT DUP5 AND PUSH2 0x1789 DUP7 PUSH2 0x1576 JUMP JUMPDEST PUSH0 JUMPDEST DUP3 DUP2 LT ISZERO PUSH2 0x17B0 JUMPI DUP5 DUP10 ADD MLOAD DUP3 SSTORE PUSH1 0x1 DUP3 ADD SWAP2 POP PUSH1 0x20 DUP6 ADD SWAP5 POP PUSH1 0x20 DUP2 ADD SWAP1 POP PUSH2 0x178B JUMP JUMPDEST DUP7 DUP4 LT ISZERO PUSH2 0x17CD JUMPI DUP5 DUP10 ADD MLOAD PUSH2 0x17C9 PUSH1 0x1F DUP10 AND DUP3 PUSH2 0x16DC JUMP JUMPDEST DUP4 SSTORE POP JUMPDEST PUSH1 0x1 PUSH1 0x2 DUP9 MUL ADD DUP9 SSTORE POP POP POP JUMPDEST POP POP POP POP POP POP JUMP JUMPDEST PUSH0 PUSH1 0x40 DUP3 ADD SWAP1 POP PUSH2 0x17F5 PUSH0 DUP4 ADD DUP6 PUSH2 0xC59 JUMP JUMPDEST DUP2 DUP2 SUB PUSH1 0x20 DUP4 ADD MSTORE PUSH2 0x1807 DUP2 DUP5 PUSH2 0xCA0 JUMP JUMPDEST SWAP1 POP SWAP4 SWAP3 POP POP POP JUMP INVALID LOG2 PUSH5 0x6970667358 0x22 SLT KECCAK256 STATICCALL SWAP5 KECCAK256 0x2F 0xE4 0x1F 0xE1 DUP2 0xC6 PUSH0 0xC2 SLT PUSH30 0xE120F9C73928452492C8A68176829EBC12612964736F6C634300081A0033 "
				},
				"gasEstimates": {
					"creation": {
						"codeDepositCost": "1242800",
						"executionCost": "35568",
						"totalCost": "1278368"
					},
					"external": {
						"admin()": "2615",
						"candidateCount()": "2491",
						"candidates(uint256)": "infinite",
						"getCandidate(uint256)": "infinite",
						"getResults()": "infinite",
						"getVoter(address)": "infinite",
						"registerCandidate(string)": "infinite",
						"registerVoter(address)": "83100",
						"vote(uint256)": "infinite",
						"voterCount()": "2514",
						"voters(address)": "infinite"
					}
				},
				"methodIdentifiers": {
					"admin()": "f851a440",
					"candidateCount()": "a9a981a3",
					"candidates(uint256)": "3477ee2e",
					"getCandidate(uint256)": "35b8e820",
					"getResults()": "4717f97c",
					"getVoter(address)": "d4f50f98",
					"registerCandidate(string)": "9eb88db6",
					"registerVoter(address)": "38db6dd3",
					"vote(uint256)": "0121b93f",
					"voterCount()": "42169e48",
					"voters(address)": "a3ec138d"
				}
			},
			"storageLayout": {
				"storage": [
					{
						"astId": 17,
						"contract": "contracts/ClassRepVoting.sol:ClassRepresentativeVoting",
						"label": "admin",
						"offset": 0,
						"slot": "0",
						"type": "t_address"
					},
					{
						"astId": 20,
						"contract": "contracts/ClassRepVoting.sol:ClassRepresentativeVoting",
						"label": "candidateCount",
						"offset": 0,
						"slot": "1",
						"type": "t_uint256"
					},
					{
						"astId": 23,
						"contract": "contracts/ClassRepVoting.sol:ClassRepresentativeVoting",
						"label": "voterCount",
						"offset": 0,
						"slot": "2",
						"type": "t_uint256"
					},
					{
						"astId": 28,
						"contract": "contracts/ClassRepVoting.sol:ClassRepresentativeVoting",
						"label": "candidates",
						"offset": 0,
						"slot": "3",
						"type": "t_mapping(t_uint256,t_struct(Candidate)8_storage)"
					},
					{
						"astId": 33,
						"contract": "contracts/ClassRepVoting.sol:ClassRepresentativeVoting",
						"label": "voters",
						"offset": 0,
						"slot": "4",
						"type": "t_mapping(t_address,t_struct(Voter)15_storage)"
					}
				],
				"types": {
					"t_address": {
						"encoding": "inplace",
						"label": "address",
						"numberOfBytes": "20"
					},
					"t_bool": {
						"encoding": "inplace",
						"label": "bool",
						"numberOfBytes": "1"
					},
					"t_mapping(t_address,t_struct(Voter)15_storage)": {
						"encoding": "mapping",
						"key": "t_address",
						"label": "mapping(address => struct ClassRepresentativeVoting.Voter)",
						"numberOfBytes": "32",
						"value": "t_struct(Voter)15_storage"
					},
					"t_mapping(t_uint256,t_struct(Candidate)8_storage)": {
						"encoding": "mapping",
						"key": "t_uint256",
						"label": "mapping(uint256 => struct ClassRepresentativeVoting.Candidate)",
						"numberOfBytes": "32",
						"value": "t_struct(Candidate)8_storage"
					},
					"t_string_storage": {
						"encoding": "bytes",
						"label": "string",
						"numberOfBytes": "32"
					},
					"t_struct(Candidate)8_storage": {
						"encoding": "inplace",
						"label": "struct ClassRepresentativeVoting.Candidate",
						"members": [
							{
								"astId": 3,
								"contract": "contracts/ClassRepVoting.sol:ClassRepresentativeVoting",
								"label": "id",
								"offset": 0,
								"slot": "0",
								"type": "t_uint256"
							},
							{
								"astId": 5,
								"contract": "contracts/ClassRepVoting.sol:ClassRepresentativeVoting",
								"label": "name",
								"offset": 0,
								"slot": "1",
								"type": "t_string_storage"
							},
							{
								"astId": 7,
								"contract": "contracts/ClassRepVoting.sol:ClassRepresentativeVoting",
								"label": "voteCount",
								"offset": 0,
								"slot": "2",
								"type": "t_uint256"
							}
						],
						"numberOfBytes": "96"
					},
					"t_struct(Voter)15_storage": {
						"encoding": "inplace",
						"label": "struct ClassRepresentativeVoting.Voter",
						"members": [
							{
								"astId": 10,
								"contract": "contracts/ClassRepVoting.sol:ClassRepresentativeVoting",
								"label": "registered",
								"offset": 0,
								"slot": "0",
								"type": "t_bool"
							},
							{
								"astId": 12,
								"contract": "contracts/ClassRepVoting.sol:ClassRepresentativeVoting",
								"label": "voted",
								"offset": 1,
								"slot": "0",
								"type": "t_bool"
							},
							{
								"astId": 14,
								"contract": "contracts/ClassRepVoting.sol:ClassRepresentativeVoting",
								"label": "vote",
								"offset": 0,
								"slot": "1",
								"type": "t_uint256"
							}
						],
						"numberOfBytes": "64"
					},
					"t_uint256": {
						"encoding": "inplace",
						"label": "uint256",
						"numberOfBytes": "32"
					}
				}
			},
			"userdoc": {
				"kind": "user",
				"methods": {},
				"version": 1
			}
		}
	}
}